{
  "contractName": "BasicContract",
  "abi": [
    {
      "constant": true,
      "inputs": [
        {
          "name": "",
          "type": "address"
        }
      ],
      "name": "balances",
      "outputs": [
        {
          "name": "",
          "type": "uint256"
        }
      ],
      "payable": false,
      "stateMutability": "view",
      "type": "function"
    },
    {
      "constant": false,
      "inputs": [],
      "name": "deposit",
      "outputs": [
        {
          "name": "success",
          "type": "bool"
        }
      ],
      "payable": true,
      "stateMutability": "payable",
      "type": "function"
    },
    {
      "constant": false,
      "inputs": [
        {
          "name": "value",
          "type": "uint256"
        }
      ],
      "name": "withdraw",
      "outputs": [
        {
          "name": "success",
          "type": "bool"
        }
      ],
      "payable": false,
      "stateMutability": "nonpayable",
      "type": "function"
    },
    {
      "constant": false,
      "inputs": [
        {
          "name": "to",
          "type": "address"
        },
        {
          "name": "value",
          "type": "uint256"
        }
      ],
      "name": "transfer",
      "outputs": [
        {
          "name": "success",
          "type": "bool"
        }
      ],
      "payable": false,
      "stateMutability": "nonpayable",
      "type": "function"
    }
  ],
  "bytecode": "0x608060405234801561001057600080fd5b506103fd806100206000396000f3fe60806040526004361061003f5760003560e01c806327e235e3146100445780632e1a7d4d146100a9578063a9059cbb146100fc578063d0e30db01461016f575b600080fd5b34801561005057600080fd5b506100936004803603602081101561006757600080fd5b81019080803573ffffffffffffffffffffffffffffffffffffffff169060200190929190505050610191565b6040518082815260200191505060405180910390f35b3480156100b557600080fd5b506100e2600480360360208110156100cc57600080fd5b81019080803590602001909291905050506101a9565b604051808215151515815260200191505060405180910390f35b34801561010857600080fd5b506101556004803603604081101561011f57600080fd5b81019080803573ffffffffffffffffffffffffffffffffffffffff16906020019092919080359060200190929190505050610292565b604051808215151515815260200191505060405180910390f35b61017761037c565b604051808215151515815260200191505060405180910390f35b60006020528060005260406000206000915090505481565b6000816000803373ffffffffffffffffffffffffffffffffffffffff1673ffffffffffffffffffffffffffffffffffffffff1681526020019081526020016000205410156101f657600080fd5b816000803373ffffffffffffffffffffffffffffffffffffffff1673ffffffffffffffffffffffffffffffffffffffff168152602001908152602001600020600082825403925050819055503373ffffffffffffffffffffffffffffffffffffffff166108fc839081150290604051600060405180830381858888f19350505050158015610288573d6000803e3d6000fd5b5060019050919050565b6000816000803373ffffffffffffffffffffffffffffffffffffffff1673ffffffffffffffffffffffffffffffffffffffff1681526020019081526020016000205410156102df57600080fd5b816000803373ffffffffffffffffffffffffffffffffffffffff1673ffffffffffffffffffffffffffffffffffffffff168152602001908152602001600020600082825403925050819055508273ffffffffffffffffffffffffffffffffffffffff166108fc839081150290604051600060405180830381858888f19350505050158015610371573d6000803e3d6000fd5b506001905092915050565b6000346000803373ffffffffffffffffffffffffffffffffffffffff1673ffffffffffffffffffffffffffffffffffffffff16815260200190815260200160002060008282540192505081905550600190509056fea165627a7a7230582070e3f05acb30cf3d3223439cde90a552fa026344556fce4ec3af7fc7ff2b84c10029",
  "source": "pragma solidity ^0.5.8;\n\ncontract BasicContract {\n\n\n    mapping (address => uint256) public balances;\n\n    function deposit() public payable returns(bool success) {\n        balances[msg.sender] += msg.value;\n        return true;\n    }\n\n    function withdraw(uint value) public returns(bool success) {\n        if(balances[msg.sender] < value) revert();\n        balances[msg.sender] -= value;\n        msg.sender.transfer(value);\n        return true;\n    }\n\n    function transfer(address payable to, uint value) public returns(bool success) {\n        if(balances[msg.sender] < value) revert();\n        balances[msg.sender] -= value;\n        to.transfer(value);\n        return true;\n    }\n}",
  "sourcePath": "/home/andrei/indProj/indivProj/smartcontract/contracts/tutorial.sol",
  "compiler": {
    "name": "solc",
    "version": "0.5.8+commit.23d335f2.Emscripten.clang"
  },
  "schemaVersion": "3.0.11",
  "updatedAt": "2019-07-08T23:02:43.877Z",
  "devdoc": {
    "methods": {}
  },
  "userdoc": {
    "methods": {}
  }
}