{
  "abi": [
    {
      "constant": true,
      "inputs": [],
      "name": "getArrayLength",
      "outputs": [
        {
          "name": "",
          "type": "uint256"
        }
      ],
      "payable": false,
      "stateMutability": "view",
      "type": "function"
    },
    {
      "constant": false,
      "inputs": [
        {
          "name": "_decision",
          "type": "int256"
        }
      ],
      "name": "thirdPartyDecision",
      "outputs": [],
      "payable": true,
      "stateMutability": "payable",
      "type": "function"
    },
    {
      "constant": true,
      "inputs": [],
      "name": "calculateSellerDeposit",
      "outputs": [
        {
          "name": "",
          "type": "uint256"
        }
      ],
      "payable": false,
      "stateMutability": "view",
      "type": "function"
    },
    {
      "constant": true,
      "inputs": [],
      "name": "testPool",
      "outputs": [
        {
          "name": "",
          "type": "uint256"
        }
      ],
      "payable": false,
      "stateMutability": "view",
      "type": "function"
    },
    {
      "constant": true,
      "inputs": [],
      "name": "cleanCount",
      "outputs": [
        {
          "name": "",
          "type": "uint256"
        }
      ],
      "payable": false,
      "stateMutability": "view",
      "type": "function"
    },
    {
      "constant": false,
      "inputs": [
        {
          "name": "_advMethod",
          "type": "string"
        }
      ],
      "name": "transferToAdv",
      "outputs": [],
      "payable": true,
      "stateMutability": "payable",
      "type": "function"
    },
    {
      "constant": true,
      "inputs": [
        {
          "name": "_index",
          "type": "uint256"
        }
      ],
      "name": "getAdvClaimStrings",
      "outputs": [
        {
          "name": "",
          "type": "string"
        }
      ],
      "payable": false,
      "stateMutability": "view",
      "type": "function"
    },
    {
      "constant": true,
      "inputs": [],
      "name": "getCleanClaimCost",
      "outputs": [
        {
          "name": "",
          "type": "uint256"
        }
      ],
      "payable": false,
      "stateMutability": "view",
      "type": "function"
    },
    {
      "constant": true,
      "inputs": [],
      "name": "getContractAddress",
      "outputs": [
        {
          "name": "",
          "type": "address"
        }
      ],
      "payable": false,
      "stateMutability": "view",
      "type": "function"
    },
    {
      "constant": false,
      "inputs": [],
      "name": "getReward",
      "outputs": [],
      "payable": true,
      "stateMutability": "payable",
      "type": "function"
    },
    {
      "constant": true,
      "inputs": [
        {
          "name": "",
          "type": "address"
        }
      ],
      "name": "cleanClaims",
      "outputs": [
        {
          "name": "",
          "type": "uint256"
        }
      ],
      "payable": false,
      "stateMutability": "view",
      "type": "function"
    },
    {
      "constant": true,
      "inputs": [],
      "name": "getForcedInvocationCost",
      "outputs": [
        {
          "name": "",
          "type": "uint256"
        }
      ],
      "payable": false,
      "stateMutability": "view",
      "type": "function"
    },
    {
      "constant": true,
      "inputs": [],
      "name": "returncleanClaims",
      "outputs": [
        {
          "name": "",
          "type": "uint256"
        }
      ],
      "payable": false,
      "stateMutability": "view",
      "type": "function"
    },
    {
      "constant": true,
      "inputs": [
        {
          "name": "",
          "type": "address"
        }
      ],
      "name": "advClaims",
      "outputs": [
        {
          "name": "",
          "type": "uint256"
        }
      ],
      "payable": false,
      "stateMutability": "view",
      "type": "function"
    },
    {
      "constant": false,
      "inputs": [
        {
          "name": "_decision",
          "type": "int256"
        }
      ],
      "name": "forcedThirdPartyDecision",
      "outputs": [],
      "payable": true,
      "stateMutability": "payable",
      "type": "function"
    },
    {
      "constant": true,
      "inputs": [],
      "name": "getError",
      "outputs": [
        {
          "name": "",
          "type": "uint256"
        }
      ],
      "payable": false,
      "stateMutability": "view",
      "type": "function"
    },
    {
      "constant": true,
      "inputs": [],
      "name": "addBetSizes",
      "outputs": [
        {
          "name": "",
          "type": "uint256"
        }
      ],
      "payable": false,
      "stateMutability": "view",
      "type": "function"
    },
    {
      "constant": true,
      "inputs": [
        {
          "name": "index",
          "type": "uint256"
        }
      ],
      "name": "returnBetRatios",
      "outputs": [
        {
          "name": "",
          "type": "uint256"
        }
      ],
      "payable": false,
      "stateMutability": "view",
      "type": "function"
    },
    {
      "constant": true,
      "inputs": [],
      "name": "getContractBalance",
      "outputs": [
        {
          "name": "",
          "type": "uint256"
        }
      ],
      "payable": false,
      "stateMutability": "view",
      "type": "function"
    },
    {
      "constant": true,
      "inputs": [
        {
          "name": "_index",
          "type": "uint256"
        }
      ],
      "name": "calcDepositByIndex",
      "outputs": [
        {
          "name": "",
          "type": "bytes16"
        }
      ],
      "payable": false,
      "stateMutability": "view",
      "type": "function"
    },
    {
      "constant": true,
      "inputs": [],
      "name": "ownerDeposit",
      "outputs": [
        {
          "name": "",
          "type": "uint256"
        }
      ],
      "payable": false,
      "stateMutability": "view",
      "type": "function"
    },
    {
      "constant": true,
      "inputs": [],
      "name": "getSellerAddress",
      "outputs": [
        {
          "name": "",
          "type": "address"
        }
      ],
      "payable": false,
      "stateMutability": "view",
      "type": "function"
    },
    {
      "constant": false,
      "inputs": [],
      "name": "claimClean",
      "outputs": [],
      "payable": true,
      "stateMutability": "payable",
      "type": "function"
    },
    {
      "constant": true,
      "inputs": [
        {
          "name": "",
          "type": "address"
        }
      ],
      "name": "buyers",
      "outputs": [
        {
          "name": "",
          "type": "uint8"
        }
      ],
      "payable": false,
      "stateMutability": "view",
      "type": "function"
    },
    {
      "constant": true,
      "inputs": [],
      "name": "calcTransferCost",
      "outputs": [
        {
          "name": "",
          "type": "uint256"
        }
      ],
      "payable": false,
      "stateMutability": "view",
      "type": "function"
    },
    {
      "constant": false,
      "inputs": [
        {
          "name": "_advMethod",
          "type": "string"
        }
      ],
      "name": "claimAdversarial",
      "outputs": [],
      "payable": true,
      "stateMutability": "payable",
      "type": "function"
    },
    {
      "constant": true,
      "inputs": [],
      "name": "getTotalAdvPoolValue",
      "outputs": [
        {
          "name": "",
          "type": "uint256"
        }
      ],
      "payable": false,
      "stateMutability": "view",
      "type": "function"
    },
    {
      "constant": true,
      "inputs": [],
      "name": "thirdPartyAddress",
      "outputs": [
        {
          "name": "",
          "type": "address"
        }
      ],
      "payable": false,
      "stateMutability": "view",
      "type": "function"
    },
    {
      "constant": true,
      "inputs": [],
      "name": "price",
      "outputs": [
        {
          "name": "",
          "type": "uint256"
        }
      ],
      "payable": false,
      "stateMutability": "view",
      "type": "function"
    },
    {
      "constant": true,
      "inputs": [
        {
          "name": "",
          "type": "uint256"
        }
      ],
      "name": "cleanClaimantArray",
      "outputs": [
        {
          "name": "claimAddress",
          "type": "address"
        },
        {
          "name": "sizeOfBet",
          "type": "uint256"
        }
      ],
      "payable": false,
      "stateMutability": "view",
      "type": "function"
    },
    {
      "constant": true,
      "inputs": [
        {
          "name": "",
          "type": "uint256"
        }
      ],
      "name": "advClaimantArray",
      "outputs": [
        {
          "name": "claimAddress",
          "type": "address"
        },
        {
          "name": "adversarialGenMethod",
          "type": "string"
        },
        {
          "name": "sizeOfBet",
          "type": "uint256"
        }
      ],
      "payable": false,
      "stateMutability": "view",
      "type": "function"
    },
    {
      "constant": true,
      "inputs": [],
      "name": "advCount",
      "outputs": [
        {
          "name": "",
          "type": "uint256"
        }
      ],
      "payable": false,
      "stateMutability": "view",
      "type": "function"
    },
    {
      "constant": true,
      "inputs": [],
      "name": "getAdversarialClaimCost",
      "outputs": [
        {
          "name": "",
          "type": "uint256"
        }
      ],
      "payable": false,
      "stateMutability": "view",
      "type": "function"
    },
    {
      "constant": false,
      "inputs": [],
      "name": "incrementValues",
      "outputs": [],
      "payable": true,
      "stateMutability": "payable",
      "type": "function"
    },
    {
      "constant": false,
      "inputs": [],
      "name": "deposit",
      "outputs": [],
      "payable": true,
      "stateMutability": "payable",
      "type": "function"
    },
    {
      "constant": true,
      "inputs": [],
      "name": "buyerIndex",
      "outputs": [
        {
          "name": "",
          "type": "uint256"
        }
      ],
      "payable": false,
      "stateMutability": "view",
      "type": "function"
    },
    {
      "constant": true,
      "inputs": [],
      "name": "getTotalCleanPoolValue",
      "outputs": [
        {
          "name": "",
          "type": "uint256"
        }
      ],
      "payable": false,
      "stateMutability": "view",
      "type": "function"
    },
    {
      "constant": true,
      "inputs": [],
      "name": "getCurrentDatasetOpinion",
      "outputs": [
        {
          "name": "",
          "type": "int256"
        }
      ],
      "payable": false,
      "stateMutability": "view",
      "type": "function"
    },
    {
      "constant": false,
      "inputs": [],
      "name": "invokeThirdParty",
      "outputs": [],
      "payable": true,
      "stateMutability": "payable",
      "type": "function"
    },
    {
      "inputs": [
        {
          "name": "_price",
          "type": "uint256"
        },
        {
          "name": "_possibleClients",
          "type": "uint256"
        },
        {
          "name": "_decayPct",
          "type": "uint256"
        },
        {
          "name": "_durationInDays",
          "type": "uint256"
        },
        {
          "name": "_testerShare",
          "type": "uint256"
        },
        {
          "name": "_thirdPartyAddress",
          "type": "address"
        }
      ],
      "payable": false,
      "stateMutability": "nonpayable",
      "type": "constructor"
    },
    {
      "payable": true,
      "stateMutability": "payable",
      "type": "fallback"
    },
    {
      "anonymous": false,
      "inputs": [
        {
          "indexed": false,
          "name": "_price",
          "type": "uint256"
        },
        {
          "indexed": false,
          "name": "_possibleClients",
          "type": "uint256"
        },
        {
          "indexed": false,
          "name": "_decayPct",
          "type": "uint256"
        },
        {
          "indexed": false,
          "name": "_durationInDays",
          "type": "uint256"
        },
        {
          "indexed": false,
          "name": "_testerShare",
          "type": "uint256"
        },
        {
          "indexed": false,
          "name": "sellerAddress",
          "type": "address"
        }
      ],
      "name": "ContractCreation",
      "type": "event"
    },
    {
      "anonymous": false,
      "inputs": [
        {
          "indexed": false,
          "name": "depAddress",
          "type": "address"
        },
        {
          "indexed": false,
          "name": "depositedValue",
          "type": "uint256"
        },
        {
          "indexed": false,
          "name": "valueForTestPool",
          "type": "uint256"
        }
      ],
      "name": "SellerDeposit",
      "type": "event"
    },
    {
      "anonymous": false,
      "inputs": [
        {
          "indexed": false,
          "name": "depAddress",
          "type": "address"
        },
        {
          "indexed": false,
          "name": "depositedValue",
          "type": "uint256"
        },
        {
          "indexed": false,
          "name": "valueForTestPool",
          "type": "uint256"
        },
        {
          "indexed": false,
          "name": "IndexOfBuyer",
          "type": "uint256"
        }
      ],
      "name": "BuyerDeposit",
      "type": "event"
    },
    {
      "anonymous": false,
      "inputs": [
        {
          "indexed": false,
          "name": "claimantAddress",
          "type": "address"
        },
        {
          "indexed": false,
          "name": "advMethod",
          "type": "string"
        },
        {
          "indexed": false,
          "name": "claimNumber",
          "type": "uint256"
        }
      ],
      "name": "AdversarialClaim",
      "type": "event"
    },
    {
      "anonymous": false,
      "inputs": [
        {
          "indexed": false,
          "name": "claimantAddress",
          "type": "address"
        },
        {
          "indexed": false,
          "name": "claimNumber",
          "type": "uint256"
        }
      ],
      "name": "CleanClaim",
      "type": "event"
    },
    {
      "anonymous": false,
      "inputs": [
        {
          "indexed": false,
          "name": "transferAddress",
          "type": "address"
        }
      ],
      "name": "TransferToAdversarial",
      "type": "event"
    },
    {
      "anonymous": false,
      "inputs": [
        {
          "indexed": false,
          "name": "claimAddress",
          "type": "address"
        },
        {
          "indexed": false,
          "name": "amountWithdrawn",
          "type": "uint256"
        }
      ],
      "name": "ClaimantWithdrawal",
      "type": "event"
    },
    {
      "anonymous": false,
      "inputs": [
        {
          "indexed": false,
          "name": "sellerAddress",
          "type": "address"
        },
        {
          "indexed": false,
          "name": "amountWithdrawn",
          "type": "uint256"
        }
      ],
      "name": "SellerWithdrawal",
      "type": "event"
    },
    {
      "anonymous": false,
      "inputs": [
        {
          "indexed": false,
          "name": "invokerAddress",
          "type": "address"
        }
      ],
      "name": "ThirdPartyInvocation",
      "type": "event"
    },
    {
      "anonymous": false,
      "inputs": [
        {
          "indexed": false,
          "name": "buyerAddress",
          "type": "address"
        }
      ],
      "name": "BuyerRefund",
      "type": "event"
    },
    {
      "anonymous": false,
      "inputs": [
        {
          "indexed": false,
          "name": "thirdPartyAddress",
          "type": "address"
        },
        {
          "indexed": false,
          "name": "decision",
          "type": "int256"
        }
      ],
      "name": "ThirdPartyDecision",
      "type": "event"
    },
    {
      "anonymous": false,
      "inputs": [
        {
          "indexed": false,
          "name": "thirdPartyAddress",
          "type": "address"
        },
        {
          "indexed": false,
          "name": "amountWithdrawn",
          "type": "uint256"
        }
      ],
      "name": "ThirdPartyPayment",
      "type": "event"
    },
    {
      "anonymous": false,
      "inputs": [
        {
          "indexed": false,
          "name": "thirdPartyAddress",
          "type": "address"
        },
        {
          "indexed": false,
          "name": "cost",
          "type": "uint256"
        },
        {
          "indexed": false,
          "name": "decision",
          "type": "int256"
        }
      ],
      "name": "ForcedThirdPartyDecision",
      "type": "event"
    }
  ],
  "bytecode": "60806040523480156200001157600080fd5b5060405160c0806200575c833981018060405260c08110156200003357600080fd5b50805160208083015160408401516060850151608086015160a090960151606460178190559596939592949193929091620000789190620029d5620003a4821b17901c565b601860006101000a8154816001600160801b03021916908360801c0217905550600019601981905550620000b96019546200041860201b6200493b1760201c565b601a80546001600160801b03191660809290921c919091179055600a8054336001600160a01b031990911617905542600e55600b8690556015859055600c8290556200011185620003a4602090811b620029d517901c565b601a60106101000a8154816001600160801b03021916908360801c021790555062000149600b54620003a460201b620029d51760201c565b601660006101000a8154816001600160801b03021916908360801c02179055506200017f84620003a460201b620029d51760201c565b601680546001600160801b0316700100000000000000000000000000000000608093841c81029190911791829055601854620001dc936001600160801b031992909304831b91909116911b620004c4602090811b62002a5317901c565b601680546001600160801b0316700100000000000000000000000000000000608093841c02179055601854600c5462000249929190911b906200022b90620003a4602090811b620029d517901c565b6001600160801b031916620004c460201b62002a531790919060201c565b601d80546001600160801b0319908116608093841c17909155601a54620002d2926200029b927001000000000000000000000000000000008304821b1691901b620008fd602090811b62002d1a17901c565b601654700100000000000000000000000000000000900460801b6001600160801b03191690620008fd602090811b62002d1a17901c565b601b8054426008819055620151808702016009556001600160801b031916608092831c17600160801b60ff02191690556000601c55601d8054600160801b61ffff0219169055600a546040805189815260208101899052808201889052606081018790529283018590526001600160a01b0390911660a0830152517f151413107e9f523df10830c59741c37bb24ab17072b30acd321ce5ae2d5e05aa9160c0908290030190a1600780546001600160a01b0319166001600160a01b03929092169190911790555062000d169350505050565b600081620003b55750600062000413565b816000620003ca8262000cb0602090811b901c565b90506070811015620003e5578060700382901b9150620003f9565b6070811115620003f9576070810382901c91505b613fff0160701b6001600160701b03919091161760801b90505b919050565b600081620004295750600062000413565b60008083136200043d57826000036200043f565b825b90506000620004548262000cb060201b60201c565b905060708110156200046f578060700382901b915062000483565b607081111562000483576070810382901c91505b6001600160701b03909116613fff820160701b17906000841215620004b8576f80000000000000000000000000000000821791505b5060801b905062000413565b6000617fff6001600160801b03608085811c8216607090811c8416939186901c90921690911c8116908214156200055a5780617fff14156200052c57507f7fff8000000000000000000000000000000000000000000000000000000000009150620008f79050565b5050507f800000000000000000000000000000000000000000000000000000000000000081168218620008f7565b80617fff1415620005d257600160801b600160f01b03841615620005a457507f7fff8000000000000000000000000000000000000000000000000000000000009150620008f79050565b5050508082187f800000000000000000000000000000000000000000000000000000000000000016620008f7565b600160801b600160ff1b0384166200067257600160801b600160ff1b0385166200062257507f7fff8000000000000000000000000000000000000000000000000000000000009150620008f79050565b5050508082187f8000000000000000000000000000000000000000000000000000000000000000167f7fff00000000000000000000000000000000000000000000000000000000000017620008f7565b6001600160701b03608085901c1681620006905760019150620006a2565b6e010000000000000000000000000000175b6001600160701b03608087901c1683620006ec578015620006e6576000620006d08262000cb060201b60201c565b6001955060e20393840160711901939190911b90505b62000701565b6e0100000000000000000000000000001760721b5b8181816200070b57fe5b0490508062000774577f8000000000000000000000000000000000000000000000000000000000000000878718166200074657600062000768565b7f80000000000000000000000000000000000000000000000000000000000000005b945050505050620008f7565b6d10000000000000000000000000008110156200078d57fe5b60006e080000000000000000000000000000821015620007f4576e040000000000000000000000000000821015620007e8576e020000000000000000000000000000821015620007df576070620007e2565b60715b620007eb565b60725b60ff1662000805565b620008058262000cb060201b60201c565b9050836140710181860111156200082557617fff945060009150620008c0565b83818601613ffc01101562000842576000945060009150620008c0565b83818601613f8c01101562000894578385613ffc01111562000870578385613ffc010382901b91506200088a565b8385613ffc0110156200088a57613ffc8585030382901c91505b60009450620008c0565b6070811115620008a8576070810382901c91505b6001600160701b038216915083818601613f8d010394505b81607086901b888a186f8000000000000000000000000000000060801b1660801c6001600160801b0316171760801b955050505050505b92915050565b6000617fff6001600160801b03608085811c8216607090811c8416939186901c90921690911c81169082141562000a285780617fff1415620009ea576001600160801b031985811690851614156200097d575050507f800000000000000000000000000000000000000000000000000000000000000081168218620008f7565b7f80000000000000000000000000000000000000000000000000000000000000006001600160801b0319868618161415620009be57505050818117620008f7565b507f7fff8000000000000000000000000000000000000000000000000000000000009150620008f79050565b600160801b600160ff1b0384166200052c57507f7fff8000000000000000000000000000000000000000000000000000000000009150620008f79050565b80617fff141562000a9f57600160801b600160ff1b03851662000a7157507f7fff8000000000000000000000000000000000000000000000000000000000009150620008f79050565b5050507f800000000000000000000000000000000000000000000000000000000000000082168118620008f7565b6001600160701b03608086901c168262000abd576001925062000acf565b6e010000000000000000000000000000175b6001600160701b03608086901c168262000aed576001925062000aff565b6e010000000000000000000000000000175b908102908162000b3b577f8000000000000000000000000000000000000000000000000000000000000000878718166200074657600062000768565b9282019260007c020000000000000000000000000000000000000000000000000000000083101562000bad577c010000000000000000000000000000000000000000000000000000000083101562000ba45762000b9e8362000cb060201b60201c565b62000ba7565b60e05b62000bb0565b60e15b9050614070818601101562000bcd57600094506000925062000c74565b6140e0818601101562000c155761407085101562000bf557846140700383901c925062000c0b565b61407085111562000c0b57614070850383901b92505b6000945062000c74565b61c0dd818601111562000c3157617fff94506000925062000c74565b607081111562000c4a576070810383901c925062000c5e565b607081101562000c5e578060700383901b92505b6001600160701b03831692506140df8186010394505b82607086901b888a186f8000000000000000000000000000000060801b1660801c6001600160801b0316171760801b95505050505050620008f7565b600080821162000cbf57600080fd5b600060ff5b8082101562000d0f5781810160011c84811c8062000ce85760018203925062000d07565b600181111562000cfe5781600101935062000d07565b50915062000d0f565b505062000cc4565b5092915050565b614a368062000d266000396000f3fe6080604052600436106102305760003560e01c8063770d13761161012e578063a6690176116100ab578063d0e30db01161006f578063d0e30db014610230578063d8b005f614610844578063dc59b6de14610859578063e41f58c71461086e578063f0c137101461088357610230565b8063a66901761461070d578063b75f64711461075a578063b81c8e8f14610812578063b8ad6c3014610827578063c0ec3c3e1461083c57610230565b806398e537f4116100f257806398e537f4146106285780639aa8b2911461063d5780639cf6f0bc146104835780639f7096b6146106e3578063a035b1fe146106f857610230565b8063770d1376146105665780637b1aa45f146105ad57806384b09e86146105c25780639286d396146105d757806397a993aa146105df57610230565b80633d18b912116101bc57806358e237f81161018057806358e237f8146104e0578063635a3753146104fd5780636f7827d4146105125780636f919464146105275780636f9fb98a1461055157610230565b80633d18b91214610448578063403538231461045057806348d59afa14610483578063532a5f20146104985780635673341f146104ad57610230565b80631713cca0116102035780631713cca0146102a85780631a710c23146102bd5780631df8d831146103635780632c83f4781461040257806332a2c5d01461041757610230565b80630849cc991461023a5780630b8efbd4146102615780630ffba7381461027e57806312a8fd8814610293575b61023861088b565b005b34801561024657600080fd5b5061024f610a91565b60408051918252519081900360200190f35b6102386004803603602081101561027757600080fd5b5035610a98565b34801561028a57600080fd5b5061024f611051565b34801561029f57600080fd5b5061024f6110ab565b3480156102b457600080fd5b5061024f6110b1565b610238600480360360208110156102d357600080fd5b8101906020810181356401000000008111156102ee57600080fd5b82018360208201111561030057600080fd5b8035906020019184600183028401116401000000008311171561032257600080fd5b91908080601f0160208091040260200160405190810160405280939291908181526020018383808284376000920191909152509295506110b7945050505050565b34801561036f57600080fd5b5061038d6004803603602081101561038657600080fd5b50356114f8565b6040805160208082528351818301528351919283929083019185019080838360005b838110156103c75781810151838201526020016103af565b50505050905090810190601f1680156103f45780820380516001836020036101000a031916815260200191505b509250505060405180910390f35b34801561040e57600080fd5b5061024f6115b9565b34801561042357600080fd5b5061042c6115ec565b604080516001600160a01b039092168252519081900360200190f35b6102386115f0565b34801561045c57600080fd5b5061024f6004803603602081101561047357600080fd5b50356001600160a01b0316611b12565b34801561048f57600080fd5b5061024f611b24565b3480156104a457600080fd5b5061024f611b47565b3480156104b957600080fd5b5061024f600480360360208110156104d057600080fd5b50356001600160a01b0316611b5a565b610238600480360360208110156104f657600080fd5b5035611b6c565b34801561050957600080fd5b5061024f612098565b34801561051e57600080fd5b5061024f6120ce565b34801561053357600080fd5b5061024f6004803603602081101561054a57600080fd5b5035612110565b34801561055d57600080fd5b5061024f612149565b34801561057257600080fd5b506105906004803603602081101561058957600080fd5b503561214e565b604080516001600160801b03199092168252519081900360200190f35b3480156105b957600080fd5b5061024f6121be565b3480156105ce57600080fd5b5061042c6121c4565b6102386121d3565b3480156105eb57600080fd5b506106126004803603602081101561060257600080fd5b50356001600160a01b031661238e565b6040805160ff9092168252519081900360200190f35b34801561063457600080fd5b5061024f6123a3565b6102386004803603602081101561065357600080fd5b81019060208101813564010000000081111561066e57600080fd5b82018360208201111561068057600080fd5b803590602001918460018302840111640100000000831117156106a257600080fd5b91908080601f01602080910402602001604051908101604052809392919081815260200183838082843760009201919091525092955061244c945050505050565b3480156106ef57600080fd5b5061042c6126c8565b34801561070457600080fd5b5061024f6126d7565b34801561071957600080fd5b506107376004803603602081101561073057600080fd5b50356126dd565b604080516001600160a01b03909316835260208301919091528051918290030190f35b34801561076657600080fd5b506107846004803603602081101561077d57600080fd5b5035612712565b604080516001600160a01b0385168152908101829052606060208083018281528551928401929092528451608084019186019080838360005b838110156107d55781810151838201526020016107bd565b50505050905090810190601f1680156108025780820380516001836020036101000a031916815260200191505b5094505050505060405180910390f35b34801561081e57600080fd5b5061024f6127dc565b34801561083357600080fd5b5061024f6127e2565b610238612804565b34801561085057600080fd5b5061024f6128b0565b34801561086557600080fd5b5061024f6128b6565b34801561087a57600080fd5b5061024f6128d2565b61023861293e565b6201518060095403421061089e57600080fd5b600a546001600160a01b0316331480156108ba57506000601454115b156109d75760006108c9611051565b90508034146108d757600080fd5b600061095a61094b61092c601860009054906101000a900460801b610916610900600c546129d5565b60185460801b6001600160801b03191690612a3a565b6001600160801b0319169063ffffffff612a5316565b610935346129d5565b6001600160801b0319169063ffffffff612d1a16565b6001600160801b031916612f94565b600f805482019055600d805434839003908101909155601454601c55601b8054600160801b60ff021916600160801b179055604080513381526020810184905280820192909252519192507f598109cbc545adb09939d3f657adc229f0f8945368e527851b10d73993aa5d0e919081900360600190a15050610a8f565b6001805480820182557fb10e2d527612073b26eecdfd717e6a320cf44b4afac2b0732d9fcbe2b7fa0cf60180546001600160a01b0319163390811790915560008181526020818152604091829020805460ff1916851790556014805490940193849055601b8054600160801b60ff021916905581519283523490830181905282820152606082019290925290517f5ceae04607d1cf65f885d7e4f9a9ecc0984bd046fb128e481aa28b4f59b617c89181900360800190a15b565b6003545b90565b600754601d8054600160801b60ff021916600160801b6001600160a01b039093163314928302179055610aca57600080fd5b8060011415610d8a57600a54600b54601454600f546040516001600160a01b0390941693919092029190910180156108fc02916000818181858888f19350505050158015610b1c573d6000803e3d6000fd5b50600a54600b54601454600f54604080516001600160a01b03909516855291909202909101602083015280517ff0015a56dd924d608ce6c5729e2083095b5aa522321cf1baefce60637341e34c9281900390910190a160005b600254811015610c9457600060028281548110610b8e57fe5b906000526020600020906002020160010154610be561094b610bb1600d546129d5565b600654600280546109359260801b91610916918a908110610bce57fe5b9060005260206000209060020201600101546129d5565b01905060028281548110610bf557fe5b600091825260208220600290910201546040516001600160a01b039091169183156108fc02918491818181858888f19350505050158015610c3a573d6000803e3d6000fd5b506000805160206149eb83398151915260028381548110610c5757fe5b600091825260209182902060029091020154604080516001600160a01b03909216825291810184905281519081900390910190a150600101610b75565b5060065433906108fc90610cbb90600160801b900460801b6001600160801b031916612f94565b6040518115909202916000818181858888f19350505050158015610ce3573d6000803e3d6000fd5b506006547f221d1cb74844fbe494ce391226c9dc4e80adee4d1a8e44508801576313d74be4903390610d2890600160801b900460801b6001600160801b031916612f94565b604080516001600160a01b03909316835260208301919091528051918290030190a1604080513381526001602082015281517fe862598a8a64919095d7f371bb576a1b8ed5814eaeff9bd21f1990bf53095681929181900390910190a161104e565b80600019141561104e5760005b601454811015610e1c57600b54604051339180156108fc02916000818181858888f19350505050158015610dcf573d6000803e3d6000fd5b506000805160206149cb83398151915260018281548110610dec57fe5b60009182526020918290200154604080516001600160a01b039092168252519081900390910190a1600101610d97565b5060005b600254811015610f6957600060038281548110610e3957fe5b906000526020600020906003020160020154610eba61094b610e80610e5f600f546129d5565b610e6a600d546129d5565b6001600160801b0319169063ffffffff61302c16565b610935600660109054906101000a900460801b61091660038981548110610ea357fe5b9060005260206000209060030201600201546129d5565b01905060038281548110610eca57fe5b600091825260208220600390910201546040516001600160a01b039091169183156108fc02918491818181858888f19350505050158015610f0f573d6000803e3d6000fd5b506000805160206149eb83398151915260038381548110610f2c57fe5b600091825260209182902060039091020154604080516001600160a01b03909216825291810184905281519081900390910190a150600101610e20565b5060065433906108fc90610f899060801b6001600160801b031916612f94565b6040518115909202916000818181858888f19350505050158015610fb1573d6000803e3d6000fd5b506006547f221d1cb74844fbe494ce391226c9dc4e80adee4d1a8e44508801576313d74be4903390610fef9060801b6001600160801b031916612f94565b604080516001600160a01b03909316835260208301919091528051918290030190a160408051338152600019602082015281517fe862598a8a64919095d7f371bb576a1b8ed5814eaeff9bd21f1990bf53095681929181900390910190a15b50565b601c5460009081905b601454811015611091576110876110708261214e565b6001600160801b031984169063ffffffff61302c16565b915060010161105a565b506110a56001600160801b03198216612f94565b91505090565b600d5481565b60125481565b620151806009540342106110ca57600080fd5b336000908152600460205260409020546110e357600080fd5b620151806009540342106110f657600080fd5b6110fe6123a3565b61134157600061110c6127e2565b9050611116614862565b33600081815260046020526040902054600280546108fc9286929160001990910190811061114057fe5b906000526020600020906002020160010154039081150290604051600060405180830381858888f1935050505015801561117e573d6000803e3d6000fd5b5033600090815260046020526040902054600280546111c1926111ab9291600019909101908110610bce57fe5b60065460801b6001600160801b03191690612a3a565b600680546001600160801b03191660809290921c9190911790556112046111e7836129d5565b600654600160801b900460801b6001600160801b0319169061302c565b600680546001600160801b0316600160801b60809390931c929092029190911790556020818101848152338352604083018490526003805460018101808355600083905285517fc2575a0e9e593c00f959f8c92f12db2869c3395a3b0502d05e2516446f71f85b9290930291820180546001600160a01b0319166001600160a01b0390941693909317835592518051939486946112c7937fc2575a0e9e593c00f959f8c92f12db2869c3395a3b0502d05e2516446f71f85c01929091019061488c565b5060409182015160029182015560035433600090815260056020908152848220929092556004909152919091205481549192506000190190811061130757fe5b60009182526020808320600290920290910180546001600160a01b0319168155600101829055338252600490526040812055506114af9050565b600061134b6123a3565b905080341461135957600080fd5b611361614862565b6020808201849052336000908152600490915260409020546002805484926000190190811061138c57fe5b60009182526020808320600292830201600101549390930160408581019190915233808652835260049093529190205481546113d7926111ab929091600019909101908110610bce57fe5b600680546001600160801b03191660809290921c9190911790553360009081526004602052604090205460028054611436926111e792869290916000190190811061141e57fe5b906000526020600020906002020160010154016129d5565b6006805460809290921c600160801b026001600160801b03909216919091179055336000908152600460205260409020546002805490916000190190811061147a57fe5b60009182526020808320600290920290910180546001600160a01b031916815560010182905533825260049052604081205550505b601280546000190190556013805460010190556040805133815290517f05781e6a4c32034fb8451c4c967ef9ed3e94f6c4b3927af14475b96fef21eafa9181900360200190a150565b60606003828154811061150757fe5b90600052602060002090600302016001018054600181600116156101000203166002900480601f0160208091040260200160405190810160405280929190818152602001828054600181600116156101000203166002900480156115ac5780601f10611581576101008083540402835291602001916115ac565b820191906000526020600020905b81548152906001019060200180831161158f57829003601f168201915b505050505090505b919050565b601854600c546000916115e79161094b9160801b90610916906115db906129d5565b6002546109359061214e565b905090565b3090565b601d54600160801b900460ff161561160757600080fd5b601d54600160881b900460ff161561161e57600080fd5b601b54600160801b900460ff161515600114156119b65761163d6128d2565b600114156117dd57600a546001600160a01b03163314156116e157600b54601454600f54600a546040519290930201916001600160a01b03169082156108fc029083906000818181858888f1935050505015801561169f573d6000803e3d6000fd5b50604080513381526020810183905281517ff0015a56dd924d608ce6c5729e2083095b5aa522321cf1baefce60637341e34c929181900390910190a150610a8f565b336000908152600460205260409020546116fa57600080fd5b336000908152600460205260408120546002805490916000190190811061171d57fe5b906000526020600020906002020160010154905060008161176b61094b611758600660109054906101000a900460801b610e6a600d546129d5565b6006546109359060801b610916886129d5565b60405191019150339082156108fc029083906000818181858888f1935050505015801561179c573d6000803e3d6000fd5b50604080513381526020810183905281516000805160206149eb833981519152929181900390910190a1505033600090815260046020526040812055610a8f565b6117e56128d2565b6000191415611967573360009081526020819052604090205460ff1660011461180d57600080fd5b600b54604051339180156108fc02916000818181858888f1935050505015801561183b573d6000803e3d6000fd5b506040805133815290516000805160206149cb8339815191529181900360200190a1336000908152600560205260409020541561194b57336000908152600560205260408120546003805490916000190190811061189557fe5b90600052602060002090600302016002015490506000816118ed61094b6118d3610e5f600660009054906101000a900460801b610e6a600f546129d5565b60065461093590600160801b900460801b610916886129d5565b60405191019150339082156108fc029083906000818181858888f1935050505015801561191e573d6000803e3d6000fd5b50604080513381526020810183905281516000805160206149eb833981519152929181900390910190a150505b336000908152602081905260409020805460ff191690556119b1565b601d8054600160801b60ff021916600160801b1790556040805133815290517feb42bcea8ba7f51475d0353ef5379d88c3b94a4f3007df54a2449fdfe94cf3f69181900360200190a15b610a8f565b3360009081526020819052604090205460ff166001146119d557600080fd5b600b54604051339180156108fc02916000818181858888f19350505050158015611a03573d6000803e3d6000fd5b506040805133815290516000805160206149cb8339815191529181900360200190a13360009081526005602052604090205415611af9573360009081526005602052604081205460038054909160001901908110611a5d57fe5b9060005260206000209060030201600201549050600081611a9b61094b6118d3610e5f600660009054906101000a900460801b610e6a600f546129d5565b60405191019150339082156108fc029083906000818181858888f19350505050158015611acc573d6000803e3d6000fd5b50604080513381526020810183905281516000805160206149eb833981519152929181900390910190a150505b336000908152602081905260409020805460ff19169055565b60046020526000908152604090205481565b6006546000906115e790600160801b900460801b6001600160801b031916612f94565b3360009081526004602052604090205490565b60056020526000908152604090205481565b600754601d8054600160801b60ff021916600160801b6001600160a01b039093163314928302179055611b9e57600080fd5b8060011415611e4157600a546006546001600160a01b03909116906108fc90611bda90600160801b900460801b6001600160801b031916612f94565b600b5460145402600f5401019081150290604051600060405180830381858888f19350505050158015611c11573d6000803e3d6000fd5b50600a54600b54601454600f54604080516001600160a01b03909516855291909202909101602083015280517ff0015a56dd924d608ce6c5729e2083095b5aa522321cf1baefce60637341e34c9281900390910190a160025415611d635760005b600254811015611d5d57600060028281548110611c8b57fe5b906000526020600020906002020160010154611cae61094b610bb1600d546129d5565b01905060028281548110611cbe57fe5b600091825260208220600290910201546040516001600160a01b039091169183156108fc02918491818181858888f19350505050158015611d03573d6000803e3d6000fd5b506000805160206149eb83398151915260028381548110611d2057fe5b600091825260209182902060029091020154604080516001600160a01b03909216825291810184905281519081900390910190a150600101611c72565b50611da1565b600a54600d546040516001600160a01b039092169181156108fc0291906000818181858888f19350505050158015611d9f573d6000803e3d6000fd5b505b6040513390303180156108fc02916000818181858888f19350505050158015611dce573d6000803e3d6000fd5b506006547ffd78c019fc844c495d3b73279fa7ac647f1db81c57a265e4afe795c0c3fff191903390611e1390600160801b900460801b6001600160801b031916612f94565b604080516001600160a01b0390931683526020830191909152818101849052519081900360600190a161104e565b80600019141561104e5760005b601454811015611ed357600b54604051339180156108fc02916000818181858888f19350505050158015611e86573d6000803e3d6000fd5b506000805160206149cb83398151915260018281548110611ea357fe5b60009182526020918290200154604080516001600160a01b039092168252519081900390910190a1600101611e4e565b5060005b600354811015611fd857600060038281548110611ef057fe5b906000526020600020906003020160020154611f2961094b610e80610e5f600660009054906101000a900460801b610e6a600f546129d5565b01905060038281548110611f3957fe5b600091825260208220600390910201546040516001600160a01b039091169183156108fc02918491818181858888f19350505050158015611f7e573d6000803e3d6000fd5b506000805160206149eb83398151915260038381548110611f9b57fe5b600091825260209182902060039091020154604080516001600160a01b03909216825291810184905281519081900390910190a150600101611ed7565b5060065433906108fc90611fff90600160801b900460801b6001600160801b031916612f94565b6040518115909202916000818181858888f19350505050158015612027573d6000803e3d6000fd5b506006547ffd78c019fc844c495d3b73279fa7ac647f1db81c57a265e4afe795c0c3fff19190339061206c90600160801b900460801b6001600160801b031916612f94565b604080516001600160a01b0390931683526020830191909152818101849052519081900360600190a150565b336000908152600460205260408120546002805490919081106120b757fe5b906000526020600020906002020160010154905090565b600080805b60025481101561210a57600281815481106120ea57fe5b6000918252602090912060016002909202018101549290920191016120d3565b50905090565b600654601854600280546000936121439361094b93608092831b93610916939290921b91610935919089908110610bce57fe5b92915050565b303190565b60008061215a836129d5565b601b54909150600090612181906001600160801b031984169060801b63ffffffff612a5316565b905060006121986001600160801b0319831661344b565b6016549091506121b59060801b6001600160801b03191682612d1a565b95945050505050565b600f5481565b600a546001600160a01b031690565b3360009081526020819052604090205460ff166001148015612202575033600090815260046020526040902054155b801561221b575033600090815260056020526040902054155b61222457600080fd5b6000612247601860009054906101000a900460801b6109166115db600c546129d5565b90503461225d6001600160801b03198316612f94565b1461226757600080fd5b61226f61490a565b338082523460208084019182526002805460018082018355600083815287517f405787fa12a823e0f2b7631cc41b3ba8828b3321ca811111fa75cd3aa3bb5ace93850293840180546001600160a01b0319166001600160a01b0390921691909117905594517f405787fa12a823e0f2b7631cc41b3ba8828b3321ca811111fa75cd3aa3bb5acf90920191909155905493835260049091526040909120919091556012805490910190556006546123329060801b6001600160801b0319168361302c565b600680546001600160801b03191660809290921c91909117905560125460408051338152602081019290925280517fab7cb3a8958adc116d7b6403bac6f328175a93b127aeb312ccfaf25920eead1b9281900390910190a15050565b60006020819052908152604090205460ff1681565b336000908152600460205260408120546123bc57600080fd5b6123c46127e2565b33600090815260046020526040902054600280549091600019019081106123e757fe5b906000526020600020906002020160010154111561240757506000610a95565b336000908152600460205260409020546002805490916000190190811061242a57fe5b9060005260206000209060020201600101546124446127e2565b039050610a95565b3360009081526020819052604090205460ff16600114801561247b575033600090815260046020526040902054155b8015612494575033600090815260056020526040902054155b61249d57600080fd5b60006124cc601860009054906101000a900460801b6109166124c0600c546129d5565b6003546109359061214e565b9050346124e26001600160801b03198316612f94565b146124ec57600080fd5b6124f4614862565b60208181018481523383523460408401526003805460018101808355600083905285517fc2575a0e9e593c00f959f8c92f12db2869c3395a3b0502d05e2516446f71f85b9290930291820180546001600160a01b0319166001600160a01b039094169390931783559251805193948694612594937fc2575a0e9e593c00f959f8c92f12db2869c3395a3b0502d05e2516446f71f85c01929091019061488c565b5060409182015160029091015560035433600090815260056020529190912055506013805460010190556006546125e6906001600160801b0319600160801b90910460801b168363ffffffff61302c16565b600660106101000a8154816001600160801b03021916908360801c02179055507fd282903e7ed3f80bfbd1ffe97de0afbb49e78db37c64b641f7797cf79d08e261338460135460405180846001600160a01b03166001600160a01b0316815260200180602001838152602001828103825284818151815260200191508051906020019080838360005b8381101561268757818101518382015260200161266f565b50505050905090810190601f1680156126b45780820380516001836020036101000a031916815260200191505b5094505050505060405180910390a1505050565b6007546001600160a01b031681565b600b5481565b600281815481106126ea57fe5b6000918252602090912060029091020180546001909101546001600160a01b03909116915082565b6003818154811061271f57fe5b600091825260209182902060039091020180546001808301805460408051601f60026000199685161561010002969096019093169490940491820187900487028401870190528083526001600160a01b0390931695509293909291908301828280156127cc5780601f106127a1576101008083540402835291602001916127cc565b820191906000526020600020905b8154815290600101906020018083116127af57829003601f168201915b5050505050908060020154905083565b60135481565b601854600c546000916115e79161094b9160801b90610916906124c0906129d5565b61280c614862565b600380546001810180835560008390528351919092027fc2575a0e9e593c00f959f8c92f12db2869c3395a3b0502d05e2516446f71f85b810180546001600160a01b039093166001600160a01b0319909316929092178255602080850151805186949361289f937fc2575a0e9e593c00f959f8c92f12db2869c3395a3b0502d05e2516446f71f85c90910192019061488c565b506040820151816002015550505050565b60145481565b6006546000906115e79060801b6001600160801b031916612f94565b600080600190508060125411156128e857506012545b6013546001908110156128fa57506013545b600281838161290557fe5b041061291657600192505050610a95565b600282828161292157fe5b04106129335760001992505050610a95565b600092505050610a95565b60065461295e90600160801b900460801b6001600160801b031916612f94565b341480156129765750600a546001600160a01b031633145b61297f57600080fd5b601d805471ff00000000000000000000000000000000001916600160881b1790556040805133815290517feb42bcea8ba7f51475d0353ef5379d88c3b94a4f3007df54a2449fdfe94cf3f69181900360200190a1565b6000816129e4575060006115b4565b8160006129f08261347f565b90506070811015612a09578060700382901b9150612a1c565b6070811115612a1c576070810382901c91505b613fff0160701b6001600160701b03919091161760801b90506115b4565b6000612a4c83600160ff1b841861302c565b9392505050565b6000617fff6001600160801b03608085811c8216607090811c8416939186901c90921690911c811690821415612ab15780617fff1415612aa05750600160ef1b61ffff0291506121439050565b505050600160ff1b81168218612143565b80617fff1415612af157600160801b600160f01b03841615612ae05750600160ef1b61ffff0291506121439050565b505050808218600160ff1b16612143565b600160801b600160ff1b038416612b4157600160801b600160ff1b038516612b265750600160ef1b61ffff0291506121439050565b505050808218600160ff1b16600160f01b617fff0217612143565b6001600160701b03608085901c1681612b5d5760019150612b64565b600160701b175b6001600160701b03608087901c1683612ba3578015612b9e576000612b888261347f565b6001955060e20393840160711901939190911b90505b612bad565b600160701b1760721b5b818181612bb657fe5b04905080612be357600160ff1b87871816612bd2576000612bd8565b600160ff1b5b945050505050612143565b6001606c1b811015612bf157fe5b6000600160731b821015612c3157600160721b821015612c2657600160711b821015612c1e576070612c21565b60715b612c29565b60725b60ff16612c3a565b612c3a8261347f565b905083614071018186011115612c5857617fff945060009150612ceb565b83818601613ffc011015612c73576000945060009150612ceb565b83818601613f8c011015612cc0578385613ffc011115612c9e578385613ffc010382901b9150612cb7565b8385613ffc011015612cb757613ffc8585030382901c91505b60009450612ceb565b6070811115612cd3576070810382901c91505b6001600160701b038216915083818601613f8d010394505b81607086901b888a186001607f1b60801b1660801c6001600160801b0316171760801b95505050505050612143565b6000617fff6001600160801b03608085811c8216607090811c8416939186901c90921690911c811690821415612dd45780617fff1415612db0576001600160801b03198581169085161415612d7a57505050600160ff1b81168218612143565b600160ff1b6001600160801b0319868618161415612d9d57505050818117612143565b50600160ef1b61ffff0291506121439050565b600160801b600160ff1b038416612aa05750600160ef1b61ffff0291506121439050565b80617fff1415612e1357600160801b600160ff1b038516612e025750600160ef1b61ffff0291506121439050565b505050600160ff1b82168118612143565b6001600160701b03608086901c1682612e2f5760019250612e36565b600160701b175b6001600160701b03608086901c1682612e525760019250612e59565b600160701b175b9081029081612e7657600160ff1b87871816612bd2576000612bd8565b928201926000600160e11b831015612eaa57600160e01b831015612ea257612e9d8361347f565b612ea5565b60e05b612ead565b60e15b90506140708186011015612ec8576000945060009250612f65565b6140e08186011015612f0b57614070851015612eed57846140700383901c9250612f02565b614070851115612f0257614070850383901b92505b60009450612f65565b61c0dd8186011115612f2557617fff945060009250612f65565b6070811115612f3c576070810383901c9250612f4f565b6070811015612f4f578060700383901b92505b6001600160701b03831692506140df8186010394505b82607086901b888a186001607f1b60801b1660801c6001600160801b0316171760801b95505050505050612143565b6000617fff6001600160801b03608084901c1660701c16613fff811015612fbf5760009150506115b4565b6001607f1b8360801c6001600160801b031610612fdb57600080fd5b6140fe811115612fea57600080fd5b600160701b6001600160701b03608085901c161761406f8210156130145761406f8290031c612a4c565b61406f821115612a4c5761406e1982011b9392505050565b6000617fff6001600160801b03608085811c8216607090811c8416939186901c90921690911c81169082141561308f5780617fff1415613085576001600160801b03198581169085161415612d9d578492505050612143565b8492505050612143565b80617fff14156130a3578392505050612143565b6001607f1b608086901c6001600160801b0381169190911015906001600160701b0316836130d457600193506130db565b600160701b175b6001607f1b608087901c6001600160801b0381169190911015906001600160701b03168461310c5760019450613113565b600160701b175b82613143576001600160801b03198816600160ff1b146131335787613136565b60005b9650505050505050612143565b80613163576001600160801b03198916600160ff1b146131335788613136565b848603841515831515141561328957607081131561318a5789975050505050505050612143565b60008113156131a957808260008212156131a057fe5b901c91506131e3565b606f198112156131c25788975050505050505050612143565b60008112156131e357806000038460008212156131db57fe5b901c93508596505b92810192600160711b84106131fe576001968701969390931c925b86617fff1415613233578461321b57600160f01b617fff02613225565b6001600160f01b03195b975050505050505050612143565b600160701b8410156132485760009650613255565b6001600160701b03841693505b83607088901b8661326757600061326d565b6001607f1b5b6001600160801b0316171760801b975050505050505050612143565b60008113156132a457600184901b93506001870396506132bb565b60008112156132bb57600182901b91506001860396505b60708113156132cd5760019150613330565b60018113156132f557600181036001830360008212156132e957fe5b901c6001019150613330565b606f198112156133085760019350613330565b600019811215613330576001816000030360018503600082121561332857fe5b901c60010193505b81841061334157818403935061334a565b83820393508294505b8361336057506000965061214395505050505050565b600061336b8561347f565b9050806071141561339157600185901c6001600160701b031694506001880197506133e0565b60708110156133d3576070819003808911156133c0578086901b6001600160701b0316955080890398506133cd565b600098600019019590951b945b506133e0565b6001600160701b03851694505b87617fff141561341657856133fd57600160f01b617fff02613407565b6001600160f01b03195b98505050505050505050612143565b84607089901b8761342857600061342e565b6001607f1b5b6001600160801b0316171760801b98505050505050505050612143565b600061214361347a837f3fff71547652b82fe1777d0ffda0d23a00000000000000000000000000000000612d1a565b6134dd565b600080821161348d57600080fd5b600060ff5b808210156134d65781810160011c84811c806134b3576001820392506134cf565b60018111156134c7578160010193506134cf565b5091506134d6565b5050613492565b5092915050565b60006001607f1b608083901c6001600160801b0381169182119160701c617fff908116916001600160701b0316908214801561351857508015155b156135315750600160ef1b61ffff0292506115b4915050565b61400d82111561355b578261354e57600160f01b617fff02613551565b60005b93505050506115b4565b613f7f8210156135795750600160f01b613fff0292506115b4915050565b81613587576001915061358e565b600160701b175b613fef8211156135a457613fee1982011b6135b6565b613fef8210156135b657613fef8290031c5b8280156135d4575071406e0000000000000000000000000000000081115b156135e65750600092506115b4915050565b821580156136055750713fffffffffffffffffffffffffffffffffff81115b1561361e5750600160f01b617fff0292506115b4915050565b6001600160801b0381169060801c83801561363857508115155b15613644579019906001015b6001607f1b828116156136685770016a09e667f3bcc908b2fb1366ea957d3e0260801c5b6001607e1b83161561368b577001306fe0a31b7152de8d5a46305c85edec0260801c5b6001607d1b8316156136ae577001172b83c7d517adcdf7c8c50eb14a791f0260801c5b6001607c1b8316156136d15770010b5586cf9890f6298b92b71842a983630260801c5b6001607b1b8316156136f4577001059b0d31585743ae7c548eb68ca417fd0260801c5b6001607a1b83161561371757700102c9a3e778060ee6f7caca4f7a29bde80260801c5b600160791b83161561373a5770010163da9fb33356d84a66ae336dcdfa3f0260801c5b600160781b83161561375d57700100b1afa5abcbed6129ab13ec11dc95430260801c5b600160771b8316156137805770010058c86da1c09ea1ff19d294cf2f679b0260801c5b600160761b8316156137a3577001002c605e2e8cec506d21bfc89a23a00f0260801c5b600160751b8316156137c657700100162f3904051fa128bca9c55c31e5df0260801c5b600160741b8316156137e9577001000b175effdc76ba38e31671ca9397250260801c5b600160731b83161561380c57700100058ba01fb9f96d6cacd4b180917c3d0260801c5b600160721b83161561382f5770010002c5cc37da9491d0985c348c68e7b30260801c5b600160711b831615613852577001000162e525ee054754457d59952920260260801c5b600160701b8316156138755770010000b17255775c040618bf4a4ade83fc0260801c5b6001606f1b831615613898577001000058b91b5bc9ae2eed81e9b7d4cfab0260801c5b6001606e1b8316156138bb57700100002c5c89d5ec6ca4d7c8acc017b7c90260801c5b6001606d1b8316156138de5770010000162e43f4f831060e02d839a9d16d0260801c5b6001606c1b83161561390157700100000b1721bcfc99d9f890ea069117630260801c5b6001606b1b8316156139245770010000058b90cf1e6d97f9ca14dbcc16280260801c5b6001606a1b831615613947577001000002c5c863b73f016468f6bac5ca2b0260801c5b600160691b83161561396a57700100000162e430e5a18f6119e3c02282a50260801c5b600160681b83161561398d577001000000b1721835514b86e6d96efd1bfe0260801c5b600160671b8316156139b057700100000058b90c0b48c6be5df846c5b2ef0260801c5b600160661b8316156139d35770010000002c5c8601cc6b9e94213c72737a0260801c5b600160651b8316156139f6577001000000162e42fff037df38aa2b219f060260801c5b600160641b831615613a195770010000000b17217fba9c739aa5819f44f90260801c5b600160631b831615613a3c577001000000058b90bfcdee5acd3c1cedc8230260801c5b600160621b831615613a5f57700100000002c5c85fe31f35a6a30da1be500260801c5b600160611b831615613a825770010000000162e42ff0999ce3541b9fffcf0260801c5b600160601b831615613aa557700100000000b17217f80f4ef5aadda455540260801c5b6001605f1b831615613ac85770010000000058b90bfbf8479bd5a81b51ad0260801c5b6001605e1b831615613aeb577001000000002c5c85fdf84bd62ae30a74cc0260801c5b6001605d1b831615613b0e57700100000000162e42fefb2fed257559bdaa0260801c5b6001605c1b831615613b31577001000000000b17217f7d5a7716bba4a9ae0260801c5b6001605b1b831615613b5457700100000000058b90bfbe9ddbac5e109cce0260801c5b6001605a1b831615613b775770010000000002c5c85fdf4b15de6f17eb0d0260801c5b600160591b831615613b9a577001000000000162e42fefa494f1478fde050260801c5b600160581b831615613bbd5770010000000000b17217f7d20cf927c8e94c0260801c5b600160571b831615613be0577001000000000058b90bfbe8f71cb4e4b33d0260801c5b600160561b831615613c0357700100000000002c5c85fdf477b662b269450260801c5b600160551b831615613c265770010000000000162e42fefa3ae53369388c0260801c5b600160541b831615613c4957700100000000000b17217f7d1d351a389d400260801c5b600160531b831615613c6c5770010000000000058b90bfbe8e8b2d3d4ede0260801c5b600160521b831615613c8f577001000000000002c5c85fdf4741bea6e77e0260801c5b600160511b831615613cb257700100000000000162e42fefa39fe95583c20260801c5b600160501b831615613cd5577001000000000000b17217f7d1cfb72b45e10260801c5b6980000000000000000000831615613cfe57700100000000000058b90bfbe8e7cc35c3f00260801c5b6940000000000000000000831615613d275770010000000000002c5c85fdf473e242ea380260801c5b6920000000000000000000831615613d50577001000000000000162e42fefa39f02b772c0260801c5b6910000000000000000000831615613d795770010000000000000b17217f7d1cf7d83c1a0260801c5b6908000000000000000000831615613da2577001000000000000058b90bfbe8e7bdcbe2e0260801c5b6904000000000000000000831615613dcb57700100000000000002c5c85fdf473dea871f0260801c5b6902000000000000000000831615613df45770010000000000000162e42fefa39ef44d910260801c5b6901000000000000000000831615613e1d57700100000000000000b17217f7d1cf79e9490260801c5b68800000000000000000831615613e455770010000000000000058b90bfbe8e7bce5440260801c5b68400000000000000000831615613e6d577001000000000000002c5c85fdf473de6eca0260801c5b68200000000000000000831615613e9557700100000000000000162e42fefa39ef366f0260801c5b68100000000000000000831615613ebd577001000000000000000b17217f7d1cf79afa0260801c5b68080000000000000000831615613ee557700100000000000000058b90bfbe8e7bcd6d0260801c5b68040000000000000000831615613f0d5770010000000000000002c5c85fdf473de6b20260801c5b68020000000000000000831615613f35577001000000000000000162e42fefa39ef3580260801c5b68010000000000000000831615613f5d5770010000000000000000b17217f7d1cf79ab0260801c5b678000000000000000831615613f84577001000000000000000058b90bfbe8e7bcd50260801c5b674000000000000000831615613fab57700100000000000000002c5c85fdf473de6a0260801c5b672000000000000000831615613fd25770010000000000000000162e42fefa39ef340260801c5b671000000000000000831615613ff957700100000000000000000b17217f7d1cf7990260801c5b6708000000000000008316156140205770010000000000000000058b90bfbe8e7bcc0260801c5b670400000000000000831615614047577001000000000000000002c5c85fdf473de50260801c5b67020000000000000083161561406e57700100000000000000000162e42fefa39ef20260801c5b670100000000000000831615614095577001000000000000000000b17217f7d1cf780260801c5b66800000000000008316156140bb57700100000000000000000058b90bfbe8e7bb0260801c5b66400000000000008316156140e15770010000000000000000002c5c85fdf473dd0260801c5b6620000000000000831615614107577001000000000000000000162e42fefa39ee0260801c5b661000000000000083161561412d5770010000000000000000000b17217f7d1cf60260801c5b6608000000000000831615614153577001000000000000000000058b90bfbe8e7a0260801c5b660400000000000083161561417957700100000000000000000002c5c85fdf473c0260801c5b660200000000000083161561419f5770010000000000000000000162e42fefa39d0260801c5b66010000000000008316156141c557700100000000000000000000b17217f7d1ce0260801c5b658000000000008316156141ea5770010000000000000000000058b90bfbe8e60260801c5b6540000000000083161561420f577001000000000000000000002c5c85fdf4720260801c5b6520000000000083161561423457700100000000000000000000162e42fefa380260801c5b65100000000000831615614259577001000000000000000000000b17217f7d1b0260801c5b6508000000000083161561427e57700100000000000000000000058b90bfbe8d0260801c5b650400000000008316156142a35770010000000000000000000002c5c85fdf460260801c5b650200000000008316156142c8577001000000000000000000000162e42fefa20260801c5b650100000000008316156142ed5770010000000000000000000000b17217f7d00260801c5b648000000000831615614311577001000000000000000000000058b90bfbe70260801c5b64400000000083161561433557700100000000000000000000002c5c85fdf30260801c5b6420000000008316156143595770010000000000000000000000162e42fef90260801c5b64100000000083161561437d57700100000000000000000000000b17217f7c0260801c5b6408000000008316156143a15770010000000000000000000000058b90bfbd0260801c5b6404000000008316156143c5577001000000000000000000000002c5c85fde0260801c5b6402000000008316156143e957700100000000000000000000000162e42fee0260801c5b64010000000083161561440d577001000000000000000000000000b17217f60260801c5b638000000083161561443057700100000000000000000000000058b90bfa0260801c5b63400000008316156144535770010000000000000000000000002c5c85fc0260801c5b6320000000831615614476577001000000000000000000000000162e42fd0260801c5b63100000008316156144995770010000000000000000000000000b17217e0260801c5b63080000008316156144bc577001000000000000000000000000058b90be0260801c5b63040000008316156144df57700100000000000000000000000002c5c85e0260801c5b63020000008316156145025770010000000000000000000000000162e42e0260801c5b630100000083161561452557700100000000000000000000000000b172160260801c5b628000008316156145475770010000000000000000000000000058b90a0260801c5b62400000831615614569577001000000000000000000000000002c5c840260801c5b6220000083161561458b57700100000000000000000000000000162e410260801c5b621000008316156145ad577001000000000000000000000000000b17200260801c5b620800008316156145cf57700100000000000000000000000000058b8f0260801c5b620400008316156145f15770010000000000000000000000000002c5c70260801c5b62020000831615614613577001000000000000000000000000000162e30260801c5b620100008316156146355770010000000000000000000000000000b1710260801c5b618000831615614656577001000000000000000000000000000058b80260801c5b61400083161561467757700100000000000000000000000000002c5b0260801c5b6120008316156146985770010000000000000000000000000000162d0260801c5b6110008316156146b957700100000000000000000000000000000b160260801c5b6108008316156146da5770010000000000000000000000000000058a0260801c5b6104008316156146fb577001000000000000000000000000000002c40260801c5b61020083161561471c577001000000000000000000000000000001610260801c5b61010083161561473d577001000000000000000000000000000000b00260801c5b608083161561475d577001000000000000000000000000000000570260801c5b604083161561477d5770010000000000000000000000000000002b0260801c5b602083161561479d577001000000000000000000000000000000150260801c5b60108316156147bd5770010000000000000000000000000000000a0260801c5b60088316156147dd577001000000000000000000000000000000040260801c5b60048316156147fd577001000000000000000000000000000000010260801c5b8461481e57600f81901c6001600160701b03169050613fff8201915061484d565b613ffe821161484357600f81901c6001600160701b0316905081613fff03915061484d565b600091613fee19011c5b60709190911b1760801b93506115b492505050565b604051806060016040528060006001600160a01b0316815260200160608152602001600081525090565b828054600181600116156101000203166002900490600052602060002090601f016020900481019282601f106148cd57805160ff19168380011785556148fa565b828001600101855582156148fa579182015b828111156148fa5782518255916020019190600101906148df565b50614906929150614921565b5090565b604080518082019091526000808252602082015290565b610a9591905b808211156149065760008155600101614927565b60008161494a575060006115b4565b600080831361495c578260000361495e565b825b9050600061496b8261347f565b90506070811015614984578060700382901b9150614997565b6070811115614997576070810382901c91505b6001600160701b03909116613fff820160701b179060008412156149bf576001607f1b821791505b5060801b90506115b456feeaf000c89e40e1e64c629d19ff91b9a7364fccc3c5b0bd1e54da865b14749218b2abb351e970bdbc272a8e8786bf71210c12d9f1653891b205aefca1410ed0ffa165627a7a72305820132e53d0fdc23df7caa137aad8eaf9aba5e97a3c555895d1cf778f89ed3e9ad50029",
  "bytecodeSha1": "e426b817e9eae081f0753f624b75d9e7b6025fae",
  "compiler": {
    "minify_source": false,
    "optimize": true,
    "runs": 200,
    "version": "Version: 0.5.7+commit.6da8b019.Linux.g++"
  },
  "contractName": "PrototypeContract",
  "opcodes": "PUSH1 0x80 PUSH1 0x40 MSTORE PUSH1 0x4 CALLDATASIZE LT PUSH2 0x230 JUMPI PUSH1 0x0 CALLDATALOAD PUSH1 0xE0 SHR DUP1 PUSH4 0x770D1376 GT PUSH2 0x12E JUMPI DUP1 PUSH4 0xA6690176 GT PUSH2 0xAB JUMPI DUP1 PUSH4 0xD0E30DB0 GT PUSH2 0x6F JUMPI DUP1 PUSH4 0xD0E30DB0 EQ PUSH2 0x230 JUMPI DUP1 PUSH4 0xD8B005F6 EQ PUSH2 0x844 JUMPI DUP1 PUSH4 0xDC59B6DE EQ PUSH2 0x859 JUMPI DUP1 PUSH4 0xE41F58C7 EQ PUSH2 0x86E JUMPI DUP1 PUSH4 0xF0C13710 EQ PUSH2 0x883 JUMPI PUSH2 0x230 JUMP JUMPDEST DUP1 PUSH4 0xA6690176 EQ PUSH2 0x70D JUMPI DUP1 PUSH4 0xB75F6471 EQ PUSH2 0x75A JUMPI DUP1 PUSH4 0xB81C8E8F EQ PUSH2 0x812 JUMPI DUP1 PUSH4 0xB8AD6C30 EQ PUSH2 0x827 JUMPI DUP1 PUSH4 0xC0EC3C3E EQ PUSH2 0x83C JUMPI PUSH2 0x230 JUMP JUMPDEST DUP1 PUSH4 0x98E537F4 GT PUSH2 0xF2 JUMPI DUP1 PUSH4 0x98E537F4 EQ PUSH2 0x628 JUMPI DUP1 PUSH4 0x9AA8B291 EQ PUSH2 0x63D JUMPI DUP1 PUSH4 0x9CF6F0BC EQ PUSH2 0x483 JUMPI DUP1 PUSH4 0x9F7096B6 EQ PUSH2 0x6E3 JUMPI DUP1 PUSH4 0xA035B1FE EQ PUSH2 0x6F8 JUMPI PUSH2 0x230 JUMP JUMPDEST DUP1 PUSH4 0x770D1376 EQ PUSH2 0x566 JUMPI DUP1 PUSH4 0x7B1AA45F EQ PUSH2 0x5AD JUMPI DUP1 PUSH4 0x84B09E86 EQ PUSH2 0x5C2 JUMPI DUP1 PUSH4 0x9286D396 EQ PUSH2 0x5D7 JUMPI DUP1 PUSH4 0x97A993AA EQ PUSH2 0x5DF JUMPI PUSH2 0x230 JUMP JUMPDEST DUP1 PUSH4 0x3D18B912 GT PUSH2 0x1BC JUMPI DUP1 PUSH4 0x58E237F8 GT PUSH2 0x180 JUMPI DUP1 PUSH4 0x58E237F8 EQ PUSH2 0x4E0 JUMPI DUP1 PUSH4 0x635A3753 EQ PUSH2 0x4FD JUMPI DUP1 PUSH4 0x6F7827D4 EQ PUSH2 0x512 JUMPI DUP1 PUSH4 0x6F919464 EQ PUSH2 0x527 JUMPI DUP1 PUSH4 0x6F9FB98A EQ PUSH2 0x551 JUMPI PUSH2 0x230 JUMP JUMPDEST DUP1 PUSH4 0x3D18B912 EQ PUSH2 0x448 JUMPI DUP1 PUSH4 0x40353823 EQ PUSH2 0x450 JUMPI DUP1 PUSH4 0x48D59AFA EQ PUSH2 0x483 JUMPI DUP1 PUSH4 0x532A5F20 EQ PUSH2 0x498 JUMPI DUP1 PUSH4 0x5673341F EQ PUSH2 0x4AD JUMPI PUSH2 0x230 JUMP JUMPDEST DUP1 PUSH4 0x1713CCA0 GT PUSH2 0x203 JUMPI DUP1 PUSH4 0x1713CCA0 EQ PUSH2 0x2A8 JUMPI DUP1 PUSH4 0x1A710C23 EQ PUSH2 0x2BD JUMPI DUP1 PUSH4 0x1DF8D831 EQ PUSH2 0x363 JUMPI DUP1 PUSH4 0x2C83F478 EQ PUSH2 0x402 JUMPI DUP1 PUSH4 0x32A2C5D0 EQ PUSH2 0x417 JUMPI PUSH2 0x230 JUMP JUMPDEST DUP1 PUSH4 0x849CC99 EQ PUSH2 0x23A JUMPI DUP1 PUSH4 0xB8EFBD4 EQ PUSH2 0x261 JUMPI DUP1 PUSH4 0xFFBA738 EQ PUSH2 0x27E JUMPI DUP1 PUSH4 0x12A8FD88 EQ PUSH2 0x293 JUMPI JUMPDEST PUSH2 0x238 PUSH2 0x88B JUMP JUMPDEST STOP JUMPDEST CALLVALUE DUP1 ISZERO PUSH2 0x246 JUMPI PUSH1 0x0 DUP1 REVERT JUMPDEST POP PUSH2 0x24F PUSH2 0xA91 JUMP JUMPDEST PUSH1 0x40 DUP1 MLOAD SWAP2 DUP3 MSTORE MLOAD SWAP1 DUP2 SWAP1 SUB PUSH1 0x20 ADD SWAP1 RETURN JUMPDEST PUSH2 0x238 PUSH1 0x4 DUP1 CALLDATASIZE SUB PUSH1 0x20 DUP2 LT ISZERO PUSH2 0x277 JUMPI PUSH1 0x0 DUP1 REVERT JUMPDEST POP CALLDATALOAD PUSH2 0xA98 JUMP JUMPDEST CALLVALUE DUP1 ISZERO PUSH2 0x28A JUMPI PUSH1 0x0 DUP1 REVERT JUMPDEST POP PUSH2 0x24F PUSH2 0x1051 JUMP JUMPDEST CALLVALUE DUP1 ISZERO PUSH2 0x29F JUMPI PUSH1 0x0 DUP1 REVERT JUMPDEST POP PUSH2 0x24F PUSH2 0x10AB JUMP JUMPDEST CALLVALUE DUP1 ISZERO PUSH2 0x2B4 JUMPI PUSH1 0x0 DUP1 REVERT JUMPDEST POP PUSH2 0x24F PUSH2 0x10B1 JUMP JUMPDEST PUSH2 0x238 PUSH1 0x4 DUP1 CALLDATASIZE SUB PUSH1 0x20 DUP2 LT ISZERO PUSH2 0x2D3 JUMPI PUSH1 0x0 DUP1 REVERT JUMPDEST DUP2 ADD SWAP1 PUSH1 0x20 DUP2 ADD DUP2 CALLDATALOAD PUSH5 0x100000000 DUP2 GT ISZERO PUSH2 0x2EE JUMPI PUSH1 0x0 DUP1 REVERT JUMPDEST DUP3 ADD DUP4 PUSH1 0x20 DUP3 ADD GT ISZERO PUSH2 0x300 JUMPI PUSH1 0x0 DUP1 REVERT JUMPDEST DUP1 CALLDATALOAD SWAP1 PUSH1 0x20 ADD SWAP2 DUP5 PUSH1 0x1 DUP4 MUL DUP5 ADD GT PUSH5 0x100000000 DUP4 GT OR ISZERO PUSH2 0x322 JUMPI PUSH1 0x0 DUP1 REVERT JUMPDEST SWAP2 SWAP1 DUP1 DUP1 PUSH1 0x1F ADD PUSH1 0x20 DUP1 SWAP2 DIV MUL PUSH1 0x20 ADD PUSH1 0x40 MLOAD SWAP1 DUP2 ADD PUSH1 0x40 MSTORE DUP1 SWAP4 SWAP3 SWAP2 SWAP1 DUP2 DUP2 MSTORE PUSH1 0x20 ADD DUP4 DUP4 DUP1 DUP3 DUP5 CALLDATACOPY PUSH1 0x0 SWAP3 ADD SWAP2 SWAP1 SWAP2 MSTORE POP SWAP3 SWAP6 POP PUSH2 0x10B7 SWAP5 POP POP POP POP POP JUMP JUMPDEST CALLVALUE DUP1 ISZERO PUSH2 0x36F JUMPI PUSH1 0x0 DUP1 REVERT JUMPDEST POP PUSH2 0x38D PUSH1 0x4 DUP1 CALLDATASIZE SUB PUSH1 0x20 DUP2 LT ISZERO PUSH2 0x386 JUMPI PUSH1 0x0 DUP1 REVERT JUMPDEST POP CALLDATALOAD PUSH2 0x14F8 JUMP JUMPDEST PUSH1 0x40 DUP1 MLOAD PUSH1 0x20 DUP1 DUP3 MSTORE DUP4 MLOAD DUP2 DUP4 ADD MSTORE DUP4 MLOAD SWAP2 SWAP3 DUP4 SWAP3 SWAP1 DUP4 ADD SWAP2 DUP6 ADD SWAP1 DUP1 DUP4 DUP4 PUSH1 0x0 JUMPDEST DUP4 DUP2 LT ISZERO PUSH2 0x3C7 JUMPI DUP2 DUP2 ADD MLOAD DUP4 DUP3 ADD MSTORE PUSH1 0x20 ADD PUSH2 0x3AF JUMP JUMPDEST POP POP POP POP SWAP1 POP SWAP1 DUP2 ADD SWAP1 PUSH1 0x1F AND DUP1 ISZERO PUSH2 0x3F4 JUMPI DUP1 DUP3 SUB DUP1 MLOAD PUSH1 0x1 DUP4 PUSH1 0x20 SUB PUSH2 0x100 EXP SUB NOT AND DUP2 MSTORE PUSH1 0x20 ADD SWAP2 POP JUMPDEST POP SWAP3 POP POP POP PUSH1 0x40 MLOAD DUP1 SWAP2 SUB SWAP1 RETURN JUMPDEST CALLVALUE DUP1 ISZERO PUSH2 0x40E JUMPI PUSH1 0x0 DUP1 REVERT JUMPDEST POP PUSH2 0x24F PUSH2 0x15B9 JUMP JUMPDEST CALLVALUE DUP1 ISZERO PUSH2 0x423 JUMPI PUSH1 0x0 DUP1 REVERT JUMPDEST POP PUSH2 0x42C PUSH2 0x15EC JUMP JUMPDEST PUSH1 0x40 DUP1 MLOAD PUSH1 0x1 PUSH1 0x1 PUSH1 0xA0 SHL SUB SWAP1 SWAP3 AND DUP3 MSTORE MLOAD SWAP1 DUP2 SWAP1 SUB PUSH1 0x20 ADD SWAP1 RETURN JUMPDEST PUSH2 0x238 PUSH2 0x15F0 JUMP JUMPDEST CALLVALUE DUP1 ISZERO PUSH2 0x45C JUMPI PUSH1 0x0 DUP1 REVERT JUMPDEST POP PUSH2 0x24F PUSH1 0x4 DUP1 CALLDATASIZE SUB PUSH1 0x20 DUP2 LT ISZERO PUSH2 0x473 JUMPI PUSH1 0x0 DUP1 REVERT JUMPDEST POP CALLDATALOAD PUSH1 0x1 PUSH1 0x1 PUSH1 0xA0 SHL SUB AND PUSH2 0x1B12 JUMP JUMPDEST CALLVALUE DUP1 ISZERO PUSH2 0x48F JUMPI PUSH1 0x0 DUP1 REVERT JUMPDEST POP PUSH2 0x24F PUSH2 0x1B24 JUMP JUMPDEST CALLVALUE DUP1 ISZERO PUSH2 0x4A4 JUMPI PUSH1 0x0 DUP1 REVERT JUMPDEST POP PUSH2 0x24F PUSH2 0x1B47 JUMP JUMPDEST CALLVALUE DUP1 ISZERO PUSH2 0x4B9 JUMPI PUSH1 0x0 DUP1 REVERT JUMPDEST POP PUSH2 0x24F PUSH1 0x4 DUP1 CALLDATASIZE SUB PUSH1 0x20 DUP2 LT ISZERO PUSH2 0x4D0 JUMPI PUSH1 0x0 DUP1 REVERT JUMPDEST POP CALLDATALOAD PUSH1 0x1 PUSH1 0x1 PUSH1 0xA0 SHL SUB AND PUSH2 0x1B5A JUMP JUMPDEST PUSH2 0x238 PUSH1 0x4 DUP1 CALLDATASIZE SUB PUSH1 0x20 DUP2 LT ISZERO PUSH2 0x4F6 JUMPI PUSH1 0x0 DUP1 REVERT JUMPDEST POP CALLDATALOAD PUSH2 0x1B6C JUMP JUMPDEST CALLVALUE DUP1 ISZERO PUSH2 0x509 JUMPI PUSH1 0x0 DUP1 REVERT JUMPDEST POP PUSH2 0x24F PUSH2 0x2098 JUMP JUMPDEST CALLVALUE DUP1 ISZERO PUSH2 0x51E JUMPI PUSH1 0x0 DUP1 REVERT JUMPDEST POP PUSH2 0x24F PUSH2 0x20CE JUMP JUMPDEST CALLVALUE DUP1 ISZERO PUSH2 0x533 JUMPI PUSH1 0x0 DUP1 REVERT JUMPDEST POP PUSH2 0x24F PUSH1 0x4 DUP1 CALLDATASIZE SUB PUSH1 0x20 DUP2 LT ISZERO PUSH2 0x54A JUMPI PUSH1 0x0 DUP1 REVERT JUMPDEST POP CALLDATALOAD PUSH2 0x2110 JUMP JUMPDEST CALLVALUE DUP1 ISZERO PUSH2 0x55D JUMPI PUSH1 0x0 DUP1 REVERT JUMPDEST POP PUSH2 0x24F PUSH2 0x2149 JUMP JUMPDEST CALLVALUE DUP1 ISZERO PUSH2 0x572 JUMPI PUSH1 0x0 DUP1 REVERT JUMPDEST POP PUSH2 0x590 PUSH1 0x4 DUP1 CALLDATASIZE SUB PUSH1 0x20 DUP2 LT ISZERO PUSH2 0x589 JUMPI PUSH1 0x0 DUP1 REVERT JUMPDEST POP CALLDATALOAD PUSH2 0x214E JUMP JUMPDEST PUSH1 0x40 DUP1 MLOAD PUSH1 0x1 PUSH1 0x1 PUSH1 0x80 SHL SUB NOT SWAP1 SWAP3 AND DUP3 MSTORE MLOAD SWAP1 DUP2 SWAP1 SUB PUSH1 0x20 ADD SWAP1 RETURN JUMPDEST CALLVALUE DUP1 ISZERO PUSH2 0x5B9 JUMPI PUSH1 0x0 DUP1 REVERT JUMPDEST POP PUSH2 0x24F PUSH2 0x21BE JUMP JUMPDEST CALLVALUE DUP1 ISZERO PUSH2 0x5CE JUMPI PUSH1 0x0 DUP1 REVERT JUMPDEST POP PUSH2 0x42C PUSH2 0x21C4 JUMP JUMPDEST PUSH2 0x238 PUSH2 0x21D3 JUMP JUMPDEST CALLVALUE DUP1 ISZERO PUSH2 0x5EB JUMPI PUSH1 0x0 DUP1 REVERT JUMPDEST POP PUSH2 0x612 PUSH1 0x4 DUP1 CALLDATASIZE SUB PUSH1 0x20 DUP2 LT ISZERO PUSH2 0x602 JUMPI PUSH1 0x0 DUP1 REVERT JUMPDEST POP CALLDATALOAD PUSH1 0x1 PUSH1 0x1 PUSH1 0xA0 SHL SUB AND PUSH2 0x238E JUMP JUMPDEST PUSH1 0x40 DUP1 MLOAD PUSH1 0xFF SWAP1 SWAP3 AND DUP3 MSTORE MLOAD SWAP1 DUP2 SWAP1 SUB PUSH1 0x20 ADD SWAP1 RETURN JUMPDEST CALLVALUE DUP1 ISZERO PUSH2 0x634 JUMPI PUSH1 0x0 DUP1 REVERT JUMPDEST POP PUSH2 0x24F PUSH2 0x23A3 JUMP JUMPDEST PUSH2 0x238 PUSH1 0x4 DUP1 CALLDATASIZE SUB PUSH1 0x20 DUP2 LT ISZERO PUSH2 0x653 JUMPI PUSH1 0x0 DUP1 REVERT JUMPDEST DUP2 ADD SWAP1 PUSH1 0x20 DUP2 ADD DUP2 CALLDATALOAD PUSH5 0x100000000 DUP2 GT ISZERO PUSH2 0x66E JUMPI PUSH1 0x0 DUP1 REVERT JUMPDEST DUP3 ADD DUP4 PUSH1 0x20 DUP3 ADD GT ISZERO PUSH2 0x680 JUMPI PUSH1 0x0 DUP1 REVERT JUMPDEST DUP1 CALLDATALOAD SWAP1 PUSH1 0x20 ADD SWAP2 DUP5 PUSH1 0x1 DUP4 MUL DUP5 ADD GT PUSH5 0x100000000 DUP4 GT OR ISZERO PUSH2 0x6A2 JUMPI PUSH1 0x0 DUP1 REVERT JUMPDEST SWAP2 SWAP1 DUP1 DUP1 PUSH1 0x1F ADD PUSH1 0x20 DUP1 SWAP2 DIV MUL PUSH1 0x20 ADD PUSH1 0x40 MLOAD SWAP1 DUP2 ADD PUSH1 0x40 MSTORE DUP1 SWAP4 SWAP3 SWAP2 SWAP1 DUP2 DUP2 MSTORE PUSH1 0x20 ADD DUP4 DUP4 DUP1 DUP3 DUP5 CALLDATACOPY PUSH1 0x0 SWAP3 ADD SWAP2 SWAP1 SWAP2 MSTORE POP SWAP3 SWAP6 POP PUSH2 0x244C SWAP5 POP POP POP POP POP JUMP JUMPDEST CALLVALUE DUP1 ISZERO PUSH2 0x6EF JUMPI PUSH1 0x0 DUP1 REVERT JUMPDEST POP PUSH2 0x42C PUSH2 0x26C8 JUMP JUMPDEST CALLVALUE DUP1 ISZERO PUSH2 0x704 JUMPI PUSH1 0x0 DUP1 REVERT JUMPDEST POP PUSH2 0x24F PUSH2 0x26D7 JUMP JUMPDEST CALLVALUE DUP1 ISZERO PUSH2 0x719 JUMPI PUSH1 0x0 DUP1 REVERT JUMPDEST POP PUSH2 0x737 PUSH1 0x4 DUP1 CALLDATASIZE SUB PUSH1 0x20 DUP2 LT ISZERO PUSH2 0x730 JUMPI PUSH1 0x0 DUP1 REVERT JUMPDEST POP CALLDATALOAD PUSH2 0x26DD JUMP JUMPDEST PUSH1 0x40 DUP1 MLOAD PUSH1 0x1 PUSH1 0x1 PUSH1 0xA0 SHL SUB SWAP1 SWAP4 AND DUP4 MSTORE PUSH1 0x20 DUP4 ADD SWAP2 SWAP1 SWAP2 MSTORE DUP1 MLOAD SWAP2 DUP3 SWAP1 SUB ADD SWAP1 RETURN JUMPDEST CALLVALUE DUP1 ISZERO PUSH2 0x766 JUMPI PUSH1 0x0 DUP1 REVERT JUMPDEST POP PUSH2 0x784 PUSH1 0x4 DUP1 CALLDATASIZE SUB PUSH1 0x20 DUP2 LT ISZERO PUSH2 0x77D JUMPI PUSH1 0x0 DUP1 REVERT JUMPDEST POP CALLDATALOAD PUSH2 0x2712 JUMP JUMPDEST PUSH1 0x40 DUP1 MLOAD PUSH1 0x1 PUSH1 0x1 PUSH1 0xA0 SHL SUB DUP6 AND DUP2 MSTORE SWAP1 DUP2 ADD DUP3 SWAP1 MSTORE PUSH1 0x60 PUSH1 0x20 DUP1 DUP4 ADD DUP3 DUP2 MSTORE DUP6 MLOAD SWAP3 DUP5 ADD SWAP3 SWAP1 SWAP3 MSTORE DUP5 MLOAD PUSH1 0x80 DUP5 ADD SWAP2 DUP7 ADD SWAP1 DUP1 DUP4 DUP4 PUSH1 0x0 JUMPDEST DUP4 DUP2 LT ISZERO PUSH2 0x7D5 JUMPI DUP2 DUP2 ADD MLOAD DUP4 DUP3 ADD MSTORE PUSH1 0x20 ADD PUSH2 0x7BD JUMP JUMPDEST POP POP POP POP SWAP1 POP SWAP1 DUP2 ADD SWAP1 PUSH1 0x1F AND DUP1 ISZERO PUSH2 0x802 JUMPI DUP1 DUP3 SUB DUP1 MLOAD PUSH1 0x1 DUP4 PUSH1 0x20 SUB PUSH2 0x100 EXP SUB NOT AND DUP2 MSTORE PUSH1 0x20 ADD SWAP2 POP JUMPDEST POP SWAP5 POP POP POP POP POP PUSH1 0x40 MLOAD DUP1 SWAP2 SUB SWAP1 RETURN JUMPDEST CALLVALUE DUP1 ISZERO PUSH2 0x81E JUMPI PUSH1 0x0 DUP1 REVERT JUMPDEST POP PUSH2 0x24F PUSH2 0x27DC JUMP JUMPDEST CALLVALUE DUP1 ISZERO PUSH2 0x833 JUMPI PUSH1 0x0 DUP1 REVERT JUMPDEST POP PUSH2 0x24F PUSH2 0x27E2 JUMP JUMPDEST PUSH2 0x238 PUSH2 0x2804 JUMP JUMPDEST CALLVALUE DUP1 ISZERO PUSH2 0x850 JUMPI PUSH1 0x0 DUP1 REVERT JUMPDEST POP PUSH2 0x24F PUSH2 0x28B0 JUMP JUMPDEST CALLVALUE DUP1 ISZERO PUSH2 0x865 JUMPI PUSH1 0x0 DUP1 REVERT JUMPDEST POP PUSH2 0x24F PUSH2 0x28B6 JUMP JUMPDEST CALLVALUE DUP1 ISZERO PUSH2 0x87A JUMPI PUSH1 0x0 DUP1 REVERT JUMPDEST POP PUSH2 0x24F PUSH2 0x28D2 JUMP JUMPDEST PUSH2 0x238 PUSH2 0x293E JUMP JUMPDEST PUSH3 0x15180 PUSH1 0x9 SLOAD SUB TIMESTAMP LT PUSH2 0x89E JUMPI PUSH1 0x0 DUP1 REVERT JUMPDEST PUSH1 0xA SLOAD PUSH1 0x1 PUSH1 0x1 PUSH1 0xA0 SHL SUB AND CALLER EQ DUP1 ISZERO PUSH2 0x8BA JUMPI POP PUSH1 0x0 PUSH1 0x14 SLOAD GT JUMPDEST ISZERO PUSH2 0x9D7 JUMPI PUSH1 0x0 PUSH2 0x8C9 PUSH2 0x1051 JUMP JUMPDEST SWAP1 POP DUP1 CALLVALUE EQ PUSH2 0x8D7 JUMPI PUSH1 0x0 DUP1 REVERT JUMPDEST PUSH1 0x0 PUSH2 0x95A PUSH2 0x94B PUSH2 0x92C PUSH1 0x18 PUSH1 0x0 SWAP1 SLOAD SWAP1 PUSH2 0x100 EXP SWAP1 DIV PUSH1 0x80 SHL PUSH2 0x916 PUSH2 0x900 PUSH1 0xC SLOAD PUSH2 0x29D5 JUMP JUMPDEST PUSH1 0x18 SLOAD PUSH1 0x80 SHL PUSH1 0x1 PUSH1 0x1 PUSH1 0x80 SHL SUB NOT AND SWAP1 PUSH2 0x2A3A JUMP JUMPDEST PUSH1 0x1 PUSH1 0x1 PUSH1 0x80 SHL SUB NOT AND SWAP1 PUSH4 0xFFFFFFFF PUSH2 0x2A53 AND JUMP JUMPDEST PUSH2 0x935 CALLVALUE PUSH2 0x29D5 JUMP JUMPDEST PUSH1 0x1 PUSH1 0x1 PUSH1 0x80 SHL SUB NOT AND SWAP1 PUSH4 0xFFFFFFFF PUSH2 0x2D1A AND JUMP JUMPDEST PUSH1 0x1 PUSH1 0x1 PUSH1 0x80 SHL SUB NOT AND PUSH2 0x2F94 JUMP JUMPDEST PUSH1 0xF DUP1 SLOAD DUP3 ADD SWAP1 SSTORE PUSH1 0xD DUP1 SLOAD CALLVALUE DUP4 SWAP1 SUB SWAP1 DUP2 ADD SWAP1 SWAP2 SSTORE PUSH1 0x14 SLOAD PUSH1 0x1C SSTORE PUSH1 0x1B DUP1 SLOAD PUSH1 0x1 PUSH1 0x80 SHL PUSH1 0xFF MUL NOT AND PUSH1 0x1 PUSH1 0x80 SHL OR SWAP1 SSTORE PUSH1 0x40 DUP1 MLOAD CALLER DUP2 MSTORE PUSH1 0x20 DUP2 ADD DUP5 SWAP1 MSTORE DUP1 DUP3 ADD SWAP3 SWAP1 SWAP3 MSTORE MLOAD SWAP2 SWAP3 POP PUSH32 0x598109CBC545ADB09939D3F657ADC229F0F8945368E527851B10D73993AA5D0E SWAP2 SWAP1 DUP2 SWAP1 SUB PUSH1 0x60 ADD SWAP1 LOG1 POP POP PUSH2 0xA8F JUMP JUMPDEST PUSH1 0x1 DUP1 SLOAD DUP1 DUP3 ADD DUP3 SSTORE PUSH32 0xB10E2D527612073B26EECDFD717E6A320CF44B4AFAC2B0732D9FCBE2B7FA0CF6 ADD DUP1 SLOAD PUSH1 0x1 PUSH1 0x1 PUSH1 0xA0 SHL SUB NOT AND CALLER SWAP1 DUP2 OR SWAP1 SWAP2 SSTORE PUSH1 0x0 DUP2 DUP2 MSTORE PUSH1 0x20 DUP2 DUP2 MSTORE PUSH1 0x40 SWAP2 DUP3 SWAP1 KECCAK256 DUP1 SLOAD PUSH1 0xFF NOT AND DUP6 OR SWAP1 SSTORE PUSH1 0x14 DUP1 SLOAD SWAP1 SWAP5 ADD SWAP4 DUP5 SWAP1 SSTORE PUSH1 0x1B DUP1 SLOAD PUSH1 0x1 PUSH1 0x80 SHL PUSH1 0xFF MUL NOT AND SWAP1 SSTORE DUP2 MLOAD SWAP3 DUP4 MSTORE CALLVALUE SWAP1 DUP4 ADD DUP2 SWAP1 MSTORE DUP3 DUP3 ADD MSTORE PUSH1 0x60 DUP3 ADD SWAP3 SWAP1 SWAP3 MSTORE SWAP1 MLOAD PUSH32 0x5CEAE04607D1CF65F885D7E4F9A9ECC0984BD046FB128E481AA28B4F59B617C8 SWAP2 DUP2 SWAP1 SUB PUSH1 0x80 ADD SWAP1 LOG1 JUMPDEST JUMP JUMPDEST PUSH1 0x3 SLOAD JUMPDEST SWAP1 JUMP JUMPDEST PUSH1 0x7 SLOAD PUSH1 0x1D DUP1 SLOAD PUSH1 0x1 PUSH1 0x80 SHL PUSH1 0xFF MUL NOT AND PUSH1 0x1 PUSH1 0x80 SHL PUSH1 0x1 PUSH1 0x1 PUSH1 0xA0 SHL SUB SWAP1 SWAP4 AND CALLER EQ SWAP3 DUP4 MUL OR SWAP1 SSTORE PUSH2 0xACA JUMPI PUSH1 0x0 DUP1 REVERT JUMPDEST DUP1 PUSH1 0x1 EQ ISZERO PUSH2 0xD8A JUMPI PUSH1 0xA SLOAD PUSH1 0xB SLOAD PUSH1 0x14 SLOAD PUSH1 0xF SLOAD PUSH1 0x40 MLOAD PUSH1 0x1 PUSH1 0x1 PUSH1 0xA0 SHL SUB SWAP1 SWAP5 AND SWAP4 SWAP2 SWAP1 SWAP3 MUL SWAP2 SWAP1 SWAP2 ADD DUP1 ISZERO PUSH2 0x8FC MUL SWAP2 PUSH1 0x0 DUP2 DUP2 DUP2 DUP6 DUP9 DUP9 CALL SWAP4 POP POP POP POP ISZERO DUP1 ISZERO PUSH2 0xB1C JUMPI RETURNDATASIZE PUSH1 0x0 DUP1 RETURNDATACOPY RETURNDATASIZE PUSH1 0x0 REVERT JUMPDEST POP PUSH1 0xA SLOAD PUSH1 0xB SLOAD PUSH1 0x14 SLOAD PUSH1 0xF SLOAD PUSH1 0x40 DUP1 MLOAD PUSH1 0x1 PUSH1 0x1 PUSH1 0xA0 SHL SUB SWAP1 SWAP6 AND DUP6 MSTORE SWAP2 SWAP1 SWAP3 MUL SWAP1 SWAP2 ADD PUSH1 0x20 DUP4 ADD MSTORE DUP1 MLOAD PUSH32 0xF0015A56DD924D608CE6C5729E2083095B5AA522321CF1BAEFCE60637341E34C SWAP3 DUP2 SWAP1 SUB SWAP1 SWAP2 ADD SWAP1 LOG1 PUSH1 0x0 JUMPDEST PUSH1 0x2 SLOAD DUP2 LT ISZERO PUSH2 0xC94 JUMPI PUSH1 0x0 PUSH1 0x2 DUP3 DUP2 SLOAD DUP2 LT PUSH2 0xB8E JUMPI INVALID JUMPDEST SWAP1 PUSH1 0x0 MSTORE PUSH1 0x20 PUSH1 0x0 KECCAK256 SWAP1 PUSH1 0x2 MUL ADD PUSH1 0x1 ADD SLOAD PUSH2 0xBE5 PUSH2 0x94B PUSH2 0xBB1 PUSH1 0xD SLOAD PUSH2 0x29D5 JUMP JUMPDEST PUSH1 0x6 SLOAD PUSH1 0x2 DUP1 SLOAD PUSH2 0x935 SWAP3 PUSH1 0x80 SHL SWAP2 PUSH2 0x916 SWAP2 DUP11 SWAP1 DUP2 LT PUSH2 0xBCE JUMPI INVALID JUMPDEST SWAP1 PUSH1 0x0 MSTORE PUSH1 0x20 PUSH1 0x0 KECCAK256 SWAP1 PUSH1 0x2 MUL ADD PUSH1 0x1 ADD SLOAD PUSH2 0x29D5 JUMP JUMPDEST ADD SWAP1 POP PUSH1 0x2 DUP3 DUP2 SLOAD DUP2 LT PUSH2 0xBF5 JUMPI INVALID JUMPDEST PUSH1 0x0 SWAP2 DUP3 MSTORE PUSH1 0x20 DUP3 KECCAK256 PUSH1 0x2 SWAP1 SWAP2 MUL ADD SLOAD PUSH1 0x40 MLOAD PUSH1 0x1 PUSH1 0x1 PUSH1 0xA0 SHL SUB SWAP1 SWAP2 AND SWAP2 DUP4 ISZERO PUSH2 0x8FC MUL SWAP2 DUP5 SWAP2 DUP2 DUP2 DUP2 DUP6 DUP9 DUP9 CALL SWAP4 POP POP POP POP ISZERO DUP1 ISZERO PUSH2 0xC3A JUMPI RETURNDATASIZE PUSH1 0x0 DUP1 RETURNDATACOPY RETURNDATASIZE PUSH1 0x0 REVERT JUMPDEST POP PUSH1 0x0 DUP1 MLOAD PUSH1 0x20 PUSH2 0x49EB DUP4 CODECOPY DUP2 MLOAD SWAP2 MSTORE PUSH1 0x2 DUP4 DUP2 SLOAD DUP2 LT PUSH2 0xC57 JUMPI INVALID JUMPDEST PUSH1 0x0 SWAP2 DUP3 MSTORE PUSH1 0x20 SWAP2 DUP3 SWAP1 KECCAK256 PUSH1 0x2 SWAP1 SWAP2 MUL ADD SLOAD PUSH1 0x40 DUP1 MLOAD PUSH1 0x1 PUSH1 0x1 PUSH1 0xA0 SHL SUB SWAP1 SWAP3 AND DUP3 MSTORE SWAP2 DUP2 ADD DUP5 SWAP1 MSTORE DUP2 MLOAD SWAP1 DUP2 SWAP1 SUB SWAP1 SWAP2 ADD SWAP1 LOG1 POP PUSH1 0x1 ADD PUSH2 0xB75 JUMP JUMPDEST POP PUSH1 0x6 SLOAD CALLER SWAP1 PUSH2 0x8FC SWAP1 PUSH2 0xCBB SWAP1 PUSH1 0x1 PUSH1 0x80 SHL SWAP1 DIV PUSH1 0x80 SHL PUSH1 0x1 PUSH1 0x1 PUSH1 0x80 SHL SUB NOT AND PUSH2 0x2F94 JUMP JUMPDEST PUSH1 0x40 MLOAD DUP2 ISZERO SWAP1 SWAP3 MUL SWAP2 PUSH1 0x0 DUP2 DUP2 DUP2 DUP6 DUP9 DUP9 CALL SWAP4 POP POP POP POP ISZERO DUP1 ISZERO PUSH2 0xCE3 JUMPI RETURNDATASIZE PUSH1 0x0 DUP1 RETURNDATACOPY RETURNDATASIZE PUSH1 0x0 REVERT JUMPDEST POP PUSH1 0x6 SLOAD PUSH32 0x221D1CB74844FBE494CE391226C9DC4E80ADEE4D1A8E44508801576313D74BE4 SWAP1 CALLER SWAP1 PUSH2 0xD28 SWAP1 PUSH1 0x1 PUSH1 0x80 SHL SWAP1 DIV PUSH1 0x80 SHL PUSH1 0x1 PUSH1 0x1 PUSH1 0x80 SHL SUB NOT AND PUSH2 0x2F94 JUMP JUMPDEST PUSH1 0x40 DUP1 MLOAD PUSH1 0x1 PUSH1 0x1 PUSH1 0xA0 SHL SUB SWAP1 SWAP4 AND DUP4 MSTORE PUSH1 0x20 DUP4 ADD SWAP2 SWAP1 SWAP2 MSTORE DUP1 MLOAD SWAP2 DUP3 SWAP1 SUB ADD SWAP1 LOG1 PUSH1 0x40 DUP1 MLOAD CALLER DUP2 MSTORE PUSH1 0x1 PUSH1 0x20 DUP3 ADD MSTORE DUP2 MLOAD PUSH32 0xE862598A8A64919095D7F371BB576A1B8ED5814EAEFF9BD21F1990BF53095681 SWAP3 SWAP2 DUP2 SWAP1 SUB SWAP1 SWAP2 ADD SWAP1 LOG1 PUSH2 0x104E JUMP JUMPDEST DUP1 PUSH1 0x0 NOT EQ ISZERO PUSH2 0x104E JUMPI PUSH1 0x0 JUMPDEST PUSH1 0x14 SLOAD DUP2 LT ISZERO PUSH2 0xE1C JUMPI PUSH1 0xB SLOAD PUSH1 0x40 MLOAD CALLER SWAP2 DUP1 ISZERO PUSH2 0x8FC MUL SWAP2 PUSH1 0x0 DUP2 DUP2 DUP2 DUP6 DUP9 DUP9 CALL SWAP4 POP POP POP POP ISZERO DUP1 ISZERO PUSH2 0xDCF JUMPI RETURNDATASIZE PUSH1 0x0 DUP1 RETURNDATACOPY RETURNDATASIZE PUSH1 0x0 REVERT JUMPDEST POP PUSH1 0x0 DUP1 MLOAD PUSH1 0x20 PUSH2 0x49CB DUP4 CODECOPY DUP2 MLOAD SWAP2 MSTORE PUSH1 0x1 DUP3 DUP2 SLOAD DUP2 LT PUSH2 0xDEC JUMPI INVALID JUMPDEST PUSH1 0x0 SWAP2 DUP3 MSTORE PUSH1 0x20 SWAP2 DUP3 SWAP1 KECCAK256 ADD SLOAD PUSH1 0x40 DUP1 MLOAD PUSH1 0x1 PUSH1 0x1 PUSH1 0xA0 SHL SUB SWAP1 SWAP3 AND DUP3 MSTORE MLOAD SWAP1 DUP2 SWAP1 SUB SWAP1 SWAP2 ADD SWAP1 LOG1 PUSH1 0x1 ADD PUSH2 0xD97 JUMP JUMPDEST POP PUSH1 0x0 JUMPDEST PUSH1 0x2 SLOAD DUP2 LT ISZERO PUSH2 0xF69 JUMPI PUSH1 0x0 PUSH1 0x3 DUP3 DUP2 SLOAD DUP2 LT PUSH2 0xE39 JUMPI INVALID JUMPDEST SWAP1 PUSH1 0x0 MSTORE PUSH1 0x20 PUSH1 0x0 KECCAK256 SWAP1 PUSH1 0x3 MUL ADD PUSH1 0x2 ADD SLOAD PUSH2 0xEBA PUSH2 0x94B PUSH2 0xE80 PUSH2 0xE5F PUSH1 0xF SLOAD PUSH2 0x29D5 JUMP JUMPDEST PUSH2 0xE6A PUSH1 0xD SLOAD PUSH2 0x29D5 JUMP JUMPDEST PUSH1 0x1 PUSH1 0x1 PUSH1 0x80 SHL SUB NOT AND SWAP1 PUSH4 0xFFFFFFFF PUSH2 0x302C AND JUMP JUMPDEST PUSH2 0x935 PUSH1 0x6 PUSH1 0x10 SWAP1 SLOAD SWAP1 PUSH2 0x100 EXP SWAP1 DIV PUSH1 0x80 SHL PUSH2 0x916 PUSH1 0x3 DUP10 DUP2 SLOAD DUP2 LT PUSH2 0xEA3 JUMPI INVALID JUMPDEST SWAP1 PUSH1 0x0 MSTORE PUSH1 0x20 PUSH1 0x0 KECCAK256 SWAP1 PUSH1 0x3 MUL ADD PUSH1 0x2 ADD SLOAD PUSH2 0x29D5 JUMP JUMPDEST ADD SWAP1 POP PUSH1 0x3 DUP3 DUP2 SLOAD DUP2 LT PUSH2 0xECA JUMPI INVALID JUMPDEST PUSH1 0x0 SWAP2 DUP3 MSTORE PUSH1 0x20 DUP3 KECCAK256 PUSH1 0x3 SWAP1 SWAP2 MUL ADD SLOAD PUSH1 0x40 MLOAD PUSH1 0x1 PUSH1 0x1 PUSH1 0xA0 SHL SUB SWAP1 SWAP2 AND SWAP2 DUP4 ISZERO PUSH2 0x8FC MUL SWAP2 DUP5 SWAP2 DUP2 DUP2 DUP2 DUP6 DUP9 DUP9 CALL SWAP4 POP POP POP POP ISZERO DUP1 ISZERO PUSH2 0xF0F JUMPI RETURNDATASIZE PUSH1 0x0 DUP1 RETURNDATACOPY RETURNDATASIZE PUSH1 0x0 REVERT JUMPDEST POP PUSH1 0x0 DUP1 MLOAD PUSH1 0x20 PUSH2 0x49EB DUP4 CODECOPY DUP2 MLOAD SWAP2 MSTORE PUSH1 0x3 DUP4 DUP2 SLOAD DUP2 LT PUSH2 0xF2C JUMPI INVALID JUMPDEST PUSH1 0x0 SWAP2 DUP3 MSTORE PUSH1 0x20 SWAP2 DUP3 SWAP1 KECCAK256 PUSH1 0x3 SWAP1 SWAP2 MUL ADD SLOAD PUSH1 0x40 DUP1 MLOAD PUSH1 0x1 PUSH1 0x1 PUSH1 0xA0 SHL SUB SWAP1 SWAP3 AND DUP3 MSTORE SWAP2 DUP2 ADD DUP5 SWAP1 MSTORE DUP2 MLOAD SWAP1 DUP2 SWAP1 SUB SWAP1 SWAP2 ADD SWAP1 LOG1 POP PUSH1 0x1 ADD PUSH2 0xE20 JUMP JUMPDEST POP PUSH1 0x6 SLOAD CALLER SWAP1 PUSH2 0x8FC SWAP1 PUSH2 0xF89 SWAP1 PUSH1 0x80 SHL PUSH1 0x1 PUSH1 0x1 PUSH1 0x80 SHL SUB NOT AND PUSH2 0x2F94 JUMP JUMPDEST PUSH1 0x40 MLOAD DUP2 ISZERO SWAP1 SWAP3 MUL SWAP2 PUSH1 0x0 DUP2 DUP2 DUP2 DUP6 DUP9 DUP9 CALL SWAP4 POP POP POP POP ISZERO DUP1 ISZERO PUSH2 0xFB1 JUMPI RETURNDATASIZE PUSH1 0x0 DUP1 RETURNDATACOPY RETURNDATASIZE PUSH1 0x0 REVERT JUMPDEST POP PUSH1 0x6 SLOAD PUSH32 0x221D1CB74844FBE494CE391226C9DC4E80ADEE4D1A8E44508801576313D74BE4 SWAP1 CALLER SWAP1 PUSH2 0xFEF SWAP1 PUSH1 0x80 SHL PUSH1 0x1 PUSH1 0x1 PUSH1 0x80 SHL SUB NOT AND PUSH2 0x2F94 JUMP JUMPDEST PUSH1 0x40 DUP1 MLOAD PUSH1 0x1 PUSH1 0x1 PUSH1 0xA0 SHL SUB SWAP1 SWAP4 AND DUP4 MSTORE PUSH1 0x20 DUP4 ADD SWAP2 SWAP1 SWAP2 MSTORE DUP1 MLOAD SWAP2 DUP3 SWAP1 SUB ADD SWAP1 LOG1 PUSH1 0x40 DUP1 MLOAD CALLER DUP2 MSTORE PUSH1 0x0 NOT PUSH1 0x20 DUP3 ADD MSTORE DUP2 MLOAD PUSH32 0xE862598A8A64919095D7F371BB576A1B8ED5814EAEFF9BD21F1990BF53095681 SWAP3 SWAP2 DUP2 SWAP1 SUB SWAP1 SWAP2 ADD SWAP1 LOG1 JUMPDEST POP JUMP JUMPDEST PUSH1 0x1C SLOAD PUSH1 0x0 SWAP1 DUP2 SWAP1 JUMPDEST PUSH1 0x14 SLOAD DUP2 LT ISZERO PUSH2 0x1091 JUMPI PUSH2 0x1087 PUSH2 0x1070 DUP3 PUSH2 0x214E JUMP JUMPDEST PUSH1 0x1 PUSH1 0x1 PUSH1 0x80 SHL SUB NOT DUP5 AND SWAP1 PUSH4 0xFFFFFFFF PUSH2 0x302C AND JUMP JUMPDEST SWAP2 POP PUSH1 0x1 ADD PUSH2 0x105A JUMP JUMPDEST POP PUSH2 0x10A5 PUSH1 0x1 PUSH1 0x1 PUSH1 0x80 SHL SUB NOT DUP3 AND PUSH2 0x2F94 JUMP JUMPDEST SWAP2 POP POP SWAP1 JUMP JUMPDEST PUSH1 0xD SLOAD DUP2 JUMP JUMPDEST PUSH1 0x12 SLOAD DUP2 JUMP JUMPDEST PUSH3 0x15180 PUSH1 0x9 SLOAD SUB TIMESTAMP LT PUSH2 0x10CA JUMPI PUSH1 0x0 DUP1 REVERT JUMPDEST CALLER PUSH1 0x0 SWAP1 DUP2 MSTORE PUSH1 0x4 PUSH1 0x20 MSTORE PUSH1 0x40 SWAP1 KECCAK256 SLOAD PUSH2 0x10E3 JUMPI PUSH1 0x0 DUP1 REVERT JUMPDEST PUSH3 0x15180 PUSH1 0x9 SLOAD SUB TIMESTAMP LT PUSH2 0x10F6 JUMPI PUSH1 0x0 DUP1 REVERT JUMPDEST PUSH2 0x10FE PUSH2 0x23A3 JUMP JUMPDEST PUSH2 0x1341 JUMPI PUSH1 0x0 PUSH2 0x110C PUSH2 0x27E2 JUMP JUMPDEST SWAP1 POP PUSH2 0x1116 PUSH2 0x4862 JUMP JUMPDEST CALLER PUSH1 0x0 DUP2 DUP2 MSTORE PUSH1 0x4 PUSH1 0x20 MSTORE PUSH1 0x40 SWAP1 KECCAK256 SLOAD PUSH1 0x2 DUP1 SLOAD PUSH2 0x8FC SWAP3 DUP7 SWAP3 SWAP2 PUSH1 0x0 NOT SWAP1 SWAP2 ADD SWAP1 DUP2 LT PUSH2 0x1140 JUMPI INVALID JUMPDEST SWAP1 PUSH1 0x0 MSTORE PUSH1 0x20 PUSH1 0x0 KECCAK256 SWAP1 PUSH1 0x2 MUL ADD PUSH1 0x1 ADD SLOAD SUB SWAP1 DUP2 ISZERO MUL SWAP1 PUSH1 0x40 MLOAD PUSH1 0x0 PUSH1 0x40 MLOAD DUP1 DUP4 SUB DUP2 DUP6 DUP9 DUP9 CALL SWAP4 POP POP POP POP ISZERO DUP1 ISZERO PUSH2 0x117E JUMPI RETURNDATASIZE PUSH1 0x0 DUP1 RETURNDATACOPY RETURNDATASIZE PUSH1 0x0 REVERT JUMPDEST POP CALLER PUSH1 0x0 SWAP1 DUP2 MSTORE PUSH1 0x4 PUSH1 0x20 MSTORE PUSH1 0x40 SWAP1 KECCAK256 SLOAD PUSH1 0x2 DUP1 SLOAD PUSH2 0x11C1 SWAP3 PUSH2 0x11AB SWAP3 SWAP2 PUSH1 0x0 NOT SWAP1 SWAP2 ADD SWAP1 DUP2 LT PUSH2 0xBCE JUMPI INVALID JUMPDEST PUSH1 0x6 SLOAD PUSH1 0x80 SHL PUSH1 0x1 PUSH1 0x1 PUSH1 0x80 SHL SUB NOT AND SWAP1 PUSH2 0x2A3A JUMP JUMPDEST PUSH1 0x6 DUP1 SLOAD PUSH1 0x1 PUSH1 0x1 PUSH1 0x80 SHL SUB NOT AND PUSH1 0x80 SWAP3 SWAP1 SWAP3 SHR SWAP2 SWAP1 SWAP2 OR SWAP1 SSTORE PUSH2 0x1204 PUSH2 0x11E7 DUP4 PUSH2 0x29D5 JUMP JUMPDEST PUSH1 0x6 SLOAD PUSH1 0x1 PUSH1 0x80 SHL SWAP1 DIV PUSH1 0x80 SHL PUSH1 0x1 PUSH1 0x1 PUSH1 0x80 SHL SUB NOT AND SWAP1 PUSH2 0x302C JUMP JUMPDEST PUSH1 0x6 DUP1 SLOAD PUSH1 0x1 PUSH1 0x1 PUSH1 0x80 SHL SUB AND PUSH1 0x1 PUSH1 0x80 SHL PUSH1 0x80 SWAP4 SWAP1 SWAP4 SHR SWAP3 SWAP1 SWAP3 MUL SWAP2 SWAP1 SWAP2 OR SWAP1 SSTORE PUSH1 0x20 DUP2 DUP2 ADD DUP5 DUP2 MSTORE CALLER DUP4 MSTORE PUSH1 0x40 DUP4 ADD DUP5 SWAP1 MSTORE PUSH1 0x3 DUP1 SLOAD PUSH1 0x1 DUP2 ADD DUP1 DUP4 SSTORE PUSH1 0x0 DUP4 SWAP1 MSTORE DUP6 MLOAD PUSH32 0xC2575A0E9E593C00F959F8C92F12DB2869C3395A3B0502D05E2516446F71F85B SWAP3 SWAP1 SWAP4 MUL SWAP2 DUP3 ADD DUP1 SLOAD PUSH1 0x1 PUSH1 0x1 PUSH1 0xA0 SHL SUB NOT AND PUSH1 0x1 PUSH1 0x1 PUSH1 0xA0 SHL SUB SWAP1 SWAP5 AND SWAP4 SWAP1 SWAP4 OR DUP4 SSTORE SWAP3 MLOAD DUP1 MLOAD SWAP4 SWAP5 DUP7 SWAP5 PUSH2 0x12C7 SWAP4 PUSH32 0xC2575A0E9E593C00F959F8C92F12DB2869C3395A3B0502D05E2516446F71F85C ADD SWAP3 SWAP1 SWAP2 ADD SWAP1 PUSH2 0x488C JUMP JUMPDEST POP PUSH1 0x40 SWAP2 DUP3 ADD MLOAD PUSH1 0x2 SWAP2 DUP3 ADD SSTORE PUSH1 0x3 SLOAD CALLER PUSH1 0x0 SWAP1 DUP2 MSTORE PUSH1 0x5 PUSH1 0x20 SWAP1 DUP2 MSTORE DUP5 DUP3 KECCAK256 SWAP3 SWAP1 SWAP3 SSTORE PUSH1 0x4 SWAP1 SWAP2 MSTORE SWAP2 SWAP1 SWAP2 KECCAK256 SLOAD DUP2 SLOAD SWAP2 SWAP3 POP PUSH1 0x0 NOT ADD SWAP1 DUP2 LT PUSH2 0x1307 JUMPI INVALID JUMPDEST PUSH1 0x0 SWAP2 DUP3 MSTORE PUSH1 0x20 DUP1 DUP4 KECCAK256 PUSH1 0x2 SWAP1 SWAP3 MUL SWAP1 SWAP2 ADD DUP1 SLOAD PUSH1 0x1 PUSH1 0x1 PUSH1 0xA0 SHL SUB NOT AND DUP2 SSTORE PUSH1 0x1 ADD DUP3 SWAP1 SSTORE CALLER DUP3 MSTORE PUSH1 0x4 SWAP1 MSTORE PUSH1 0x40 DUP2 KECCAK256 SSTORE POP PUSH2 0x14AF SWAP1 POP JUMP JUMPDEST PUSH1 0x0 PUSH2 0x134B PUSH2 0x23A3 JUMP JUMPDEST SWAP1 POP DUP1 CALLVALUE EQ PUSH2 0x1359 JUMPI PUSH1 0x0 DUP1 REVERT JUMPDEST PUSH2 0x1361 PUSH2 0x4862 JUMP JUMPDEST PUSH1 0x20 DUP1 DUP3 ADD DUP5 SWAP1 MSTORE CALLER PUSH1 0x0 SWAP1 DUP2 MSTORE PUSH1 0x4 SWAP1 SWAP2 MSTORE PUSH1 0x40 SWAP1 KECCAK256 SLOAD PUSH1 0x2 DUP1 SLOAD DUP5 SWAP3 PUSH1 0x0 NOT ADD SWAP1 DUP2 LT PUSH2 0x138C JUMPI INVALID JUMPDEST PUSH1 0x0 SWAP2 DUP3 MSTORE PUSH1 0x20 DUP1 DUP4 KECCAK256 PUSH1 0x2 SWAP3 DUP4 MUL ADD PUSH1 0x1 ADD SLOAD SWAP4 SWAP1 SWAP4 ADD PUSH1 0x40 DUP6 DUP2 ADD SWAP2 SWAP1 SWAP2 MSTORE CALLER DUP1 DUP7 MSTORE DUP4 MSTORE PUSH1 0x4 SWAP1 SWAP4 MSTORE SWAP2 SWAP1 KECCAK256 SLOAD DUP2 SLOAD PUSH2 0x13D7 SWAP3 PUSH2 0x11AB SWAP3 SWAP1 SWAP2 PUSH1 0x0 NOT SWAP1 SWAP2 ADD SWAP1 DUP2 LT PUSH2 0xBCE JUMPI INVALID JUMPDEST PUSH1 0x6 DUP1 SLOAD PUSH1 0x1 PUSH1 0x1 PUSH1 0x80 SHL SUB NOT AND PUSH1 0x80 SWAP3 SWAP1 SWAP3 SHR SWAP2 SWAP1 SWAP2 OR SWAP1 SSTORE CALLER PUSH1 0x0 SWAP1 DUP2 MSTORE PUSH1 0x4 PUSH1 0x20 MSTORE PUSH1 0x40 SWAP1 KECCAK256 SLOAD PUSH1 0x2 DUP1 SLOAD PUSH2 0x1436 SWAP3 PUSH2 0x11E7 SWAP3 DUP7 SWAP3 SWAP1 SWAP2 PUSH1 0x0 NOT ADD SWAP1 DUP2 LT PUSH2 0x141E JUMPI INVALID JUMPDEST SWAP1 PUSH1 0x0 MSTORE PUSH1 0x20 PUSH1 0x0 KECCAK256 SWAP1 PUSH1 0x2 MUL ADD PUSH1 0x1 ADD SLOAD ADD PUSH2 0x29D5 JUMP JUMPDEST PUSH1 0x6 DUP1 SLOAD PUSH1 0x80 SWAP3 SWAP1 SWAP3 SHR PUSH1 0x1 PUSH1 0x80 SHL MUL PUSH1 0x1 PUSH1 0x1 PUSH1 0x80 SHL SUB SWAP1 SWAP3 AND SWAP2 SWAP1 SWAP2 OR SWAP1 SSTORE CALLER PUSH1 0x0 SWAP1 DUP2 MSTORE PUSH1 0x4 PUSH1 0x20 MSTORE PUSH1 0x40 SWAP1 KECCAK256 SLOAD PUSH1 0x2 DUP1 SLOAD SWAP1 SWAP2 PUSH1 0x0 NOT ADD SWAP1 DUP2 LT PUSH2 0x147A JUMPI INVALID JUMPDEST PUSH1 0x0 SWAP2 DUP3 MSTORE PUSH1 0x20 DUP1 DUP4 KECCAK256 PUSH1 0x2 SWAP1 SWAP3 MUL SWAP1 SWAP2 ADD DUP1 SLOAD PUSH1 0x1 PUSH1 0x1 PUSH1 0xA0 SHL SUB NOT AND DUP2 SSTORE PUSH1 0x1 ADD DUP3 SWAP1 SSTORE CALLER DUP3 MSTORE PUSH1 0x4 SWAP1 MSTORE PUSH1 0x40 DUP2 KECCAK256 SSTORE POP POP JUMPDEST PUSH1 0x12 DUP1 SLOAD PUSH1 0x0 NOT ADD SWAP1 SSTORE PUSH1 0x13 DUP1 SLOAD PUSH1 0x1 ADD SWAP1 SSTORE PUSH1 0x40 DUP1 MLOAD CALLER DUP2 MSTORE SWAP1 MLOAD PUSH32 0x5781E6A4C32034FB8451C4C967EF9ED3E94F6C4B3927AF14475B96FEF21EAFA SWAP2 DUP2 SWAP1 SUB PUSH1 0x20 ADD SWAP1 LOG1 POP JUMP JUMPDEST PUSH1 0x60 PUSH1 0x3 DUP3 DUP2 SLOAD DUP2 LT PUSH2 0x1507 JUMPI INVALID JUMPDEST SWAP1 PUSH1 0x0 MSTORE PUSH1 0x20 PUSH1 0x0 KECCAK256 SWAP1 PUSH1 0x3 MUL ADD PUSH1 0x1 ADD DUP1 SLOAD PUSH1 0x1 DUP2 PUSH1 0x1 AND ISZERO PUSH2 0x100 MUL SUB AND PUSH1 0x2 SWAP1 DIV DUP1 PUSH1 0x1F ADD PUSH1 0x20 DUP1 SWAP2 DIV MUL PUSH1 0x20 ADD PUSH1 0x40 MLOAD SWAP1 DUP2 ADD PUSH1 0x40 MSTORE DUP1 SWAP3 SWAP2 SWAP1 DUP2 DUP2 MSTORE PUSH1 0x20 ADD DUP3 DUP1 SLOAD PUSH1 0x1 DUP2 PUSH1 0x1 AND ISZERO PUSH2 0x100 MUL SUB AND PUSH1 0x2 SWAP1 DIV DUP1 ISZERO PUSH2 0x15AC JUMPI DUP1 PUSH1 0x1F LT PUSH2 0x1581 JUMPI PUSH2 0x100 DUP1 DUP4 SLOAD DIV MUL DUP4 MSTORE SWAP2 PUSH1 0x20 ADD SWAP2 PUSH2 0x15AC JUMP JUMPDEST DUP3 ADD SWAP2 SWAP1 PUSH1 0x0 MSTORE PUSH1 0x20 PUSH1 0x0 KECCAK256 SWAP1 JUMPDEST DUP2 SLOAD DUP2 MSTORE SWAP1 PUSH1 0x1 ADD SWAP1 PUSH1 0x20 ADD DUP1 DUP4 GT PUSH2 0x158F JUMPI DUP3 SWAP1 SUB PUSH1 0x1F AND DUP3 ADD SWAP2 JUMPDEST POP POP POP POP POP SWAP1 POP JUMPDEST SWAP2 SWAP1 POP JUMP JUMPDEST PUSH1 0x18 SLOAD PUSH1 0xC SLOAD PUSH1 0x0 SWAP2 PUSH2 0x15E7 SWAP2 PUSH2 0x94B SWAP2 PUSH1 0x80 SHL SWAP1 PUSH2 0x916 SWAP1 PUSH2 0x15DB SWAP1 PUSH2 0x29D5 JUMP JUMPDEST PUSH1 0x2 SLOAD PUSH2 0x935 SWAP1 PUSH2 0x214E JUMP JUMPDEST SWAP1 POP SWAP1 JUMP JUMPDEST ADDRESS SWAP1 JUMP JUMPDEST PUSH1 0x1D SLOAD PUSH1 0x1 PUSH1 0x80 SHL SWAP1 DIV PUSH1 0xFF AND ISZERO PUSH2 0x1607 JUMPI PUSH1 0x0 DUP1 REVERT JUMPDEST PUSH1 0x1D SLOAD PUSH1 0x1 PUSH1 0x88 SHL SWAP1 DIV PUSH1 0xFF AND ISZERO PUSH2 0x161E JUMPI PUSH1 0x0 DUP1 REVERT JUMPDEST PUSH1 0x1B SLOAD PUSH1 0x1 PUSH1 0x80 SHL SWAP1 DIV PUSH1 0xFF AND ISZERO ISZERO PUSH1 0x1 EQ ISZERO PUSH2 0x19B6 JUMPI PUSH2 0x163D PUSH2 0x28D2 JUMP JUMPDEST PUSH1 0x1 EQ ISZERO PUSH2 0x17DD JUMPI PUSH1 0xA SLOAD PUSH1 0x1 PUSH1 0x1 PUSH1 0xA0 SHL SUB AND CALLER EQ ISZERO PUSH2 0x16E1 JUMPI PUSH1 0xB SLOAD PUSH1 0x14 SLOAD PUSH1 0xF SLOAD PUSH1 0xA SLOAD PUSH1 0x40 MLOAD SWAP3 SWAP1 SWAP4 MUL ADD SWAP2 PUSH1 0x1 PUSH1 0x1 PUSH1 0xA0 SHL SUB AND SWAP1 DUP3 ISZERO PUSH2 0x8FC MUL SWAP1 DUP4 SWAP1 PUSH1 0x0 DUP2 DUP2 DUP2 DUP6 DUP9 DUP9 CALL SWAP4 POP POP POP POP ISZERO DUP1 ISZERO PUSH2 0x169F JUMPI RETURNDATASIZE PUSH1 0x0 DUP1 RETURNDATACOPY RETURNDATASIZE PUSH1 0x0 REVERT JUMPDEST POP PUSH1 0x40 DUP1 MLOAD CALLER DUP2 MSTORE PUSH1 0x20 DUP2 ADD DUP4 SWAP1 MSTORE DUP2 MLOAD PUSH32 0xF0015A56DD924D608CE6C5729E2083095B5AA522321CF1BAEFCE60637341E34C SWAP3 SWAP2 DUP2 SWAP1 SUB SWAP1 SWAP2 ADD SWAP1 LOG1 POP PUSH2 0xA8F JUMP JUMPDEST CALLER PUSH1 0x0 SWAP1 DUP2 MSTORE PUSH1 0x4 PUSH1 0x20 MSTORE PUSH1 0x40 SWAP1 KECCAK256 SLOAD PUSH2 0x16FA JUMPI PUSH1 0x0 DUP1 REVERT JUMPDEST CALLER PUSH1 0x0 SWAP1 DUP2 MSTORE PUSH1 0x4 PUSH1 0x20 MSTORE PUSH1 0x40 DUP2 KECCAK256 SLOAD PUSH1 0x2 DUP1 SLOAD SWAP1 SWAP2 PUSH1 0x0 NOT ADD SWAP1 DUP2 LT PUSH2 0x171D JUMPI INVALID JUMPDEST SWAP1 PUSH1 0x0 MSTORE PUSH1 0x20 PUSH1 0x0 KECCAK256 SWAP1 PUSH1 0x2 MUL ADD PUSH1 0x1 ADD SLOAD SWAP1 POP PUSH1 0x0 DUP2 PUSH2 0x176B PUSH2 0x94B PUSH2 0x1758 PUSH1 0x6 PUSH1 0x10 SWAP1 SLOAD SWAP1 PUSH2 0x100 EXP SWAP1 DIV PUSH1 0x80 SHL PUSH2 0xE6A PUSH1 0xD SLOAD PUSH2 0x29D5 JUMP JUMPDEST PUSH1 0x6 SLOAD PUSH2 0x935 SWAP1 PUSH1 0x80 SHL PUSH2 0x916 DUP9 PUSH2 0x29D5 JUMP JUMPDEST PUSH1 0x40 MLOAD SWAP2 ADD SWAP2 POP CALLER SWAP1 DUP3 ISZERO PUSH2 0x8FC MUL SWAP1 DUP4 SWAP1 PUSH1 0x0 DUP2 DUP2 DUP2 DUP6 DUP9 DUP9 CALL SWAP4 POP POP POP POP ISZERO DUP1 ISZERO PUSH2 0x179C JUMPI RETURNDATASIZE PUSH1 0x0 DUP1 RETURNDATACOPY RETURNDATASIZE PUSH1 0x0 REVERT JUMPDEST POP PUSH1 0x40 DUP1 MLOAD CALLER DUP2 MSTORE PUSH1 0x20 DUP2 ADD DUP4 SWAP1 MSTORE DUP2 MLOAD PUSH1 0x0 DUP1 MLOAD PUSH1 0x20 PUSH2 0x49EB DUP4 CODECOPY DUP2 MLOAD SWAP2 MSTORE SWAP3 SWAP2 DUP2 SWAP1 SUB SWAP1 SWAP2 ADD SWAP1 LOG1 POP POP CALLER PUSH1 0x0 SWAP1 DUP2 MSTORE PUSH1 0x4 PUSH1 0x20 MSTORE PUSH1 0x40 DUP2 KECCAK256 SSTORE PUSH2 0xA8F JUMP JUMPDEST PUSH2 0x17E5 PUSH2 0x28D2 JUMP JUMPDEST PUSH1 0x0 NOT EQ ISZERO PUSH2 0x1967 JUMPI CALLER PUSH1 0x0 SWAP1 DUP2 MSTORE PUSH1 0x20 DUP2 SWAP1 MSTORE PUSH1 0x40 SWAP1 KECCAK256 SLOAD PUSH1 0xFF AND PUSH1 0x1 EQ PUSH2 0x180D JUMPI PUSH1 0x0 DUP1 REVERT JUMPDEST PUSH1 0xB SLOAD PUSH1 0x40 MLOAD CALLER SWAP2 DUP1 ISZERO PUSH2 0x8FC MUL SWAP2 PUSH1 0x0 DUP2 DUP2 DUP2 DUP6 DUP9 DUP9 CALL SWAP4 POP POP POP POP ISZERO DUP1 ISZERO PUSH2 0x183B JUMPI RETURNDATASIZE PUSH1 0x0 DUP1 RETURNDATACOPY RETURNDATASIZE PUSH1 0x0 REVERT JUMPDEST POP PUSH1 0x40 DUP1 MLOAD CALLER DUP2 MSTORE SWAP1 MLOAD PUSH1 0x0 DUP1 MLOAD PUSH1 0x20 PUSH2 0x49CB DUP4 CODECOPY DUP2 MLOAD SWAP2 MSTORE SWAP2 DUP2 SWAP1 SUB PUSH1 0x20 ADD SWAP1 LOG1 CALLER PUSH1 0x0 SWAP1 DUP2 MSTORE PUSH1 0x5 PUSH1 0x20 MSTORE PUSH1 0x40 SWAP1 KECCAK256 SLOAD ISZERO PUSH2 0x194B JUMPI CALLER PUSH1 0x0 SWAP1 DUP2 MSTORE PUSH1 0x5 PUSH1 0x20 MSTORE PUSH1 0x40 DUP2 KECCAK256 SLOAD PUSH1 0x3 DUP1 SLOAD SWAP1 SWAP2 PUSH1 0x0 NOT ADD SWAP1 DUP2 LT PUSH2 0x1895 JUMPI INVALID JUMPDEST SWAP1 PUSH1 0x0 MSTORE PUSH1 0x20 PUSH1 0x0 KECCAK256 SWAP1 PUSH1 0x3 MUL ADD PUSH1 0x2 ADD SLOAD SWAP1 POP PUSH1 0x0 DUP2 PUSH2 0x18ED PUSH2 0x94B PUSH2 0x18D3 PUSH2 0xE5F PUSH1 0x6 PUSH1 0x0 SWAP1 SLOAD SWAP1 PUSH2 0x100 EXP SWAP1 DIV PUSH1 0x80 SHL PUSH2 0xE6A PUSH1 0xF SLOAD PUSH2 0x29D5 JUMP JUMPDEST PUSH1 0x6 SLOAD PUSH2 0x935 SWAP1 PUSH1 0x1 PUSH1 0x80 SHL SWAP1 DIV PUSH1 0x80 SHL PUSH2 0x916 DUP9 PUSH2 0x29D5 JUMP JUMPDEST PUSH1 0x40 MLOAD SWAP2 ADD SWAP2 POP CALLER SWAP1 DUP3 ISZERO PUSH2 0x8FC MUL SWAP1 DUP4 SWAP1 PUSH1 0x0 DUP2 DUP2 DUP2 DUP6 DUP9 DUP9 CALL SWAP4 POP POP POP POP ISZERO DUP1 ISZERO PUSH2 0x191E JUMPI RETURNDATASIZE PUSH1 0x0 DUP1 RETURNDATACOPY RETURNDATASIZE PUSH1 0x0 REVERT JUMPDEST POP PUSH1 0x40 DUP1 MLOAD CALLER DUP2 MSTORE PUSH1 0x20 DUP2 ADD DUP4 SWAP1 MSTORE DUP2 MLOAD PUSH1 0x0 DUP1 MLOAD PUSH1 0x20 PUSH2 0x49EB DUP4 CODECOPY DUP2 MLOAD SWAP2 MSTORE SWAP3 SWAP2 DUP2 SWAP1 SUB SWAP1 SWAP2 ADD SWAP1 LOG1 POP POP JUMPDEST CALLER PUSH1 0x0 SWAP1 DUP2 MSTORE PUSH1 0x20 DUP2 SWAP1 MSTORE PUSH1 0x40 SWAP1 KECCAK256 DUP1 SLOAD PUSH1 0xFF NOT AND SWAP1 SSTORE PUSH2 0x19B1 JUMP JUMPDEST PUSH1 0x1D DUP1 SLOAD PUSH1 0x1 PUSH1 0x80 SHL PUSH1 0xFF MUL NOT AND PUSH1 0x1 PUSH1 0x80 SHL OR SWAP1 SSTORE PUSH1 0x40 DUP1 MLOAD CALLER DUP2 MSTORE SWAP1 MLOAD PUSH32 0xEB42BCEA8BA7F51475D0353EF5379D88C3B94A4F3007DF54A2449FDFE94CF3F6 SWAP2 DUP2 SWAP1 SUB PUSH1 0x20 ADD SWAP1 LOG1 JUMPDEST PUSH2 0xA8F JUMP JUMPDEST CALLER PUSH1 0x0 SWAP1 DUP2 MSTORE PUSH1 0x20 DUP2 SWAP1 MSTORE PUSH1 0x40 SWAP1 KECCAK256 SLOAD PUSH1 0xFF AND PUSH1 0x1 EQ PUSH2 0x19D5 JUMPI PUSH1 0x0 DUP1 REVERT JUMPDEST PUSH1 0xB SLOAD PUSH1 0x40 MLOAD CALLER SWAP2 DUP1 ISZERO PUSH2 0x8FC MUL SWAP2 PUSH1 0x0 DUP2 DUP2 DUP2 DUP6 DUP9 DUP9 CALL SWAP4 POP POP POP POP ISZERO DUP1 ISZERO PUSH2 0x1A03 JUMPI RETURNDATASIZE PUSH1 0x0 DUP1 RETURNDATACOPY RETURNDATASIZE PUSH1 0x0 REVERT JUMPDEST POP PUSH1 0x40 DUP1 MLOAD CALLER DUP2 MSTORE SWAP1 MLOAD PUSH1 0x0 DUP1 MLOAD PUSH1 0x20 PUSH2 0x49CB DUP4 CODECOPY DUP2 MLOAD SWAP2 MSTORE SWAP2 DUP2 SWAP1 SUB PUSH1 0x20 ADD SWAP1 LOG1 CALLER PUSH1 0x0 SWAP1 DUP2 MSTORE PUSH1 0x5 PUSH1 0x20 MSTORE PUSH1 0x40 SWAP1 KECCAK256 SLOAD ISZERO PUSH2 0x1AF9 JUMPI CALLER PUSH1 0x0 SWAP1 DUP2 MSTORE PUSH1 0x5 PUSH1 0x20 MSTORE PUSH1 0x40 DUP2 KECCAK256 SLOAD PUSH1 0x3 DUP1 SLOAD SWAP1 SWAP2 PUSH1 0x0 NOT ADD SWAP1 DUP2 LT PUSH2 0x1A5D JUMPI INVALID JUMPDEST SWAP1 PUSH1 0x0 MSTORE PUSH1 0x20 PUSH1 0x0 KECCAK256 SWAP1 PUSH1 0x3 MUL ADD PUSH1 0x2 ADD SLOAD SWAP1 POP PUSH1 0x0 DUP2 PUSH2 0x1A9B PUSH2 0x94B PUSH2 0x18D3 PUSH2 0xE5F PUSH1 0x6 PUSH1 0x0 SWAP1 SLOAD SWAP1 PUSH2 0x100 EXP SWAP1 DIV PUSH1 0x80 SHL PUSH2 0xE6A PUSH1 0xF SLOAD PUSH2 0x29D5 JUMP JUMPDEST PUSH1 0x40 MLOAD SWAP2 ADD SWAP2 POP CALLER SWAP1 DUP3 ISZERO PUSH2 0x8FC MUL SWAP1 DUP4 SWAP1 PUSH1 0x0 DUP2 DUP2 DUP2 DUP6 DUP9 DUP9 CALL SWAP4 POP POP POP POP ISZERO DUP1 ISZERO PUSH2 0x1ACC JUMPI RETURNDATASIZE PUSH1 0x0 DUP1 RETURNDATACOPY RETURNDATASIZE PUSH1 0x0 REVERT JUMPDEST POP PUSH1 0x40 DUP1 MLOAD CALLER DUP2 MSTORE PUSH1 0x20 DUP2 ADD DUP4 SWAP1 MSTORE DUP2 MLOAD PUSH1 0x0 DUP1 MLOAD PUSH1 0x20 PUSH2 0x49EB DUP4 CODECOPY DUP2 MLOAD SWAP2 MSTORE SWAP3 SWAP2 DUP2 SWAP1 SUB SWAP1 SWAP2 ADD SWAP1 LOG1 POP POP JUMPDEST CALLER PUSH1 0x0 SWAP1 DUP2 MSTORE PUSH1 0x20 DUP2 SWAP1 MSTORE PUSH1 0x40 SWAP1 KECCAK256 DUP1 SLOAD PUSH1 0xFF NOT AND SWAP1 SSTORE JUMP JUMPDEST PUSH1 0x4 PUSH1 0x20 MSTORE PUSH1 0x0 SWAP1 DUP2 MSTORE PUSH1 0x40 SWAP1 KECCAK256 SLOAD DUP2 JUMP JUMPDEST PUSH1 0x6 SLOAD PUSH1 0x0 SWAP1 PUSH2 0x15E7 SWAP1 PUSH1 0x1 PUSH1 0x80 SHL SWAP1 DIV PUSH1 0x80 SHL PUSH1 0x1 PUSH1 0x1 PUSH1 0x80 SHL SUB NOT AND PUSH2 0x2F94 JUMP JUMPDEST CALLER PUSH1 0x0 SWAP1 DUP2 MSTORE PUSH1 0x4 PUSH1 0x20 MSTORE PUSH1 0x40 SWAP1 KECCAK256 SLOAD SWAP1 JUMP JUMPDEST PUSH1 0x5 PUSH1 0x20 MSTORE PUSH1 0x0 SWAP1 DUP2 MSTORE PUSH1 0x40 SWAP1 KECCAK256 SLOAD DUP2 JUMP JUMPDEST PUSH1 0x7 SLOAD PUSH1 0x1D DUP1 SLOAD PUSH1 0x1 PUSH1 0x80 SHL PUSH1 0xFF MUL NOT AND PUSH1 0x1 PUSH1 0x80 SHL PUSH1 0x1 PUSH1 0x1 PUSH1 0xA0 SHL SUB SWAP1 SWAP4 AND CALLER EQ SWAP3 DUP4 MUL OR SWAP1 SSTORE PUSH2 0x1B9E JUMPI PUSH1 0x0 DUP1 REVERT JUMPDEST DUP1 PUSH1 0x1 EQ ISZERO PUSH2 0x1E41 JUMPI PUSH1 0xA SLOAD PUSH1 0x6 SLOAD PUSH1 0x1 PUSH1 0x1 PUSH1 0xA0 SHL SUB SWAP1 SWAP2 AND SWAP1 PUSH2 0x8FC SWAP1 PUSH2 0x1BDA SWAP1 PUSH1 0x1 PUSH1 0x80 SHL SWAP1 DIV PUSH1 0x80 SHL PUSH1 0x1 PUSH1 0x1 PUSH1 0x80 SHL SUB NOT AND PUSH2 0x2F94 JUMP JUMPDEST PUSH1 0xB SLOAD PUSH1 0x14 SLOAD MUL PUSH1 0xF SLOAD ADD ADD SWAP1 DUP2 ISZERO MUL SWAP1 PUSH1 0x40 MLOAD PUSH1 0x0 PUSH1 0x40 MLOAD DUP1 DUP4 SUB DUP2 DUP6 DUP9 DUP9 CALL SWAP4 POP POP POP POP ISZERO DUP1 ISZERO PUSH2 0x1C11 JUMPI RETURNDATASIZE PUSH1 0x0 DUP1 RETURNDATACOPY RETURNDATASIZE PUSH1 0x0 REVERT JUMPDEST POP PUSH1 0xA SLOAD PUSH1 0xB SLOAD PUSH1 0x14 SLOAD PUSH1 0xF SLOAD PUSH1 0x40 DUP1 MLOAD PUSH1 0x1 PUSH1 0x1 PUSH1 0xA0 SHL SUB SWAP1 SWAP6 AND DUP6 MSTORE SWAP2 SWAP1 SWAP3 MUL SWAP1 SWAP2 ADD PUSH1 0x20 DUP4 ADD MSTORE DUP1 MLOAD PUSH32 0xF0015A56DD924D608CE6C5729E2083095B5AA522321CF1BAEFCE60637341E34C SWAP3 DUP2 SWAP1 SUB SWAP1 SWAP2 ADD SWAP1 LOG1 PUSH1 0x2 SLOAD ISZERO PUSH2 0x1D63 JUMPI PUSH1 0x0 JUMPDEST PUSH1 0x2 SLOAD DUP2 LT ISZERO PUSH2 0x1D5D JUMPI PUSH1 0x0 PUSH1 0x2 DUP3 DUP2 SLOAD DUP2 LT PUSH2 0x1C8B JUMPI INVALID JUMPDEST SWAP1 PUSH1 0x0 MSTORE PUSH1 0x20 PUSH1 0x0 KECCAK256 SWAP1 PUSH1 0x2 MUL ADD PUSH1 0x1 ADD SLOAD PUSH2 0x1CAE PUSH2 0x94B PUSH2 0xBB1 PUSH1 0xD SLOAD PUSH2 0x29D5 JUMP JUMPDEST ADD SWAP1 POP PUSH1 0x2 DUP3 DUP2 SLOAD DUP2 LT PUSH2 0x1CBE JUMPI INVALID JUMPDEST PUSH1 0x0 SWAP2 DUP3 MSTORE PUSH1 0x20 DUP3 KECCAK256 PUSH1 0x2 SWAP1 SWAP2 MUL ADD SLOAD PUSH1 0x40 MLOAD PUSH1 0x1 PUSH1 0x1 PUSH1 0xA0 SHL SUB SWAP1 SWAP2 AND SWAP2 DUP4 ISZERO PUSH2 0x8FC MUL SWAP2 DUP5 SWAP2 DUP2 DUP2 DUP2 DUP6 DUP9 DUP9 CALL SWAP4 POP POP POP POP ISZERO DUP1 ISZERO PUSH2 0x1D03 JUMPI RETURNDATASIZE PUSH1 0x0 DUP1 RETURNDATACOPY RETURNDATASIZE PUSH1 0x0 REVERT JUMPDEST POP PUSH1 0x0 DUP1 MLOAD PUSH1 0x20 PUSH2 0x49EB DUP4 CODECOPY DUP2 MLOAD SWAP2 MSTORE PUSH1 0x2 DUP4 DUP2 SLOAD DUP2 LT PUSH2 0x1D20 JUMPI INVALID JUMPDEST PUSH1 0x0 SWAP2 DUP3 MSTORE PUSH1 0x20 SWAP2 DUP3 SWAP1 KECCAK256 PUSH1 0x2 SWAP1 SWAP2 MUL ADD SLOAD PUSH1 0x40 DUP1 MLOAD PUSH1 0x1 PUSH1 0x1 PUSH1 0xA0 SHL SUB SWAP1 SWAP3 AND DUP3 MSTORE SWAP2 DUP2 ADD DUP5 SWAP1 MSTORE DUP2 MLOAD SWAP1 DUP2 SWAP1 SUB SWAP1 SWAP2 ADD SWAP1 LOG1 POP PUSH1 0x1 ADD PUSH2 0x1C72 JUMP JUMPDEST POP PUSH2 0x1DA1 JUMP JUMPDEST PUSH1 0xA SLOAD PUSH1 0xD SLOAD PUSH1 0x40 MLOAD PUSH1 0x1 PUSH1 0x1 PUSH1 0xA0 SHL SUB SWAP1 SWAP3 AND SWAP2 DUP2 ISZERO PUSH2 0x8FC MUL SWAP2 SWAP1 PUSH1 0x0 DUP2 DUP2 DUP2 DUP6 DUP9 DUP9 CALL SWAP4 POP POP POP POP ISZERO DUP1 ISZERO PUSH2 0x1D9F JUMPI RETURNDATASIZE PUSH1 0x0 DUP1 RETURNDATACOPY RETURNDATASIZE PUSH1 0x0 REVERT JUMPDEST POP JUMPDEST PUSH1 0x40 MLOAD CALLER SWAP1 ADDRESS BALANCE DUP1 ISZERO PUSH2 0x8FC MUL SWAP2 PUSH1 0x0 DUP2 DUP2 DUP2 DUP6 DUP9 DUP9 CALL SWAP4 POP POP POP POP ISZERO DUP1 ISZERO PUSH2 0x1DCE JUMPI RETURNDATASIZE PUSH1 0x0 DUP1 RETURNDATACOPY RETURNDATASIZE PUSH1 0x0 REVERT JUMPDEST POP PUSH1 0x6 SLOAD PUSH32 0xFD78C019FC844C495D3B73279FA7AC647F1DB81C57A265E4AFE795C0C3FFF191 SWAP1 CALLER SWAP1 PUSH2 0x1E13 SWAP1 PUSH1 0x1 PUSH1 0x80 SHL SWAP1 DIV PUSH1 0x80 SHL PUSH1 0x1 PUSH1 0x1 PUSH1 0x80 SHL SUB NOT AND PUSH2 0x2F94 JUMP JUMPDEST PUSH1 0x40 DUP1 MLOAD PUSH1 0x1 PUSH1 0x1 PUSH1 0xA0 SHL SUB SWAP1 SWAP4 AND DUP4 MSTORE PUSH1 0x20 DUP4 ADD SWAP2 SWAP1 SWAP2 MSTORE DUP2 DUP2 ADD DUP5 SWAP1 MSTORE MLOAD SWAP1 DUP2 SWAP1 SUB PUSH1 0x60 ADD SWAP1 LOG1 PUSH2 0x104E JUMP JUMPDEST DUP1 PUSH1 0x0 NOT EQ ISZERO PUSH2 0x104E JUMPI PUSH1 0x0 JUMPDEST PUSH1 0x14 SLOAD DUP2 LT ISZERO PUSH2 0x1ED3 JUMPI PUSH1 0xB SLOAD PUSH1 0x40 MLOAD CALLER SWAP2 DUP1 ISZERO PUSH2 0x8FC MUL SWAP2 PUSH1 0x0 DUP2 DUP2 DUP2 DUP6 DUP9 DUP9 CALL SWAP4 POP POP POP POP ISZERO DUP1 ISZERO PUSH2 0x1E86 JUMPI RETURNDATASIZE PUSH1 0x0 DUP1 RETURNDATACOPY RETURNDATASIZE PUSH1 0x0 REVERT JUMPDEST POP PUSH1 0x0 DUP1 MLOAD PUSH1 0x20 PUSH2 0x49CB DUP4 CODECOPY DUP2 MLOAD SWAP2 MSTORE PUSH1 0x1 DUP3 DUP2 SLOAD DUP2 LT PUSH2 0x1EA3 JUMPI INVALID JUMPDEST PUSH1 0x0 SWAP2 DUP3 MSTORE PUSH1 0x20 SWAP2 DUP3 SWAP1 KECCAK256 ADD SLOAD PUSH1 0x40 DUP1 MLOAD PUSH1 0x1 PUSH1 0x1 PUSH1 0xA0 SHL SUB SWAP1 SWAP3 AND DUP3 MSTORE MLOAD SWAP1 DUP2 SWAP1 SUB SWAP1 SWAP2 ADD SWAP1 LOG1 PUSH1 0x1 ADD PUSH2 0x1E4E JUMP JUMPDEST POP PUSH1 0x0 JUMPDEST PUSH1 0x3 SLOAD DUP2 LT ISZERO PUSH2 0x1FD8 JUMPI PUSH1 0x0 PUSH1 0x3 DUP3 DUP2 SLOAD DUP2 LT PUSH2 0x1EF0 JUMPI INVALID JUMPDEST SWAP1 PUSH1 0x0 MSTORE PUSH1 0x20 PUSH1 0x0 KECCAK256 SWAP1 PUSH1 0x3 MUL ADD PUSH1 0x2 ADD SLOAD PUSH2 0x1F29 PUSH2 0x94B PUSH2 0xE80 PUSH2 0xE5F PUSH1 0x6 PUSH1 0x0 SWAP1 SLOAD SWAP1 PUSH2 0x100 EXP SWAP1 DIV PUSH1 0x80 SHL PUSH2 0xE6A PUSH1 0xF SLOAD PUSH2 0x29D5 JUMP JUMPDEST ADD SWAP1 POP PUSH1 0x3 DUP3 DUP2 SLOAD DUP2 LT PUSH2 0x1F39 JUMPI INVALID JUMPDEST PUSH1 0x0 SWAP2 DUP3 MSTORE PUSH1 0x20 DUP3 KECCAK256 PUSH1 0x3 SWAP1 SWAP2 MUL ADD SLOAD PUSH1 0x40 MLOAD PUSH1 0x1 PUSH1 0x1 PUSH1 0xA0 SHL SUB SWAP1 SWAP2 AND SWAP2 DUP4 ISZERO PUSH2 0x8FC MUL SWAP2 DUP5 SWAP2 DUP2 DUP2 DUP2 DUP6 DUP9 DUP9 CALL SWAP4 POP POP POP POP ISZERO DUP1 ISZERO PUSH2 0x1F7E JUMPI RETURNDATASIZE PUSH1 0x0 DUP1 RETURNDATACOPY RETURNDATASIZE PUSH1 0x0 REVERT JUMPDEST POP PUSH1 0x0 DUP1 MLOAD PUSH1 0x20 PUSH2 0x49EB DUP4 CODECOPY DUP2 MLOAD SWAP2 MSTORE PUSH1 0x3 DUP4 DUP2 SLOAD DUP2 LT PUSH2 0x1F9B JUMPI INVALID JUMPDEST PUSH1 0x0 SWAP2 DUP3 MSTORE PUSH1 0x20 SWAP2 DUP3 SWAP1 KECCAK256 PUSH1 0x3 SWAP1 SWAP2 MUL ADD SLOAD PUSH1 0x40 DUP1 MLOAD PUSH1 0x1 PUSH1 0x1 PUSH1 0xA0 SHL SUB SWAP1 SWAP3 AND DUP3 MSTORE SWAP2 DUP2 ADD DUP5 SWAP1 MSTORE DUP2 MLOAD SWAP1 DUP2 SWAP1 SUB SWAP1 SWAP2 ADD SWAP1 LOG1 POP PUSH1 0x1 ADD PUSH2 0x1ED7 JUMP JUMPDEST POP PUSH1 0x6 SLOAD CALLER SWAP1 PUSH2 0x8FC SWAP1 PUSH2 0x1FFF SWAP1 PUSH1 0x1 PUSH1 0x80 SHL SWAP1 DIV PUSH1 0x80 SHL PUSH1 0x1 PUSH1 0x1 PUSH1 0x80 SHL SUB NOT AND PUSH2 0x2F94 JUMP JUMPDEST PUSH1 0x40 MLOAD DUP2 ISZERO SWAP1 SWAP3 MUL SWAP2 PUSH1 0x0 DUP2 DUP2 DUP2 DUP6 DUP9 DUP9 CALL SWAP4 POP POP POP POP ISZERO DUP1 ISZERO PUSH2 0x2027 JUMPI RETURNDATASIZE PUSH1 0x0 DUP1 RETURNDATACOPY RETURNDATASIZE PUSH1 0x0 REVERT JUMPDEST POP PUSH1 0x6 SLOAD PUSH32 0xFD78C019FC844C495D3B73279FA7AC647F1DB81C57A265E4AFE795C0C3FFF191 SWAP1 CALLER SWAP1 PUSH2 0x206C SWAP1 PUSH1 0x1 PUSH1 0x80 SHL SWAP1 DIV PUSH1 0x80 SHL PUSH1 0x1 PUSH1 0x1 PUSH1 0x80 SHL SUB NOT AND PUSH2 0x2F94 JUMP JUMPDEST PUSH1 0x40 DUP1 MLOAD PUSH1 0x1 PUSH1 0x1 PUSH1 0xA0 SHL SUB SWAP1 SWAP4 AND DUP4 MSTORE PUSH1 0x20 DUP4 ADD SWAP2 SWAP1 SWAP2 MSTORE DUP2 DUP2 ADD DUP5 SWAP1 MSTORE MLOAD SWAP1 DUP2 SWAP1 SUB PUSH1 0x60 ADD SWAP1 LOG1 POP JUMP JUMPDEST CALLER PUSH1 0x0 SWAP1 DUP2 MSTORE PUSH1 0x4 PUSH1 0x20 MSTORE PUSH1 0x40 DUP2 KECCAK256 SLOAD PUSH1 0x2 DUP1 SLOAD SWAP1 SWAP2 SWAP1 DUP2 LT PUSH2 0x20B7 JUMPI INVALID JUMPDEST SWAP1 PUSH1 0x0 MSTORE PUSH1 0x20 PUSH1 0x0 KECCAK256 SWAP1 PUSH1 0x2 MUL ADD PUSH1 0x1 ADD SLOAD SWAP1 POP SWAP1 JUMP JUMPDEST PUSH1 0x0 DUP1 DUP1 JUMPDEST PUSH1 0x2 SLOAD DUP2 LT ISZERO PUSH2 0x210A JUMPI PUSH1 0x2 DUP2 DUP2 SLOAD DUP2 LT PUSH2 0x20EA JUMPI INVALID JUMPDEST PUSH1 0x0 SWAP2 DUP3 MSTORE PUSH1 0x20 SWAP1 SWAP2 KECCAK256 PUSH1 0x1 PUSH1 0x2 SWAP1 SWAP3 MUL ADD DUP2 ADD SLOAD SWAP3 SWAP1 SWAP3 ADD SWAP2 ADD PUSH2 0x20D3 JUMP JUMPDEST POP SWAP1 POP SWAP1 JUMP JUMPDEST PUSH1 0x6 SLOAD PUSH1 0x18 SLOAD PUSH1 0x2 DUP1 SLOAD PUSH1 0x0 SWAP4 PUSH2 0x2143 SWAP4 PUSH2 0x94B SWAP4 PUSH1 0x80 SWAP3 DUP4 SHL SWAP4 PUSH2 0x916 SWAP4 SWAP3 SWAP1 SWAP3 SHL SWAP2 PUSH2 0x935 SWAP2 SWAP1 DUP10 SWAP1 DUP2 LT PUSH2 0xBCE JUMPI INVALID JUMPDEST SWAP3 SWAP2 POP POP JUMP JUMPDEST ADDRESS BALANCE SWAP1 JUMP JUMPDEST PUSH1 0x0 DUP1 PUSH2 0x215A DUP4 PUSH2 0x29D5 JUMP JUMPDEST PUSH1 0x1B SLOAD SWAP1 SWAP2 POP PUSH1 0x0 SWAP1 PUSH2 0x2181 SWAP1 PUSH1 0x1 PUSH1 0x1 PUSH1 0x80 SHL SUB NOT DUP5 AND SWAP1 PUSH1 0x80 SHL PUSH4 0xFFFFFFFF PUSH2 0x2A53 AND JUMP JUMPDEST SWAP1 POP PUSH1 0x0 PUSH2 0x2198 PUSH1 0x1 PUSH1 0x1 PUSH1 0x80 SHL SUB NOT DUP4 AND PUSH2 0x344B JUMP JUMPDEST PUSH1 0x16 SLOAD SWAP1 SWAP2 POP PUSH2 0x21B5 SWAP1 PUSH1 0x80 SHL PUSH1 0x1 PUSH1 0x1 PUSH1 0x80 SHL SUB NOT AND DUP3 PUSH2 0x2D1A JUMP JUMPDEST SWAP6 SWAP5 POP POP POP POP POP JUMP JUMPDEST PUSH1 0xF SLOAD DUP2 JUMP JUMPDEST PUSH1 0xA SLOAD PUSH1 0x1 PUSH1 0x1 PUSH1 0xA0 SHL SUB AND SWAP1 JUMP JUMPDEST CALLER PUSH1 0x0 SWAP1 DUP2 MSTORE PUSH1 0x20 DUP2 SWAP1 MSTORE PUSH1 0x40 SWAP1 KECCAK256 SLOAD PUSH1 0xFF AND PUSH1 0x1 EQ DUP1 ISZERO PUSH2 0x2202 JUMPI POP CALLER PUSH1 0x0 SWAP1 DUP2 MSTORE PUSH1 0x4 PUSH1 0x20 MSTORE PUSH1 0x40 SWAP1 KECCAK256 SLOAD ISZERO JUMPDEST DUP1 ISZERO PUSH2 0x221B JUMPI POP CALLER PUSH1 0x0 SWAP1 DUP2 MSTORE PUSH1 0x5 PUSH1 0x20 MSTORE PUSH1 0x40 SWAP1 KECCAK256 SLOAD ISZERO JUMPDEST PUSH2 0x2224 JUMPI PUSH1 0x0 DUP1 REVERT JUMPDEST PUSH1 0x0 PUSH2 0x2247 PUSH1 0x18 PUSH1 0x0 SWAP1 SLOAD SWAP1 PUSH2 0x100 EXP SWAP1 DIV PUSH1 0x80 SHL PUSH2 0x916 PUSH2 0x15DB PUSH1 0xC SLOAD PUSH2 0x29D5 JUMP JUMPDEST SWAP1 POP CALLVALUE PUSH2 0x225D PUSH1 0x1 PUSH1 0x1 PUSH1 0x80 SHL SUB NOT DUP4 AND PUSH2 0x2F94 JUMP JUMPDEST EQ PUSH2 0x2267 JUMPI PUSH1 0x0 DUP1 REVERT JUMPDEST PUSH2 0x226F PUSH2 0x490A JUMP JUMPDEST CALLER DUP1 DUP3 MSTORE CALLVALUE PUSH1 0x20 DUP1 DUP5 ADD SWAP2 DUP3 MSTORE PUSH1 0x2 DUP1 SLOAD PUSH1 0x1 DUP1 DUP3 ADD DUP4 SSTORE PUSH1 0x0 DUP4 DUP2 MSTORE DUP8 MLOAD PUSH32 0x405787FA12A823E0F2B7631CC41B3BA8828B3321CA811111FA75CD3AA3BB5ACE SWAP4 DUP6 MUL SWAP4 DUP5 ADD DUP1 SLOAD PUSH1 0x1 PUSH1 0x1 PUSH1 0xA0 SHL SUB NOT AND PUSH1 0x1 PUSH1 0x1 PUSH1 0xA0 SHL SUB SWAP1 SWAP3 AND SWAP2 SWAP1 SWAP2 OR SWAP1 SSTORE SWAP5 MLOAD PUSH32 0x405787FA12A823E0F2B7631CC41B3BA8828B3321CA811111FA75CD3AA3BB5ACF SWAP1 SWAP3 ADD SWAP2 SWAP1 SWAP2 SSTORE SWAP1 SLOAD SWAP4 DUP4 MSTORE PUSH1 0x4 SWAP1 SWAP2 MSTORE PUSH1 0x40 SWAP1 SWAP2 KECCAK256 SWAP2 SWAP1 SWAP2 SSTORE PUSH1 0x12 DUP1 SLOAD SWAP1 SWAP2 ADD SWAP1 SSTORE PUSH1 0x6 SLOAD PUSH2 0x2332 SWAP1 PUSH1 0x80 SHL PUSH1 0x1 PUSH1 0x1 PUSH1 0x80 SHL SUB NOT AND DUP4 PUSH2 0x302C JUMP JUMPDEST PUSH1 0x6 DUP1 SLOAD PUSH1 0x1 PUSH1 0x1 PUSH1 0x80 SHL SUB NOT AND PUSH1 0x80 SWAP3 SWAP1 SWAP3 SHR SWAP2 SWAP1 SWAP2 OR SWAP1 SSTORE PUSH1 0x12 SLOAD PUSH1 0x40 DUP1 MLOAD CALLER DUP2 MSTORE PUSH1 0x20 DUP2 ADD SWAP3 SWAP1 SWAP3 MSTORE DUP1 MLOAD PUSH32 0xAB7CB3A8958ADC116D7B6403BAC6F328175A93B127AEB312CCFAF25920EEAD1B SWAP3 DUP2 SWAP1 SUB SWAP1 SWAP2 ADD SWAP1 LOG1 POP POP JUMP JUMPDEST PUSH1 0x0 PUSH1 0x20 DUP2 SWAP1 MSTORE SWAP1 DUP2 MSTORE PUSH1 0x40 SWAP1 KECCAK256 SLOAD PUSH1 0xFF AND DUP2 JUMP JUMPDEST CALLER PUSH1 0x0 SWAP1 DUP2 MSTORE PUSH1 0x4 PUSH1 0x20 MSTORE PUSH1 0x40 DUP2 KECCAK256 SLOAD PUSH2 0x23BC JUMPI PUSH1 0x0 DUP1 REVERT JUMPDEST PUSH2 0x23C4 PUSH2 0x27E2 JUMP JUMPDEST CALLER PUSH1 0x0 SWAP1 DUP2 MSTORE PUSH1 0x4 PUSH1 0x20 MSTORE PUSH1 0x40 SWAP1 KECCAK256 SLOAD PUSH1 0x2 DUP1 SLOAD SWAP1 SWAP2 PUSH1 0x0 NOT ADD SWAP1 DUP2 LT PUSH2 0x23E7 JUMPI INVALID JUMPDEST SWAP1 PUSH1 0x0 MSTORE PUSH1 0x20 PUSH1 0x0 KECCAK256 SWAP1 PUSH1 0x2 MUL ADD PUSH1 0x1 ADD SLOAD GT ISZERO PUSH2 0x2407 JUMPI POP PUSH1 0x0 PUSH2 0xA95 JUMP JUMPDEST CALLER PUSH1 0x0 SWAP1 DUP2 MSTORE PUSH1 0x4 PUSH1 0x20 MSTORE PUSH1 0x40 SWAP1 KECCAK256 SLOAD PUSH1 0x2 DUP1 SLOAD SWAP1 SWAP2 PUSH1 0x0 NOT ADD SWAP1 DUP2 LT PUSH2 0x242A JUMPI INVALID JUMPDEST SWAP1 PUSH1 0x0 MSTORE PUSH1 0x20 PUSH1 0x0 KECCAK256 SWAP1 PUSH1 0x2 MUL ADD PUSH1 0x1 ADD SLOAD PUSH2 0x2444 PUSH2 0x27E2 JUMP JUMPDEST SUB SWAP1 POP PUSH2 0xA95 JUMP JUMPDEST CALLER PUSH1 0x0 SWAP1 DUP2 MSTORE PUSH1 0x20 DUP2 SWAP1 MSTORE PUSH1 0x40 SWAP1 KECCAK256 SLOAD PUSH1 0xFF AND PUSH1 0x1 EQ DUP1 ISZERO PUSH2 0x247B JUMPI POP CALLER PUSH1 0x0 SWAP1 DUP2 MSTORE PUSH1 0x4 PUSH1 0x20 MSTORE PUSH1 0x40 SWAP1 KECCAK256 SLOAD ISZERO JUMPDEST DUP1 ISZERO PUSH2 0x2494 JUMPI POP CALLER PUSH1 0x0 SWAP1 DUP2 MSTORE PUSH1 0x5 PUSH1 0x20 MSTORE PUSH1 0x40 SWAP1 KECCAK256 SLOAD ISZERO JUMPDEST PUSH2 0x249D JUMPI PUSH1 0x0 DUP1 REVERT JUMPDEST PUSH1 0x0 PUSH2 0x24CC PUSH1 0x18 PUSH1 0x0 SWAP1 SLOAD SWAP1 PUSH2 0x100 EXP SWAP1 DIV PUSH1 0x80 SHL PUSH2 0x916 PUSH2 0x24C0 PUSH1 0xC SLOAD PUSH2 0x29D5 JUMP JUMPDEST PUSH1 0x3 SLOAD PUSH2 0x935 SWAP1 PUSH2 0x214E JUMP JUMPDEST SWAP1 POP CALLVALUE PUSH2 0x24E2 PUSH1 0x1 PUSH1 0x1 PUSH1 0x80 SHL SUB NOT DUP4 AND PUSH2 0x2F94 JUMP JUMPDEST EQ PUSH2 0x24EC JUMPI PUSH1 0x0 DUP1 REVERT JUMPDEST PUSH2 0x24F4 PUSH2 0x4862 JUMP JUMPDEST PUSH1 0x20 DUP2 DUP2 ADD DUP5 DUP2 MSTORE CALLER DUP4 MSTORE CALLVALUE PUSH1 0x40 DUP5 ADD MSTORE PUSH1 0x3 DUP1 SLOAD PUSH1 0x1 DUP2 ADD DUP1 DUP4 SSTORE PUSH1 0x0 DUP4 SWAP1 MSTORE DUP6 MLOAD PUSH32 0xC2575A0E9E593C00F959F8C92F12DB2869C3395A3B0502D05E2516446F71F85B SWAP3 SWAP1 SWAP4 MUL SWAP2 DUP3 ADD DUP1 SLOAD PUSH1 0x1 PUSH1 0x1 PUSH1 0xA0 SHL SUB NOT AND PUSH1 0x1 PUSH1 0x1 PUSH1 0xA0 SHL SUB SWAP1 SWAP5 AND SWAP4 SWAP1 SWAP4 OR DUP4 SSTORE SWAP3 MLOAD DUP1 MLOAD SWAP4 SWAP5 DUP7 SWAP5 PUSH2 0x2594 SWAP4 PUSH32 0xC2575A0E9E593C00F959F8C92F12DB2869C3395A3B0502D05E2516446F71F85C ADD SWAP3 SWAP1 SWAP2 ADD SWAP1 PUSH2 0x488C JUMP JUMPDEST POP PUSH1 0x40 SWAP2 DUP3 ADD MLOAD PUSH1 0x2 SWAP1 SWAP2 ADD SSTORE PUSH1 0x3 SLOAD CALLER PUSH1 0x0 SWAP1 DUP2 MSTORE PUSH1 0x5 PUSH1 0x20 MSTORE SWAP2 SWAP1 SWAP2 KECCAK256 SSTORE POP PUSH1 0x13 DUP1 SLOAD PUSH1 0x1 ADD SWAP1 SSTORE PUSH1 0x6 SLOAD PUSH2 0x25E6 SWAP1 PUSH1 0x1 PUSH1 0x1 PUSH1 0x80 SHL SUB NOT PUSH1 0x1 PUSH1 0x80 SHL SWAP1 SWAP2 DIV PUSH1 0x80 SHL AND DUP4 PUSH4 0xFFFFFFFF PUSH2 0x302C AND JUMP JUMPDEST PUSH1 0x6 PUSH1 0x10 PUSH2 0x100 EXP DUP2 SLOAD DUP2 PUSH1 0x1 PUSH1 0x1 PUSH1 0x80 SHL SUB MUL NOT AND SWAP1 DUP4 PUSH1 0x80 SHR MUL OR SWAP1 SSTORE POP PUSH32 0xD282903E7ED3F80BFBD1FFE97DE0AFBB49E78DB37C64B641F7797CF79D08E261 CALLER DUP5 PUSH1 0x13 SLOAD PUSH1 0x40 MLOAD DUP1 DUP5 PUSH1 0x1 PUSH1 0x1 PUSH1 0xA0 SHL SUB AND PUSH1 0x1 PUSH1 0x1 PUSH1 0xA0 SHL SUB AND DUP2 MSTORE PUSH1 0x20 ADD DUP1 PUSH1 0x20 ADD DUP4 DUP2 MSTORE PUSH1 0x20 ADD DUP3 DUP2 SUB DUP3 MSTORE DUP5 DUP2 DUP2 MLOAD DUP2 MSTORE PUSH1 0x20 ADD SWAP2 POP DUP1 MLOAD SWAP1 PUSH1 0x20 ADD SWAP1 DUP1 DUP4 DUP4 PUSH1 0x0 JUMPDEST DUP4 DUP2 LT ISZERO PUSH2 0x2687 JUMPI DUP2 DUP2 ADD MLOAD DUP4 DUP3 ADD MSTORE PUSH1 0x20 ADD PUSH2 0x266F JUMP JUMPDEST POP POP POP POP SWAP1 POP SWAP1 DUP2 ADD SWAP1 PUSH1 0x1F AND DUP1 ISZERO PUSH2 0x26B4 JUMPI DUP1 DUP3 SUB DUP1 MLOAD PUSH1 0x1 DUP4 PUSH1 0x20 SUB PUSH2 0x100 EXP SUB NOT AND DUP2 MSTORE PUSH1 0x20 ADD SWAP2 POP JUMPDEST POP SWAP5 POP POP POP POP POP PUSH1 0x40 MLOAD DUP1 SWAP2 SUB SWAP1 LOG1 POP POP POP JUMP JUMPDEST PUSH1 0x7 SLOAD PUSH1 0x1 PUSH1 0x1 PUSH1 0xA0 SHL SUB AND DUP2 JUMP JUMPDEST PUSH1 0xB SLOAD DUP2 JUMP JUMPDEST PUSH1 0x2 DUP2 DUP2 SLOAD DUP2 LT PUSH2 0x26EA JUMPI INVALID JUMPDEST PUSH1 0x0 SWAP2 DUP3 MSTORE PUSH1 0x20 SWAP1 SWAP2 KECCAK256 PUSH1 0x2 SWAP1 SWAP2 MUL ADD DUP1 SLOAD PUSH1 0x1 SWAP1 SWAP2 ADD SLOAD PUSH1 0x1 PUSH1 0x1 PUSH1 0xA0 SHL SUB SWAP1 SWAP2 AND SWAP2 POP DUP3 JUMP JUMPDEST PUSH1 0x3 DUP2 DUP2 SLOAD DUP2 LT PUSH2 0x271F JUMPI INVALID JUMPDEST PUSH1 0x0 SWAP2 DUP3 MSTORE PUSH1 0x20 SWAP2 DUP3 SWAP1 KECCAK256 PUSH1 0x3 SWAP1 SWAP2 MUL ADD DUP1 SLOAD PUSH1 0x1 DUP1 DUP4 ADD DUP1 SLOAD PUSH1 0x40 DUP1 MLOAD PUSH1 0x1F PUSH1 0x2 PUSH1 0x0 NOT SWAP7 DUP6 AND ISZERO PUSH2 0x100 MUL SWAP7 SWAP1 SWAP7 ADD SWAP1 SWAP4 AND SWAP5 SWAP1 SWAP5 DIV SWAP2 DUP3 ADD DUP8 SWAP1 DIV DUP8 MUL DUP5 ADD DUP8 ADD SWAP1 MSTORE DUP1 DUP4 MSTORE PUSH1 0x1 PUSH1 0x1 PUSH1 0xA0 SHL SUB SWAP1 SWAP4 AND SWAP6 POP SWAP3 SWAP4 SWAP1 SWAP3 SWAP2 SWAP1 DUP4 ADD DUP3 DUP3 DUP1 ISZERO PUSH2 0x27CC JUMPI DUP1 PUSH1 0x1F LT PUSH2 0x27A1 JUMPI PUSH2 0x100 DUP1 DUP4 SLOAD DIV MUL DUP4 MSTORE SWAP2 PUSH1 0x20 ADD SWAP2 PUSH2 0x27CC JUMP JUMPDEST DUP3 ADD SWAP2 SWAP1 PUSH1 0x0 MSTORE PUSH1 0x20 PUSH1 0x0 KECCAK256 SWAP1 JUMPDEST DUP2 SLOAD DUP2 MSTORE SWAP1 PUSH1 0x1 ADD SWAP1 PUSH1 0x20 ADD DUP1 DUP4 GT PUSH2 0x27AF JUMPI DUP3 SWAP1 SUB PUSH1 0x1F AND DUP3 ADD SWAP2 JUMPDEST POP POP POP POP POP SWAP1 DUP1 PUSH1 0x2 ADD SLOAD SWAP1 POP DUP4 JUMP JUMPDEST PUSH1 0x13 SLOAD DUP2 JUMP JUMPDEST PUSH1 0x18 SLOAD PUSH1 0xC SLOAD PUSH1 0x0 SWAP2 PUSH2 0x15E7 SWAP2 PUSH2 0x94B SWAP2 PUSH1 0x80 SHL SWAP1 PUSH2 0x916 SWAP1 PUSH2 0x24C0 SWAP1 PUSH2 0x29D5 JUMP JUMPDEST PUSH2 0x280C PUSH2 0x4862 JUMP JUMPDEST PUSH1 0x3 DUP1 SLOAD PUSH1 0x1 DUP2 ADD DUP1 DUP4 SSTORE PUSH1 0x0 DUP4 SWAP1 MSTORE DUP4 MLOAD SWAP2 SWAP1 SWAP3 MUL PUSH32 0xC2575A0E9E593C00F959F8C92F12DB2869C3395A3B0502D05E2516446F71F85B DUP2 ADD DUP1 SLOAD PUSH1 0x1 PUSH1 0x1 PUSH1 0xA0 SHL SUB SWAP1 SWAP4 AND PUSH1 0x1 PUSH1 0x1 PUSH1 0xA0 SHL SUB NOT SWAP1 SWAP4 AND SWAP3 SWAP1 SWAP3 OR DUP3 SSTORE PUSH1 0x20 DUP1 DUP6 ADD MLOAD DUP1 MLOAD DUP7 SWAP5 SWAP4 PUSH2 0x289F SWAP4 PUSH32 0xC2575A0E9E593C00F959F8C92F12DB2869C3395A3B0502D05E2516446F71F85C SWAP1 SWAP2 ADD SWAP3 ADD SWAP1 PUSH2 0x488C JUMP JUMPDEST POP PUSH1 0x40 DUP3 ADD MLOAD DUP2 PUSH1 0x2 ADD SSTORE POP POP POP POP JUMP JUMPDEST PUSH1 0x14 SLOAD DUP2 JUMP JUMPDEST PUSH1 0x6 SLOAD PUSH1 0x0 SWAP1 PUSH2 0x15E7 SWAP1 PUSH1 0x80 SHL PUSH1 0x1 PUSH1 0x1 PUSH1 0x80 SHL SUB NOT AND PUSH2 0x2F94 JUMP JUMPDEST PUSH1 0x0 DUP1 PUSH1 0x1 SWAP1 POP DUP1 PUSH1 0x12 SLOAD GT ISZERO PUSH2 0x28E8 JUMPI POP PUSH1 0x12 SLOAD JUMPDEST PUSH1 0x13 SLOAD PUSH1 0x1 SWAP1 DUP2 LT ISZERO PUSH2 0x28FA JUMPI POP PUSH1 0x13 SLOAD JUMPDEST PUSH1 0x2 DUP2 DUP4 DUP2 PUSH2 0x2905 JUMPI INVALID JUMPDEST DIV LT PUSH2 0x2916 JUMPI PUSH1 0x1 SWAP3 POP POP POP PUSH2 0xA95 JUMP JUMPDEST PUSH1 0x2 DUP3 DUP3 DUP2 PUSH2 0x2921 JUMPI INVALID JUMPDEST DIV LT PUSH2 0x2933 JUMPI PUSH1 0x0 NOT SWAP3 POP POP POP PUSH2 0xA95 JUMP JUMPDEST PUSH1 0x0 SWAP3 POP POP POP PUSH2 0xA95 JUMP JUMPDEST PUSH1 0x6 SLOAD PUSH2 0x295E SWAP1 PUSH1 0x1 PUSH1 0x80 SHL SWAP1 DIV PUSH1 0x80 SHL PUSH1 0x1 PUSH1 0x1 PUSH1 0x80 SHL SUB NOT AND PUSH2 0x2F94 JUMP JUMPDEST CALLVALUE EQ DUP1 ISZERO PUSH2 0x2976 JUMPI POP PUSH1 0xA SLOAD PUSH1 0x1 PUSH1 0x1 PUSH1 0xA0 SHL SUB AND CALLER EQ JUMPDEST PUSH2 0x297F JUMPI PUSH1 0x0 DUP1 REVERT JUMPDEST PUSH1 0x1D DUP1 SLOAD PUSH18 0xFF0000000000000000000000000000000000 NOT AND PUSH1 0x1 PUSH1 0x88 SHL OR SWAP1 SSTORE PUSH1 0x40 DUP1 MLOAD CALLER DUP2 MSTORE SWAP1 MLOAD PUSH32 0xEB42BCEA8BA7F51475D0353EF5379D88C3B94A4F3007DF54A2449FDFE94CF3F6 SWAP2 DUP2 SWAP1 SUB PUSH1 0x20 ADD SWAP1 LOG1 JUMP JUMPDEST PUSH1 0x0 DUP2 PUSH2 0x29E4 JUMPI POP PUSH1 0x0 PUSH2 0x15B4 JUMP JUMPDEST DUP2 PUSH1 0x0 PUSH2 0x29F0 DUP3 PUSH2 0x347F JUMP JUMPDEST SWAP1 POP PUSH1 0x70 DUP2 LT ISZERO PUSH2 0x2A09 JUMPI DUP1 PUSH1 0x70 SUB DUP3 SWAP1 SHL SWAP2 POP PUSH2 0x2A1C JUMP JUMPDEST PUSH1 0x70 DUP2 GT ISZERO PUSH2 0x2A1C JUMPI PUSH1 0x70 DUP2 SUB DUP3 SWAP1 SHR SWAP2 POP JUMPDEST PUSH2 0x3FFF ADD PUSH1 0x70 SHL PUSH1 0x1 PUSH1 0x1 PUSH1 0x70 SHL SUB SWAP2 SWAP1 SWAP2 AND OR PUSH1 0x80 SHL SWAP1 POP PUSH2 0x15B4 JUMP JUMPDEST PUSH1 0x0 PUSH2 0x2A4C DUP4 PUSH1 0x1 PUSH1 0xFF SHL DUP5 XOR PUSH2 0x302C JUMP JUMPDEST SWAP4 SWAP3 POP POP POP JUMP JUMPDEST PUSH1 0x0 PUSH2 0x7FFF PUSH1 0x1 PUSH1 0x1 PUSH1 0x80 SHL SUB PUSH1 0x80 DUP6 DUP2 SHR DUP3 AND PUSH1 0x70 SWAP1 DUP2 SHR DUP5 AND SWAP4 SWAP2 DUP7 SWAP1 SHR SWAP1 SWAP3 AND SWAP1 SWAP2 SHR DUP2 AND SWAP1 DUP3 EQ ISZERO PUSH2 0x2AB1 JUMPI DUP1 PUSH2 0x7FFF EQ ISZERO PUSH2 0x2AA0 JUMPI POP PUSH1 0x1 PUSH1 0xEF SHL PUSH2 0xFFFF MUL SWAP2 POP PUSH2 0x2143 SWAP1 POP JUMP JUMPDEST POP POP POP PUSH1 0x1 PUSH1 0xFF SHL DUP2 AND DUP3 XOR PUSH2 0x2143 JUMP JUMPDEST DUP1 PUSH2 0x7FFF EQ ISZERO PUSH2 0x2AF1 JUMPI PUSH1 0x1 PUSH1 0x80 SHL PUSH1 0x1 PUSH1 0xF0 SHL SUB DUP5 AND ISZERO PUSH2 0x2AE0 JUMPI POP PUSH1 0x1 PUSH1 0xEF SHL PUSH2 0xFFFF MUL SWAP2 POP PUSH2 0x2143 SWAP1 POP JUMP JUMPDEST POP POP POP DUP1 DUP3 XOR PUSH1 0x1 PUSH1 0xFF SHL AND PUSH2 0x2143 JUMP JUMPDEST PUSH1 0x1 PUSH1 0x80 SHL PUSH1 0x1 PUSH1 0xFF SHL SUB DUP5 AND PUSH2 0x2B41 JUMPI PUSH1 0x1 PUSH1 0x80 SHL PUSH1 0x1 PUSH1 0xFF SHL SUB DUP6 AND PUSH2 0x2B26 JUMPI POP PUSH1 0x1 PUSH1 0xEF SHL PUSH2 0xFFFF MUL SWAP2 POP PUSH2 0x2143 SWAP1 POP JUMP JUMPDEST POP POP POP DUP1 DUP3 XOR PUSH1 0x1 PUSH1 0xFF SHL AND PUSH1 0x1 PUSH1 0xF0 SHL PUSH2 0x7FFF MUL OR PUSH2 0x2143 JUMP JUMPDEST PUSH1 0x1 PUSH1 0x1 PUSH1 0x70 SHL SUB PUSH1 0x80 DUP6 SWAP1 SHR AND DUP2 PUSH2 0x2B5D JUMPI PUSH1 0x1 SWAP2 POP PUSH2 0x2B64 JUMP JUMPDEST PUSH1 0x1 PUSH1 0x70 SHL OR JUMPDEST PUSH1 0x1 PUSH1 0x1 PUSH1 0x70 SHL SUB PUSH1 0x80 DUP8 SWAP1 SHR AND DUP4 PUSH2 0x2BA3 JUMPI DUP1 ISZERO PUSH2 0x2B9E JUMPI PUSH1 0x0 PUSH2 0x2B88 DUP3 PUSH2 0x347F JUMP JUMPDEST PUSH1 0x1 SWAP6 POP PUSH1 0xE2 SUB SWAP4 DUP5 ADD PUSH1 0x71 NOT ADD SWAP4 SWAP2 SWAP1 SWAP2 SHL SWAP1 POP JUMPDEST PUSH2 0x2BAD JUMP JUMPDEST PUSH1 0x1 PUSH1 0x70 SHL OR PUSH1 0x72 SHL JUMPDEST DUP2 DUP2 DUP2 PUSH2 0x2BB6 JUMPI INVALID JUMPDEST DIV SWAP1 POP DUP1 PUSH2 0x2BE3 JUMPI PUSH1 0x1 PUSH1 0xFF SHL DUP8 DUP8 XOR AND PUSH2 0x2BD2 JUMPI PUSH1 0x0 PUSH2 0x2BD8 JUMP JUMPDEST PUSH1 0x1 PUSH1 0xFF SHL JUMPDEST SWAP5 POP POP POP POP POP PUSH2 0x2143 JUMP JUMPDEST PUSH1 0x1 PUSH1 0x6C SHL DUP2 LT ISZERO PUSH2 0x2BF1 JUMPI INVALID JUMPDEST PUSH1 0x0 PUSH1 0x1 PUSH1 0x73 SHL DUP3 LT ISZERO PUSH2 0x2C31 JUMPI PUSH1 0x1 PUSH1 0x72 SHL DUP3 LT ISZERO PUSH2 0x2C26 JUMPI PUSH1 0x1 PUSH1 0x71 SHL DUP3 LT ISZERO PUSH2 0x2C1E JUMPI PUSH1 0x70 PUSH2 0x2C21 JUMP JUMPDEST PUSH1 0x71 JUMPDEST PUSH2 0x2C29 JUMP JUMPDEST PUSH1 0x72 JUMPDEST PUSH1 0xFF AND PUSH2 0x2C3A JUMP JUMPDEST PUSH2 0x2C3A DUP3 PUSH2 0x347F JUMP JUMPDEST SWAP1 POP DUP4 PUSH2 0x4071 ADD DUP2 DUP7 ADD GT ISZERO PUSH2 0x2C58 JUMPI PUSH2 0x7FFF SWAP5 POP PUSH1 0x0 SWAP2 POP PUSH2 0x2CEB JUMP JUMPDEST DUP4 DUP2 DUP7 ADD PUSH2 0x3FFC ADD LT ISZERO PUSH2 0x2C73 JUMPI PUSH1 0x0 SWAP5 POP PUSH1 0x0 SWAP2 POP PUSH2 0x2CEB JUMP JUMPDEST DUP4 DUP2 DUP7 ADD PUSH2 0x3F8C ADD LT ISZERO PUSH2 0x2CC0 JUMPI DUP4 DUP6 PUSH2 0x3FFC ADD GT ISZERO PUSH2 0x2C9E JUMPI DUP4 DUP6 PUSH2 0x3FFC ADD SUB DUP3 SWAP1 SHL SWAP2 POP PUSH2 0x2CB7 JUMP JUMPDEST DUP4 DUP6 PUSH2 0x3FFC ADD LT ISZERO PUSH2 0x2CB7 JUMPI PUSH2 0x3FFC DUP6 DUP6 SUB SUB DUP3 SWAP1 SHR SWAP2 POP JUMPDEST PUSH1 0x0 SWAP5 POP PUSH2 0x2CEB JUMP JUMPDEST PUSH1 0x70 DUP2 GT ISZERO PUSH2 0x2CD3 JUMPI PUSH1 0x70 DUP2 SUB DUP3 SWAP1 SHR SWAP2 POP JUMPDEST PUSH1 0x1 PUSH1 0x1 PUSH1 0x70 SHL SUB DUP3 AND SWAP2 POP DUP4 DUP2 DUP7 ADD PUSH2 0x3F8D ADD SUB SWAP5 POP JUMPDEST DUP2 PUSH1 0x70 DUP7 SWAP1 SHL DUP9 DUP11 XOR PUSH1 0x1 PUSH1 0x7F SHL PUSH1 0x80 SHL AND PUSH1 0x80 SHR PUSH1 0x1 PUSH1 0x1 PUSH1 0x80 SHL SUB AND OR OR PUSH1 0x80 SHL SWAP6 POP POP POP POP POP POP PUSH2 0x2143 JUMP JUMPDEST PUSH1 0x0 PUSH2 0x7FFF PUSH1 0x1 PUSH1 0x1 PUSH1 0x80 SHL SUB PUSH1 0x80 DUP6 DUP2 SHR DUP3 AND PUSH1 0x70 SWAP1 DUP2 SHR DUP5 AND SWAP4 SWAP2 DUP7 SWAP1 SHR SWAP1 SWAP3 AND SWAP1 SWAP2 SHR DUP2 AND SWAP1 DUP3 EQ ISZERO PUSH2 0x2DD4 JUMPI DUP1 PUSH2 0x7FFF EQ ISZERO PUSH2 0x2DB0 JUMPI PUSH1 0x1 PUSH1 0x1 PUSH1 0x80 SHL SUB NOT DUP6 DUP2 AND SWAP1 DUP6 AND EQ ISZERO PUSH2 0x2D7A JUMPI POP POP POP PUSH1 0x1 PUSH1 0xFF SHL DUP2 AND DUP3 XOR PUSH2 0x2143 JUMP JUMPDEST PUSH1 0x1 PUSH1 0xFF SHL PUSH1 0x1 PUSH1 0x1 PUSH1 0x80 SHL SUB NOT DUP7 DUP7 XOR AND EQ ISZERO PUSH2 0x2D9D JUMPI POP POP POP DUP2 DUP2 OR PUSH2 0x2143 JUMP JUMPDEST POP PUSH1 0x1 PUSH1 0xEF SHL PUSH2 0xFFFF MUL SWAP2 POP PUSH2 0x2143 SWAP1 POP JUMP JUMPDEST PUSH1 0x1 PUSH1 0x80 SHL PUSH1 0x1 PUSH1 0xFF SHL SUB DUP5 AND PUSH2 0x2AA0 JUMPI POP PUSH1 0x1 PUSH1 0xEF SHL PUSH2 0xFFFF MUL SWAP2 POP PUSH2 0x2143 SWAP1 POP JUMP JUMPDEST DUP1 PUSH2 0x7FFF EQ ISZERO PUSH2 0x2E13 JUMPI PUSH1 0x1 PUSH1 0x80 SHL PUSH1 0x1 PUSH1 0xFF SHL SUB DUP6 AND PUSH2 0x2E02 JUMPI POP PUSH1 0x1 PUSH1 0xEF SHL PUSH2 0xFFFF MUL SWAP2 POP PUSH2 0x2143 SWAP1 POP JUMP JUMPDEST POP POP POP PUSH1 0x1 PUSH1 0xFF SHL DUP3 AND DUP2 XOR PUSH2 0x2143 JUMP JUMPDEST PUSH1 0x1 PUSH1 0x1 PUSH1 0x70 SHL SUB PUSH1 0x80 DUP7 SWAP1 SHR AND DUP3 PUSH2 0x2E2F JUMPI PUSH1 0x1 SWAP3 POP PUSH2 0x2E36 JUMP JUMPDEST PUSH1 0x1 PUSH1 0x70 SHL OR JUMPDEST PUSH1 0x1 PUSH1 0x1 PUSH1 0x70 SHL SUB PUSH1 0x80 DUP7 SWAP1 SHR AND DUP3 PUSH2 0x2E52 JUMPI PUSH1 0x1 SWAP3 POP PUSH2 0x2E59 JUMP JUMPDEST PUSH1 0x1 PUSH1 0x70 SHL OR JUMPDEST SWAP1 DUP2 MUL SWAP1 DUP2 PUSH2 0x2E76 JUMPI PUSH1 0x1 PUSH1 0xFF SHL DUP8 DUP8 XOR AND PUSH2 0x2BD2 JUMPI PUSH1 0x0 PUSH2 0x2BD8 JUMP JUMPDEST SWAP3 DUP3 ADD SWAP3 PUSH1 0x0 PUSH1 0x1 PUSH1 0xE1 SHL DUP4 LT ISZERO PUSH2 0x2EAA JUMPI PUSH1 0x1 PUSH1 0xE0 SHL DUP4 LT ISZERO PUSH2 0x2EA2 JUMPI PUSH2 0x2E9D DUP4 PUSH2 0x347F JUMP JUMPDEST PUSH2 0x2EA5 JUMP JUMPDEST PUSH1 0xE0 JUMPDEST PUSH2 0x2EAD JUMP JUMPDEST PUSH1 0xE1 JUMPDEST SWAP1 POP PUSH2 0x4070 DUP2 DUP7 ADD LT ISZERO PUSH2 0x2EC8 JUMPI PUSH1 0x0 SWAP5 POP PUSH1 0x0 SWAP3 POP PUSH2 0x2F65 JUMP JUMPDEST PUSH2 0x40E0 DUP2 DUP7 ADD LT ISZERO PUSH2 0x2F0B JUMPI PUSH2 0x4070 DUP6 LT ISZERO PUSH2 0x2EED JUMPI DUP5 PUSH2 0x4070 SUB DUP4 SWAP1 SHR SWAP3 POP PUSH2 0x2F02 JUMP JUMPDEST PUSH2 0x4070 DUP6 GT ISZERO PUSH2 0x2F02 JUMPI PUSH2 0x4070 DUP6 SUB DUP4 SWAP1 SHL SWAP3 POP JUMPDEST PUSH1 0x0 SWAP5 POP PUSH2 0x2F65 JUMP JUMPDEST PUSH2 0xC0DD DUP2 DUP7 ADD GT ISZERO PUSH2 0x2F25 JUMPI PUSH2 0x7FFF SWAP5 POP PUSH1 0x0 SWAP3 POP PUSH2 0x2F65 JUMP JUMPDEST PUSH1 0x70 DUP2 GT ISZERO PUSH2 0x2F3C JUMPI PUSH1 0x70 DUP2 SUB DUP4 SWAP1 SHR SWAP3 POP PUSH2 0x2F4F JUMP JUMPDEST PUSH1 0x70 DUP2 LT ISZERO PUSH2 0x2F4F JUMPI DUP1 PUSH1 0x70 SUB DUP4 SWAP1 SHL SWAP3 POP JUMPDEST PUSH1 0x1 PUSH1 0x1 PUSH1 0x70 SHL SUB DUP4 AND SWAP3 POP PUSH2 0x40DF DUP2 DUP7 ADD SUB SWAP5 POP JUMPDEST DUP3 PUSH1 0x70 DUP7 SWAP1 SHL DUP9 DUP11 XOR PUSH1 0x1 PUSH1 0x7F SHL PUSH1 0x80 SHL AND PUSH1 0x80 SHR PUSH1 0x1 PUSH1 0x1 PUSH1 0x80 SHL SUB AND OR OR PUSH1 0x80 SHL SWAP6 POP POP POP POP POP POP PUSH2 0x2143 JUMP JUMPDEST PUSH1 0x0 PUSH2 0x7FFF PUSH1 0x1 PUSH1 0x1 PUSH1 0x80 SHL SUB PUSH1 0x80 DUP5 SWAP1 SHR AND PUSH1 0x70 SHR AND PUSH2 0x3FFF DUP2 LT ISZERO PUSH2 0x2FBF JUMPI PUSH1 0x0 SWAP2 POP POP PUSH2 0x15B4 JUMP JUMPDEST PUSH1 0x1 PUSH1 0x7F SHL DUP4 PUSH1 0x80 SHR PUSH1 0x1 PUSH1 0x1 PUSH1 0x80 SHL SUB AND LT PUSH2 0x2FDB JUMPI PUSH1 0x0 DUP1 REVERT JUMPDEST PUSH2 0x40FE DUP2 GT ISZERO PUSH2 0x2FEA JUMPI PUSH1 0x0 DUP1 REVERT JUMPDEST PUSH1 0x1 PUSH1 0x70 SHL PUSH1 0x1 PUSH1 0x1 PUSH1 0x70 SHL SUB PUSH1 0x80 DUP6 SWAP1 SHR AND OR PUSH2 0x406F DUP3 LT ISZERO PUSH2 0x3014 JUMPI PUSH2 0x406F DUP3 SWAP1 SUB SHR PUSH2 0x2A4C JUMP JUMPDEST PUSH2 0x406F DUP3 GT ISZERO PUSH2 0x2A4C JUMPI PUSH2 0x406E NOT DUP3 ADD SHL SWAP4 SWAP3 POP POP POP JUMP JUMPDEST PUSH1 0x0 PUSH2 0x7FFF PUSH1 0x1 PUSH1 0x1 PUSH1 0x80 SHL SUB PUSH1 0x80 DUP6 DUP2 SHR DUP3 AND PUSH1 0x70 SWAP1 DUP2 SHR DUP5 AND SWAP4 SWAP2 DUP7 SWAP1 SHR SWAP1 SWAP3 AND SWAP1 SWAP2 SHR DUP2 AND SWAP1 DUP3 EQ ISZERO PUSH2 0x308F JUMPI DUP1 PUSH2 0x7FFF EQ ISZERO PUSH2 0x3085 JUMPI PUSH1 0x1 PUSH1 0x1 PUSH1 0x80 SHL SUB NOT DUP6 DUP2 AND SWAP1 DUP6 AND EQ ISZERO PUSH2 0x2D9D JUMPI DUP5 SWAP3 POP POP POP PUSH2 0x2143 JUMP JUMPDEST DUP5 SWAP3 POP POP POP PUSH2 0x2143 JUMP JUMPDEST DUP1 PUSH2 0x7FFF EQ ISZERO PUSH2 0x30A3 JUMPI DUP4 SWAP3 POP POP POP PUSH2 0x2143 JUMP JUMPDEST PUSH1 0x1 PUSH1 0x7F SHL PUSH1 0x80 DUP7 SWAP1 SHR PUSH1 0x1 PUSH1 0x1 PUSH1 0x80 SHL SUB DUP2 AND SWAP2 SWAP1 SWAP2 LT ISZERO SWAP1 PUSH1 0x1 PUSH1 0x1 PUSH1 0x70 SHL SUB AND DUP4 PUSH2 0x30D4 JUMPI PUSH1 0x1 SWAP4 POP PUSH2 0x30DB JUMP JUMPDEST PUSH1 0x1 PUSH1 0x70 SHL OR JUMPDEST PUSH1 0x1 PUSH1 0x7F SHL PUSH1 0x80 DUP8 SWAP1 SHR PUSH1 0x1 PUSH1 0x1 PUSH1 0x80 SHL SUB DUP2 AND SWAP2 SWAP1 SWAP2 LT ISZERO SWAP1 PUSH1 0x1 PUSH1 0x1 PUSH1 0x70 SHL SUB AND DUP5 PUSH2 0x310C JUMPI PUSH1 0x1 SWAP5 POP PUSH2 0x3113 JUMP JUMPDEST PUSH1 0x1 PUSH1 0x70 SHL OR JUMPDEST DUP3 PUSH2 0x3143 JUMPI PUSH1 0x1 PUSH1 0x1 PUSH1 0x80 SHL SUB NOT DUP9 AND PUSH1 0x1 PUSH1 0xFF SHL EQ PUSH2 0x3133 JUMPI DUP8 PUSH2 0x3136 JUMP JUMPDEST PUSH1 0x0 JUMPDEST SWAP7 POP POP POP POP POP POP POP PUSH2 0x2143 JUMP JUMPDEST DUP1 PUSH2 0x3163 JUMPI PUSH1 0x1 PUSH1 0x1 PUSH1 0x80 SHL SUB NOT DUP10 AND PUSH1 0x1 PUSH1 0xFF SHL EQ PUSH2 0x3133 JUMPI DUP9 PUSH2 0x3136 JUMP JUMPDEST DUP5 DUP7 SUB DUP5 ISZERO ISZERO DUP4 ISZERO ISZERO EQ ISZERO PUSH2 0x3289 JUMPI PUSH1 0x70 DUP2 SGT ISZERO PUSH2 0x318A JUMPI DUP10 SWAP8 POP POP POP POP POP POP POP POP PUSH2 0x2143 JUMP JUMPDEST PUSH1 0x0 DUP2 SGT ISZERO PUSH2 0x31A9 JUMPI DUP1 DUP3 PUSH1 0x0 DUP3 SLT ISZERO PUSH2 0x31A0 JUMPI INVALID JUMPDEST SWAP1 SHR SWAP2 POP PUSH2 0x31E3 JUMP JUMPDEST PUSH1 0x6F NOT DUP2 SLT ISZERO PUSH2 0x31C2 JUMPI DUP9 SWAP8 POP POP POP POP POP POP POP POP PUSH2 0x2143 JUMP JUMPDEST PUSH1 0x0 DUP2 SLT ISZERO PUSH2 0x31E3 JUMPI DUP1 PUSH1 0x0 SUB DUP5 PUSH1 0x0 DUP3 SLT ISZERO PUSH2 0x31DB JUMPI INVALID JUMPDEST SWAP1 SHR SWAP4 POP DUP6 SWAP7 POP JUMPDEST SWAP3 DUP2 ADD SWAP3 PUSH1 0x1 PUSH1 0x71 SHL DUP5 LT PUSH2 0x31FE JUMPI PUSH1 0x1 SWAP7 DUP8 ADD SWAP7 SWAP4 SWAP1 SWAP4 SHR SWAP3 JUMPDEST DUP7 PUSH2 0x7FFF EQ ISZERO PUSH2 0x3233 JUMPI DUP5 PUSH2 0x321B JUMPI PUSH1 0x1 PUSH1 0xF0 SHL PUSH2 0x7FFF MUL PUSH2 0x3225 JUMP JUMPDEST PUSH1 0x1 PUSH1 0x1 PUSH1 0xF0 SHL SUB NOT JUMPDEST SWAP8 POP POP POP POP POP POP POP POP PUSH2 0x2143 JUMP JUMPDEST PUSH1 0x1 PUSH1 0x70 SHL DUP5 LT ISZERO PUSH2 0x3248 JUMPI PUSH1 0x0 SWAP7 POP PUSH2 0x3255 JUMP JUMPDEST PUSH1 0x1 PUSH1 0x1 PUSH1 0x70 SHL SUB DUP5 AND SWAP4 POP JUMPDEST DUP4 PUSH1 0x70 DUP9 SWAP1 SHL DUP7 PUSH2 0x3267 JUMPI PUSH1 0x0 PUSH2 0x326D JUMP JUMPDEST PUSH1 0x1 PUSH1 0x7F SHL JUMPDEST PUSH1 0x1 PUSH1 0x1 PUSH1 0x80 SHL SUB AND OR OR PUSH1 0x80 SHL SWAP8 POP POP POP POP POP POP POP POP PUSH2 0x2143 JUMP JUMPDEST PUSH1 0x0 DUP2 SGT ISZERO PUSH2 0x32A4 JUMPI PUSH1 0x1 DUP5 SWAP1 SHL SWAP4 POP PUSH1 0x1 DUP8 SUB SWAP7 POP PUSH2 0x32BB JUMP JUMPDEST PUSH1 0x0 DUP2 SLT ISZERO PUSH2 0x32BB JUMPI PUSH1 0x1 DUP3 SWAP1 SHL SWAP2 POP PUSH1 0x1 DUP7 SUB SWAP7 POP JUMPDEST PUSH1 0x70 DUP2 SGT ISZERO PUSH2 0x32CD JUMPI PUSH1 0x1 SWAP2 POP PUSH2 0x3330 JUMP JUMPDEST PUSH1 0x1 DUP2 SGT ISZERO PUSH2 0x32F5 JUMPI PUSH1 0x1 DUP2 SUB PUSH1 0x1 DUP4 SUB PUSH1 0x0 DUP3 SLT ISZERO PUSH2 0x32E9 JUMPI INVALID JUMPDEST SWAP1 SHR PUSH1 0x1 ADD SWAP2 POP PUSH2 0x3330 JUMP JUMPDEST PUSH1 0x6F NOT DUP2 SLT ISZERO PUSH2 0x3308 JUMPI PUSH1 0x1 SWAP4 POP PUSH2 0x3330 JUMP JUMPDEST PUSH1 0x0 NOT DUP2 SLT ISZERO PUSH2 0x3330 JUMPI PUSH1 0x1 DUP2 PUSH1 0x0 SUB SUB PUSH1 0x1 DUP6 SUB PUSH1 0x0 DUP3 SLT ISZERO PUSH2 0x3328 JUMPI INVALID JUMPDEST SWAP1 SHR PUSH1 0x1 ADD SWAP4 POP JUMPDEST DUP2 DUP5 LT PUSH2 0x3341 JUMPI DUP2 DUP5 SUB SWAP4 POP PUSH2 0x334A JUMP JUMPDEST DUP4 DUP3 SUB SWAP4 POP DUP3 SWAP5 POP JUMPDEST DUP4 PUSH2 0x3360 JUMPI POP PUSH1 0x0 SWAP7 POP PUSH2 0x2143 SWAP6 POP POP POP POP POP POP JUMP JUMPDEST PUSH1 0x0 PUSH2 0x336B DUP6 PUSH2 0x347F JUMP JUMPDEST SWAP1 POP DUP1 PUSH1 0x71 EQ ISZERO PUSH2 0x3391 JUMPI PUSH1 0x1 DUP6 SWAP1 SHR PUSH1 0x1 PUSH1 0x1 PUSH1 0x70 SHL SUB AND SWAP5 POP PUSH1 0x1 DUP9 ADD SWAP8 POP PUSH2 0x33E0 JUMP JUMPDEST PUSH1 0x70 DUP2 LT ISZERO PUSH2 0x33D3 JUMPI PUSH1 0x70 DUP2 SWAP1 SUB DUP1 DUP10 GT ISZERO PUSH2 0x33C0 JUMPI DUP1 DUP7 SWAP1 SHL PUSH1 0x1 PUSH1 0x1 PUSH1 0x70 SHL SUB AND SWAP6 POP DUP1 DUP10 SUB SWAP9 POP PUSH2 0x33CD JUMP JUMPDEST PUSH1 0x0 SWAP9 PUSH1 0x0 NOT ADD SWAP6 SWAP1 SWAP6 SHL SWAP5 JUMPDEST POP PUSH2 0x33E0 JUMP JUMPDEST PUSH1 0x1 PUSH1 0x1 PUSH1 0x70 SHL SUB DUP6 AND SWAP5 POP JUMPDEST DUP8 PUSH2 0x7FFF EQ ISZERO PUSH2 0x3416 JUMPI DUP6 PUSH2 0x33FD JUMPI PUSH1 0x1 PUSH1 0xF0 SHL PUSH2 0x7FFF MUL PUSH2 0x3407 JUMP JUMPDEST PUSH1 0x1 PUSH1 0x1 PUSH1 0xF0 SHL SUB NOT JUMPDEST SWAP9 POP POP POP POP POP POP POP POP POP PUSH2 0x2143 JUMP JUMPDEST DUP5 PUSH1 0x70 DUP10 SWAP1 SHL DUP8 PUSH2 0x3428 JUMPI PUSH1 0x0 PUSH2 0x342E JUMP JUMPDEST PUSH1 0x1 PUSH1 0x7F SHL JUMPDEST PUSH1 0x1 PUSH1 0x1 PUSH1 0x80 SHL SUB AND OR OR PUSH1 0x80 SHL SWAP9 POP POP POP POP POP POP POP POP POP PUSH2 0x2143 JUMP JUMPDEST PUSH1 0x0 PUSH2 0x2143 PUSH2 0x347A DUP4 PUSH32 0x3FFF71547652B82FE1777D0FFDA0D23A00000000000000000000000000000000 PUSH2 0x2D1A JUMP JUMPDEST PUSH2 0x34DD JUMP JUMPDEST PUSH1 0x0 DUP1 DUP3 GT PUSH2 0x348D JUMPI PUSH1 0x0 DUP1 REVERT JUMPDEST PUSH1 0x0 PUSH1 0xFF JUMPDEST DUP1 DUP3 LT ISZERO PUSH2 0x34D6 JUMPI DUP2 DUP2 ADD PUSH1 0x1 SHR DUP5 DUP2 SHR DUP1 PUSH2 0x34B3 JUMPI PUSH1 0x1 DUP3 SUB SWAP3 POP PUSH2 0x34CF JUMP JUMPDEST PUSH1 0x1 DUP2 GT ISZERO PUSH2 0x34C7 JUMPI DUP2 PUSH1 0x1 ADD SWAP4 POP PUSH2 0x34CF JUMP JUMPDEST POP SWAP2 POP PUSH2 0x34D6 JUMP JUMPDEST POP POP PUSH2 0x3492 JUMP JUMPDEST POP SWAP3 SWAP2 POP POP JUMP JUMPDEST PUSH1 0x0 PUSH1 0x1 PUSH1 0x7F SHL PUSH1 0x80 DUP4 SWAP1 SHR PUSH1 0x1 PUSH1 0x1 PUSH1 0x80 SHL SUB DUP2 AND SWAP2 DUP3 GT SWAP2 PUSH1 0x70 SHR PUSH2 0x7FFF SWAP1 DUP2 AND SWAP2 PUSH1 0x1 PUSH1 0x1 PUSH1 0x70 SHL SUB AND SWAP1 DUP3 EQ DUP1 ISZERO PUSH2 0x3518 JUMPI POP DUP1 ISZERO ISZERO JUMPDEST ISZERO PUSH2 0x3531 JUMPI POP PUSH1 0x1 PUSH1 0xEF SHL PUSH2 0xFFFF MUL SWAP3 POP PUSH2 0x15B4 SWAP2 POP POP JUMP JUMPDEST PUSH2 0x400D DUP3 GT ISZERO PUSH2 0x355B JUMPI DUP3 PUSH2 0x354E JUMPI PUSH1 0x1 PUSH1 0xF0 SHL PUSH2 0x7FFF MUL PUSH2 0x3551 JUMP JUMPDEST PUSH1 0x0 JUMPDEST SWAP4 POP POP POP POP PUSH2 0x15B4 JUMP JUMPDEST PUSH2 0x3F7F DUP3 LT ISZERO PUSH2 0x3579 JUMPI POP PUSH1 0x1 PUSH1 0xF0 SHL PUSH2 0x3FFF MUL SWAP3 POP PUSH2 0x15B4 SWAP2 POP POP JUMP JUMPDEST DUP2 PUSH2 0x3587 JUMPI PUSH1 0x1 SWAP2 POP PUSH2 0x358E JUMP JUMPDEST PUSH1 0x1 PUSH1 0x70 SHL OR JUMPDEST PUSH2 0x3FEF DUP3 GT ISZERO PUSH2 0x35A4 JUMPI PUSH2 0x3FEE NOT DUP3 ADD SHL PUSH2 0x35B6 JUMP JUMPDEST PUSH2 0x3FEF DUP3 LT ISZERO PUSH2 0x35B6 JUMPI PUSH2 0x3FEF DUP3 SWAP1 SUB SHR JUMPDEST DUP3 DUP1 ISZERO PUSH2 0x35D4 JUMPI POP PUSH18 0x406E00000000000000000000000000000000 DUP2 GT JUMPDEST ISZERO PUSH2 0x35E6 JUMPI POP PUSH1 0x0 SWAP3 POP PUSH2 0x15B4 SWAP2 POP POP JUMP JUMPDEST DUP3 ISZERO DUP1 ISZERO PUSH2 0x3605 JUMPI POP PUSH18 0x3FFFFFFFFFFFFFFFFFFFFFFFFFFFFFFFFFFF DUP2 GT JUMPDEST ISZERO PUSH2 0x361E JUMPI POP PUSH1 0x1 PUSH1 0xF0 SHL PUSH2 0x7FFF MUL SWAP3 POP PUSH2 0x15B4 SWAP2 POP POP JUMP JUMPDEST PUSH1 0x1 PUSH1 0x1 PUSH1 0x80 SHL SUB DUP2 AND SWAP1 PUSH1 0x80 SHR DUP4 DUP1 ISZERO PUSH2 0x3638 JUMPI POP DUP2 ISZERO ISZERO JUMPDEST ISZERO PUSH2 0x3644 JUMPI SWAP1 NOT SWAP1 PUSH1 0x1 ADD JUMPDEST PUSH1 0x1 PUSH1 0x7F SHL DUP3 DUP2 AND ISZERO PUSH2 0x3668 JUMPI PUSH17 0x16A09E667F3BCC908B2FB1366EA957D3E MUL PUSH1 0x80 SHR JUMPDEST PUSH1 0x1 PUSH1 0x7E SHL DUP4 AND ISZERO PUSH2 0x368B JUMPI PUSH17 0x1306FE0A31B7152DE8D5A46305C85EDEC MUL PUSH1 0x80 SHR JUMPDEST PUSH1 0x1 PUSH1 0x7D SHL DUP4 AND ISZERO PUSH2 0x36AE JUMPI PUSH17 0x1172B83C7D517ADCDF7C8C50EB14A791F MUL PUSH1 0x80 SHR JUMPDEST PUSH1 0x1 PUSH1 0x7C SHL DUP4 AND ISZERO PUSH2 0x36D1 JUMPI PUSH17 0x10B5586CF9890F6298B92B71842A98363 MUL PUSH1 0x80 SHR JUMPDEST PUSH1 0x1 PUSH1 0x7B SHL DUP4 AND ISZERO PUSH2 0x36F4 JUMPI PUSH17 0x1059B0D31585743AE7C548EB68CA417FD MUL PUSH1 0x80 SHR JUMPDEST PUSH1 0x1 PUSH1 0x7A SHL DUP4 AND ISZERO PUSH2 0x3717 JUMPI PUSH17 0x102C9A3E778060EE6F7CACA4F7A29BDE8 MUL PUSH1 0x80 SHR JUMPDEST PUSH1 0x1 PUSH1 0x79 SHL DUP4 AND ISZERO PUSH2 0x373A JUMPI PUSH17 0x10163DA9FB33356D84A66AE336DCDFA3F MUL PUSH1 0x80 SHR JUMPDEST PUSH1 0x1 PUSH1 0x78 SHL DUP4 AND ISZERO PUSH2 0x375D JUMPI PUSH17 0x100B1AFA5ABCBED6129AB13EC11DC9543 MUL PUSH1 0x80 SHR JUMPDEST PUSH1 0x1 PUSH1 0x77 SHL DUP4 AND ISZERO PUSH2 0x3780 JUMPI PUSH17 0x10058C86DA1C09EA1FF19D294CF2F679B MUL PUSH1 0x80 SHR JUMPDEST PUSH1 0x1 PUSH1 0x76 SHL DUP4 AND ISZERO PUSH2 0x37A3 JUMPI PUSH17 0x1002C605E2E8CEC506D21BFC89A23A00F MUL PUSH1 0x80 SHR JUMPDEST PUSH1 0x1 PUSH1 0x75 SHL DUP4 AND ISZERO PUSH2 0x37C6 JUMPI PUSH17 0x100162F3904051FA128BCA9C55C31E5DF MUL PUSH1 0x80 SHR JUMPDEST PUSH1 0x1 PUSH1 0x74 SHL DUP4 AND ISZERO PUSH2 0x37E9 JUMPI PUSH17 0x1000B175EFFDC76BA38E31671CA939725 MUL PUSH1 0x80 SHR JUMPDEST PUSH1 0x1 PUSH1 0x73 SHL DUP4 AND ISZERO PUSH2 0x380C JUMPI PUSH17 0x100058BA01FB9F96D6CACD4B180917C3D MUL PUSH1 0x80 SHR JUMPDEST PUSH1 0x1 PUSH1 0x72 SHL DUP4 AND ISZERO PUSH2 0x382F JUMPI PUSH17 0x10002C5CC37DA9491D0985C348C68E7B3 MUL PUSH1 0x80 SHR JUMPDEST PUSH1 0x1 PUSH1 0x71 SHL DUP4 AND ISZERO PUSH2 0x3852 JUMPI PUSH17 0x1000162E525EE054754457D5995292026 MUL PUSH1 0x80 SHR JUMPDEST PUSH1 0x1 PUSH1 0x70 SHL DUP4 AND ISZERO PUSH2 0x3875 JUMPI PUSH17 0x10000B17255775C040618BF4A4ADE83FC MUL PUSH1 0x80 SHR JUMPDEST PUSH1 0x1 PUSH1 0x6F SHL DUP4 AND ISZERO PUSH2 0x3898 JUMPI PUSH17 0x1000058B91B5BC9AE2EED81E9B7D4CFAB MUL PUSH1 0x80 SHR JUMPDEST PUSH1 0x1 PUSH1 0x6E SHL DUP4 AND ISZERO PUSH2 0x38BB JUMPI PUSH17 0x100002C5C89D5EC6CA4D7C8ACC017B7C9 MUL PUSH1 0x80 SHR JUMPDEST PUSH1 0x1 PUSH1 0x6D SHL DUP4 AND ISZERO PUSH2 0x38DE JUMPI PUSH17 0x10000162E43F4F831060E02D839A9D16D MUL PUSH1 0x80 SHR JUMPDEST PUSH1 0x1 PUSH1 0x6C SHL DUP4 AND ISZERO PUSH2 0x3901 JUMPI PUSH17 0x100000B1721BCFC99D9F890EA06911763 MUL PUSH1 0x80 SHR JUMPDEST PUSH1 0x1 PUSH1 0x6B SHL DUP4 AND ISZERO PUSH2 0x3924 JUMPI PUSH17 0x10000058B90CF1E6D97F9CA14DBCC1628 MUL PUSH1 0x80 SHR JUMPDEST PUSH1 0x1 PUSH1 0x6A SHL DUP4 AND ISZERO PUSH2 0x3947 JUMPI PUSH17 0x1000002C5C863B73F016468F6BAC5CA2B MUL PUSH1 0x80 SHR JUMPDEST PUSH1 0x1 PUSH1 0x69 SHL DUP4 AND ISZERO PUSH2 0x396A JUMPI PUSH17 0x100000162E430E5A18F6119E3C02282A5 MUL PUSH1 0x80 SHR JUMPDEST PUSH1 0x1 PUSH1 0x68 SHL DUP4 AND ISZERO PUSH2 0x398D JUMPI PUSH17 0x1000000B1721835514B86E6D96EFD1BFE MUL PUSH1 0x80 SHR JUMPDEST PUSH1 0x1 PUSH1 0x67 SHL DUP4 AND ISZERO PUSH2 0x39B0 JUMPI PUSH17 0x100000058B90C0B48C6BE5DF846C5B2EF MUL PUSH1 0x80 SHR JUMPDEST PUSH1 0x1 PUSH1 0x66 SHL DUP4 AND ISZERO PUSH2 0x39D3 JUMPI PUSH17 0x10000002C5C8601CC6B9E94213C72737A MUL PUSH1 0x80 SHR JUMPDEST PUSH1 0x1 PUSH1 0x65 SHL DUP4 AND ISZERO PUSH2 0x39F6 JUMPI PUSH17 0x1000000162E42FFF037DF38AA2B219F06 MUL PUSH1 0x80 SHR JUMPDEST PUSH1 0x1 PUSH1 0x64 SHL DUP4 AND ISZERO PUSH2 0x3A19 JUMPI PUSH17 0x10000000B17217FBA9C739AA5819F44F9 MUL PUSH1 0x80 SHR JUMPDEST PUSH1 0x1 PUSH1 0x63 SHL DUP4 AND ISZERO PUSH2 0x3A3C JUMPI PUSH17 0x1000000058B90BFCDEE5ACD3C1CEDC823 MUL PUSH1 0x80 SHR JUMPDEST PUSH1 0x1 PUSH1 0x62 SHL DUP4 AND ISZERO PUSH2 0x3A5F JUMPI PUSH17 0x100000002C5C85FE31F35A6A30DA1BE50 MUL PUSH1 0x80 SHR JUMPDEST PUSH1 0x1 PUSH1 0x61 SHL DUP4 AND ISZERO PUSH2 0x3A82 JUMPI PUSH17 0x10000000162E42FF0999CE3541B9FFFCF MUL PUSH1 0x80 SHR JUMPDEST PUSH1 0x1 PUSH1 0x60 SHL DUP4 AND ISZERO PUSH2 0x3AA5 JUMPI PUSH17 0x100000000B17217F80F4EF5AADDA45554 MUL PUSH1 0x80 SHR JUMPDEST PUSH1 0x1 PUSH1 0x5F SHL DUP4 AND ISZERO PUSH2 0x3AC8 JUMPI PUSH17 0x10000000058B90BFBF8479BD5A81B51AD MUL PUSH1 0x80 SHR JUMPDEST PUSH1 0x1 PUSH1 0x5E SHL DUP4 AND ISZERO PUSH2 0x3AEB JUMPI PUSH17 0x1000000002C5C85FDF84BD62AE30A74CC MUL PUSH1 0x80 SHR JUMPDEST PUSH1 0x1 PUSH1 0x5D SHL DUP4 AND ISZERO PUSH2 0x3B0E JUMPI PUSH17 0x100000000162E42FEFB2FED257559BDAA MUL PUSH1 0x80 SHR JUMPDEST PUSH1 0x1 PUSH1 0x5C SHL DUP4 AND ISZERO PUSH2 0x3B31 JUMPI PUSH17 0x1000000000B17217F7D5A7716BBA4A9AE MUL PUSH1 0x80 SHR JUMPDEST PUSH1 0x1 PUSH1 0x5B SHL DUP4 AND ISZERO PUSH2 0x3B54 JUMPI PUSH17 0x100000000058B90BFBE9DDBAC5E109CCE MUL PUSH1 0x80 SHR JUMPDEST PUSH1 0x1 PUSH1 0x5A SHL DUP4 AND ISZERO PUSH2 0x3B77 JUMPI PUSH17 0x10000000002C5C85FDF4B15DE6F17EB0D MUL PUSH1 0x80 SHR JUMPDEST PUSH1 0x1 PUSH1 0x59 SHL DUP4 AND ISZERO PUSH2 0x3B9A JUMPI PUSH17 0x1000000000162E42FEFA494F1478FDE05 MUL PUSH1 0x80 SHR JUMPDEST PUSH1 0x1 PUSH1 0x58 SHL DUP4 AND ISZERO PUSH2 0x3BBD JUMPI PUSH17 0x10000000000B17217F7D20CF927C8E94C MUL PUSH1 0x80 SHR JUMPDEST PUSH1 0x1 PUSH1 0x57 SHL DUP4 AND ISZERO PUSH2 0x3BE0 JUMPI PUSH17 0x1000000000058B90BFBE8F71CB4E4B33D MUL PUSH1 0x80 SHR JUMPDEST PUSH1 0x1 PUSH1 0x56 SHL DUP4 AND ISZERO PUSH2 0x3C03 JUMPI PUSH17 0x100000000002C5C85FDF477B662B26945 MUL PUSH1 0x80 SHR JUMPDEST PUSH1 0x1 PUSH1 0x55 SHL DUP4 AND ISZERO PUSH2 0x3C26 JUMPI PUSH17 0x10000000000162E42FEFA3AE53369388C MUL PUSH1 0x80 SHR JUMPDEST PUSH1 0x1 PUSH1 0x54 SHL DUP4 AND ISZERO PUSH2 0x3C49 JUMPI PUSH17 0x100000000000B17217F7D1D351A389D40 MUL PUSH1 0x80 SHR JUMPDEST PUSH1 0x1 PUSH1 0x53 SHL DUP4 AND ISZERO PUSH2 0x3C6C JUMPI PUSH17 0x10000000000058B90BFBE8E8B2D3D4EDE MUL PUSH1 0x80 SHR JUMPDEST PUSH1 0x1 PUSH1 0x52 SHL DUP4 AND ISZERO PUSH2 0x3C8F JUMPI PUSH17 0x1000000000002C5C85FDF4741BEA6E77E MUL PUSH1 0x80 SHR JUMPDEST PUSH1 0x1 PUSH1 0x51 SHL DUP4 AND ISZERO PUSH2 0x3CB2 JUMPI PUSH17 0x100000000000162E42FEFA39FE95583C2 MUL PUSH1 0x80 SHR JUMPDEST PUSH1 0x1 PUSH1 0x50 SHL DUP4 AND ISZERO PUSH2 0x3CD5 JUMPI PUSH17 0x1000000000000B17217F7D1CFB72B45E1 MUL PUSH1 0x80 SHR JUMPDEST PUSH10 0x80000000000000000000 DUP4 AND ISZERO PUSH2 0x3CFE JUMPI PUSH17 0x100000000000058B90BFBE8E7CC35C3F0 MUL PUSH1 0x80 SHR JUMPDEST PUSH10 0x40000000000000000000 DUP4 AND ISZERO PUSH2 0x3D27 JUMPI PUSH17 0x10000000000002C5C85FDF473E242EA38 MUL PUSH1 0x80 SHR JUMPDEST PUSH10 0x20000000000000000000 DUP4 AND ISZERO PUSH2 0x3D50 JUMPI PUSH17 0x1000000000000162E42FEFA39F02B772C MUL PUSH1 0x80 SHR JUMPDEST PUSH10 0x10000000000000000000 DUP4 AND ISZERO PUSH2 0x3D79 JUMPI PUSH17 0x10000000000000B17217F7D1CF7D83C1A MUL PUSH1 0x80 SHR JUMPDEST PUSH10 0x8000000000000000000 DUP4 AND ISZERO PUSH2 0x3DA2 JUMPI PUSH17 0x1000000000000058B90BFBE8E7BDCBE2E MUL PUSH1 0x80 SHR JUMPDEST PUSH10 0x4000000000000000000 DUP4 AND ISZERO PUSH2 0x3DCB JUMPI PUSH17 0x100000000000002C5C85FDF473DEA871F MUL PUSH1 0x80 SHR JUMPDEST PUSH10 0x2000000000000000000 DUP4 AND ISZERO PUSH2 0x3DF4 JUMPI PUSH17 0x10000000000000162E42FEFA39EF44D91 MUL PUSH1 0x80 SHR JUMPDEST PUSH10 0x1000000000000000000 DUP4 AND ISZERO PUSH2 0x3E1D JUMPI PUSH17 0x100000000000000B17217F7D1CF79E949 MUL PUSH1 0x80 SHR JUMPDEST PUSH9 0x800000000000000000 DUP4 AND ISZERO PUSH2 0x3E45 JUMPI PUSH17 0x10000000000000058B90BFBE8E7BCE544 MUL PUSH1 0x80 SHR JUMPDEST PUSH9 0x400000000000000000 DUP4 AND ISZERO PUSH2 0x3E6D JUMPI PUSH17 0x1000000000000002C5C85FDF473DE6ECA MUL PUSH1 0x80 SHR JUMPDEST PUSH9 0x200000000000000000 DUP4 AND ISZERO PUSH2 0x3E95 JUMPI PUSH17 0x100000000000000162E42FEFA39EF366F MUL PUSH1 0x80 SHR JUMPDEST PUSH9 0x100000000000000000 DUP4 AND ISZERO PUSH2 0x3EBD JUMPI PUSH17 0x1000000000000000B17217F7D1CF79AFA MUL PUSH1 0x80 SHR JUMPDEST PUSH9 0x80000000000000000 DUP4 AND ISZERO PUSH2 0x3EE5 JUMPI PUSH17 0x100000000000000058B90BFBE8E7BCD6D MUL PUSH1 0x80 SHR JUMPDEST PUSH9 0x40000000000000000 DUP4 AND ISZERO PUSH2 0x3F0D JUMPI PUSH17 0x10000000000000002C5C85FDF473DE6B2 MUL PUSH1 0x80 SHR JUMPDEST PUSH9 0x20000000000000000 DUP4 AND ISZERO PUSH2 0x3F35 JUMPI PUSH17 0x1000000000000000162E42FEFA39EF358 MUL PUSH1 0x80 SHR JUMPDEST PUSH9 0x10000000000000000 DUP4 AND ISZERO PUSH2 0x3F5D JUMPI PUSH17 0x10000000000000000B17217F7D1CF79AB MUL PUSH1 0x80 SHR JUMPDEST PUSH8 0x8000000000000000 DUP4 AND ISZERO PUSH2 0x3F84 JUMPI PUSH17 0x1000000000000000058B90BFBE8E7BCD5 MUL PUSH1 0x80 SHR JUMPDEST PUSH8 0x4000000000000000 DUP4 AND ISZERO PUSH2 0x3FAB JUMPI PUSH17 0x100000000000000002C5C85FDF473DE6A MUL PUSH1 0x80 SHR JUMPDEST PUSH8 0x2000000000000000 DUP4 AND ISZERO PUSH2 0x3FD2 JUMPI PUSH17 0x10000000000000000162E42FEFA39EF34 MUL PUSH1 0x80 SHR JUMPDEST PUSH8 0x1000000000000000 DUP4 AND ISZERO PUSH2 0x3FF9 JUMPI PUSH17 0x100000000000000000B17217F7D1CF799 MUL PUSH1 0x80 SHR JUMPDEST PUSH8 0x800000000000000 DUP4 AND ISZERO PUSH2 0x4020 JUMPI PUSH17 0x10000000000000000058B90BFBE8E7BCC MUL PUSH1 0x80 SHR JUMPDEST PUSH8 0x400000000000000 DUP4 AND ISZERO PUSH2 0x4047 JUMPI PUSH17 0x1000000000000000002C5C85FDF473DE5 MUL PUSH1 0x80 SHR JUMPDEST PUSH8 0x200000000000000 DUP4 AND ISZERO PUSH2 0x406E JUMPI PUSH17 0x100000000000000000162E42FEFA39EF2 MUL PUSH1 0x80 SHR JUMPDEST PUSH8 0x100000000000000 DUP4 AND ISZERO PUSH2 0x4095 JUMPI PUSH17 0x1000000000000000000B17217F7D1CF78 MUL PUSH1 0x80 SHR JUMPDEST PUSH7 0x80000000000000 DUP4 AND ISZERO PUSH2 0x40BB JUMPI PUSH17 0x100000000000000000058B90BFBE8E7BB MUL PUSH1 0x80 SHR JUMPDEST PUSH7 0x40000000000000 DUP4 AND ISZERO PUSH2 0x40E1 JUMPI PUSH17 0x10000000000000000002C5C85FDF473DD MUL PUSH1 0x80 SHR JUMPDEST PUSH7 0x20000000000000 DUP4 AND ISZERO PUSH2 0x4107 JUMPI PUSH17 0x1000000000000000000162E42FEFA39EE MUL PUSH1 0x80 SHR JUMPDEST PUSH7 0x10000000000000 DUP4 AND ISZERO PUSH2 0x412D JUMPI PUSH17 0x10000000000000000000B17217F7D1CF6 MUL PUSH1 0x80 SHR JUMPDEST PUSH7 0x8000000000000 DUP4 AND ISZERO PUSH2 0x4153 JUMPI PUSH17 0x1000000000000000000058B90BFBE8E7A MUL PUSH1 0x80 SHR JUMPDEST PUSH7 0x4000000000000 DUP4 AND ISZERO PUSH2 0x4179 JUMPI PUSH17 0x100000000000000000002C5C85FDF473C MUL PUSH1 0x80 SHR JUMPDEST PUSH7 0x2000000000000 DUP4 AND ISZERO PUSH2 0x419F JUMPI PUSH17 0x10000000000000000000162E42FEFA39D MUL PUSH1 0x80 SHR JUMPDEST PUSH7 0x1000000000000 DUP4 AND ISZERO PUSH2 0x41C5 JUMPI PUSH17 0x100000000000000000000B17217F7D1CE MUL PUSH1 0x80 SHR JUMPDEST PUSH6 0x800000000000 DUP4 AND ISZERO PUSH2 0x41EA JUMPI PUSH17 0x10000000000000000000058B90BFBE8E6 MUL PUSH1 0x80 SHR JUMPDEST PUSH6 0x400000000000 DUP4 AND ISZERO PUSH2 0x420F JUMPI PUSH17 0x1000000000000000000002C5C85FDF472 MUL PUSH1 0x80 SHR JUMPDEST PUSH6 0x200000000000 DUP4 AND ISZERO PUSH2 0x4234 JUMPI PUSH17 0x100000000000000000000162E42FEFA38 MUL PUSH1 0x80 SHR JUMPDEST PUSH6 0x100000000000 DUP4 AND ISZERO PUSH2 0x4259 JUMPI PUSH17 0x1000000000000000000000B17217F7D1B MUL PUSH1 0x80 SHR JUMPDEST PUSH6 0x80000000000 DUP4 AND ISZERO PUSH2 0x427E JUMPI PUSH17 0x100000000000000000000058B90BFBE8D MUL PUSH1 0x80 SHR JUMPDEST PUSH6 0x40000000000 DUP4 AND ISZERO PUSH2 0x42A3 JUMPI PUSH17 0x10000000000000000000002C5C85FDF46 MUL PUSH1 0x80 SHR JUMPDEST PUSH6 0x20000000000 DUP4 AND ISZERO PUSH2 0x42C8 JUMPI PUSH17 0x1000000000000000000000162E42FEFA2 MUL PUSH1 0x80 SHR JUMPDEST PUSH6 0x10000000000 DUP4 AND ISZERO PUSH2 0x42ED JUMPI PUSH17 0x10000000000000000000000B17217F7D0 MUL PUSH1 0x80 SHR JUMPDEST PUSH5 0x8000000000 DUP4 AND ISZERO PUSH2 0x4311 JUMPI PUSH17 0x1000000000000000000000058B90BFBE7 MUL PUSH1 0x80 SHR JUMPDEST PUSH5 0x4000000000 DUP4 AND ISZERO PUSH2 0x4335 JUMPI PUSH17 0x100000000000000000000002C5C85FDF3 MUL PUSH1 0x80 SHR JUMPDEST PUSH5 0x2000000000 DUP4 AND ISZERO PUSH2 0x4359 JUMPI PUSH17 0x10000000000000000000000162E42FEF9 MUL PUSH1 0x80 SHR JUMPDEST PUSH5 0x1000000000 DUP4 AND ISZERO PUSH2 0x437D JUMPI PUSH17 0x100000000000000000000000B17217F7C MUL PUSH1 0x80 SHR JUMPDEST PUSH5 0x800000000 DUP4 AND ISZERO PUSH2 0x43A1 JUMPI PUSH17 0x10000000000000000000000058B90BFBD MUL PUSH1 0x80 SHR JUMPDEST PUSH5 0x400000000 DUP4 AND ISZERO PUSH2 0x43C5 JUMPI PUSH17 0x1000000000000000000000002C5C85FDE MUL PUSH1 0x80 SHR JUMPDEST PUSH5 0x200000000 DUP4 AND ISZERO PUSH2 0x43E9 JUMPI PUSH17 0x100000000000000000000000162E42FEE MUL PUSH1 0x80 SHR JUMPDEST PUSH5 0x100000000 DUP4 AND ISZERO PUSH2 0x440D JUMPI PUSH17 0x1000000000000000000000000B17217F6 MUL PUSH1 0x80 SHR JUMPDEST PUSH4 0x80000000 DUP4 AND ISZERO PUSH2 0x4430 JUMPI PUSH17 0x100000000000000000000000058B90BFA MUL PUSH1 0x80 SHR JUMPDEST PUSH4 0x40000000 DUP4 AND ISZERO PUSH2 0x4453 JUMPI PUSH17 0x10000000000000000000000002C5C85FC MUL PUSH1 0x80 SHR JUMPDEST PUSH4 0x20000000 DUP4 AND ISZERO PUSH2 0x4476 JUMPI PUSH17 0x1000000000000000000000000162E42FD MUL PUSH1 0x80 SHR JUMPDEST PUSH4 0x10000000 DUP4 AND ISZERO PUSH2 0x4499 JUMPI PUSH17 0x10000000000000000000000000B17217E MUL PUSH1 0x80 SHR JUMPDEST PUSH4 0x8000000 DUP4 AND ISZERO PUSH2 0x44BC JUMPI PUSH17 0x1000000000000000000000000058B90BE MUL PUSH1 0x80 SHR JUMPDEST PUSH4 0x4000000 DUP4 AND ISZERO PUSH2 0x44DF JUMPI PUSH17 0x100000000000000000000000002C5C85E MUL PUSH1 0x80 SHR JUMPDEST PUSH4 0x2000000 DUP4 AND ISZERO PUSH2 0x4502 JUMPI PUSH17 0x10000000000000000000000000162E42E MUL PUSH1 0x80 SHR JUMPDEST PUSH4 0x1000000 DUP4 AND ISZERO PUSH2 0x4525 JUMPI PUSH17 0x100000000000000000000000000B17216 MUL PUSH1 0x80 SHR JUMPDEST PUSH3 0x800000 DUP4 AND ISZERO PUSH2 0x4547 JUMPI PUSH17 0x10000000000000000000000000058B90A MUL PUSH1 0x80 SHR JUMPDEST PUSH3 0x400000 DUP4 AND ISZERO PUSH2 0x4569 JUMPI PUSH17 0x1000000000000000000000000002C5C84 MUL PUSH1 0x80 SHR JUMPDEST PUSH3 0x200000 DUP4 AND ISZERO PUSH2 0x458B JUMPI PUSH17 0x100000000000000000000000000162E41 MUL PUSH1 0x80 SHR JUMPDEST PUSH3 0x100000 DUP4 AND ISZERO PUSH2 0x45AD JUMPI PUSH17 0x1000000000000000000000000000B1720 MUL PUSH1 0x80 SHR JUMPDEST PUSH3 0x80000 DUP4 AND ISZERO PUSH2 0x45CF JUMPI PUSH17 0x100000000000000000000000000058B8F MUL PUSH1 0x80 SHR JUMPDEST PUSH3 0x40000 DUP4 AND ISZERO PUSH2 0x45F1 JUMPI PUSH17 0x10000000000000000000000000002C5C7 MUL PUSH1 0x80 SHR JUMPDEST PUSH3 0x20000 DUP4 AND ISZERO PUSH2 0x4613 JUMPI PUSH17 0x1000000000000000000000000000162E3 MUL PUSH1 0x80 SHR JUMPDEST PUSH3 0x10000 DUP4 AND ISZERO PUSH2 0x4635 JUMPI PUSH17 0x10000000000000000000000000000B171 MUL PUSH1 0x80 SHR JUMPDEST PUSH2 0x8000 DUP4 AND ISZERO PUSH2 0x4656 JUMPI PUSH17 0x1000000000000000000000000000058B8 MUL PUSH1 0x80 SHR JUMPDEST PUSH2 0x4000 DUP4 AND ISZERO PUSH2 0x4677 JUMPI PUSH17 0x100000000000000000000000000002C5B MUL PUSH1 0x80 SHR JUMPDEST PUSH2 0x2000 DUP4 AND ISZERO PUSH2 0x4698 JUMPI PUSH17 0x10000000000000000000000000000162D MUL PUSH1 0x80 SHR JUMPDEST PUSH2 0x1000 DUP4 AND ISZERO PUSH2 0x46B9 JUMPI PUSH17 0x100000000000000000000000000000B16 MUL PUSH1 0x80 SHR JUMPDEST PUSH2 0x800 DUP4 AND ISZERO PUSH2 0x46DA JUMPI PUSH17 0x10000000000000000000000000000058A MUL PUSH1 0x80 SHR JUMPDEST PUSH2 0x400 DUP4 AND ISZERO PUSH2 0x46FB JUMPI PUSH17 0x1000000000000000000000000000002C4 MUL PUSH1 0x80 SHR JUMPDEST PUSH2 0x200 DUP4 AND ISZERO PUSH2 0x471C JUMPI PUSH17 0x100000000000000000000000000000161 MUL PUSH1 0x80 SHR JUMPDEST PUSH2 0x100 DUP4 AND ISZERO PUSH2 0x473D JUMPI PUSH17 0x1000000000000000000000000000000B0 MUL PUSH1 0x80 SHR JUMPDEST PUSH1 0x80 DUP4 AND ISZERO PUSH2 0x475D JUMPI PUSH17 0x100000000000000000000000000000057 MUL PUSH1 0x80 SHR JUMPDEST PUSH1 0x40 DUP4 AND ISZERO PUSH2 0x477D JUMPI PUSH17 0x10000000000000000000000000000002B MUL PUSH1 0x80 SHR JUMPDEST PUSH1 0x20 DUP4 AND ISZERO PUSH2 0x479D JUMPI PUSH17 0x100000000000000000000000000000015 MUL PUSH1 0x80 SHR JUMPDEST PUSH1 0x10 DUP4 AND ISZERO PUSH2 0x47BD JUMPI PUSH17 0x10000000000000000000000000000000A MUL PUSH1 0x80 SHR JUMPDEST PUSH1 0x8 DUP4 AND ISZERO PUSH2 0x47DD JUMPI PUSH17 0x100000000000000000000000000000004 MUL PUSH1 0x80 SHR JUMPDEST PUSH1 0x4 DUP4 AND ISZERO PUSH2 0x47FD JUMPI PUSH17 0x100000000000000000000000000000001 MUL PUSH1 0x80 SHR JUMPDEST DUP5 PUSH2 0x481E JUMPI PUSH1 0xF DUP2 SWAP1 SHR PUSH1 0x1 PUSH1 0x1 PUSH1 0x70 SHL SUB AND SWAP1 POP PUSH2 0x3FFF DUP3 ADD SWAP2 POP PUSH2 0x484D JUMP JUMPDEST PUSH2 0x3FFE DUP3 GT PUSH2 0x4843 JUMPI PUSH1 0xF DUP2 SWAP1 SHR PUSH1 0x1 PUSH1 0x1 PUSH1 0x70 SHL SUB AND SWAP1 POP DUP2 PUSH2 0x3FFF SUB SWAP2 POP PUSH2 0x484D JUMP JUMPDEST PUSH1 0x0 SWAP2 PUSH2 0x3FEE NOT ADD SHR JUMPDEST PUSH1 0x70 SWAP2 SWAP1 SWAP2 SHL OR PUSH1 0x80 SHL SWAP4 POP PUSH2 0x15B4 SWAP3 POP POP POP JUMP JUMPDEST PUSH1 0x40 MLOAD DUP1 PUSH1 0x60 ADD PUSH1 0x40 MSTORE DUP1 PUSH1 0x0 PUSH1 0x1 PUSH1 0x1 PUSH1 0xA0 SHL SUB AND DUP2 MSTORE PUSH1 0x20 ADD PUSH1 0x60 DUP2 MSTORE PUSH1 0x20 ADD PUSH1 0x0 DUP2 MSTORE POP SWAP1 JUMP JUMPDEST DUP3 DUP1 SLOAD PUSH1 0x1 DUP2 PUSH1 0x1 AND ISZERO PUSH2 0x100 MUL SUB AND PUSH1 0x2 SWAP1 DIV SWAP1 PUSH1 0x0 MSTORE PUSH1 0x20 PUSH1 0x0 KECCAK256 SWAP1 PUSH1 0x1F ADD PUSH1 0x20 SWAP1 DIV DUP2 ADD SWAP3 DUP3 PUSH1 0x1F LT PUSH2 0x48CD JUMPI DUP1 MLOAD PUSH1 0xFF NOT AND DUP4 DUP1 ADD OR DUP6 SSTORE PUSH2 0x48FA JUMP JUMPDEST DUP3 DUP1 ADD PUSH1 0x1 ADD DUP6 SSTORE DUP3 ISZERO PUSH2 0x48FA JUMPI SWAP2 DUP3 ADD JUMPDEST DUP3 DUP2 GT ISZERO PUSH2 0x48FA JUMPI DUP3 MLOAD DUP3 SSTORE SWAP2 PUSH1 0x20 ADD SWAP2 SWAP1 PUSH1 0x1 ADD SWAP1 PUSH2 0x48DF JUMP JUMPDEST POP PUSH2 0x4906 SWAP3 SWAP2 POP PUSH2 0x4921 JUMP JUMPDEST POP SWAP1 JUMP JUMPDEST PUSH1 0x40 DUP1 MLOAD DUP1 DUP3 ADD SWAP1 SWAP2 MSTORE PUSH1 0x0 DUP1 DUP3 MSTORE PUSH1 0x20 DUP3 ADD MSTORE SWAP1 JUMP JUMPDEST PUSH2 0xA95 SWAP2 SWAP1 JUMPDEST DUP1 DUP3 GT ISZERO PUSH2 0x4906 JUMPI PUSH1 0x0 DUP2 SSTORE PUSH1 0x1 ADD PUSH2 0x4927 JUMP JUMPDEST PUSH1 0x0 DUP2 PUSH2 0x494A JUMPI POP PUSH1 0x0 PUSH2 0x15B4 JUMP JUMPDEST PUSH1 0x0 DUP1 DUP4 SGT PUSH2 0x495C JUMPI DUP3 PUSH1 0x0 SUB PUSH2 0x495E JUMP JUMPDEST DUP3 JUMPDEST SWAP1 POP PUSH1 0x0 PUSH2 0x496B DUP3 PUSH2 0x347F JUMP JUMPDEST SWAP1 POP PUSH1 0x70 DUP2 LT ISZERO PUSH2 0x4984 JUMPI DUP1 PUSH1 0x70 SUB DUP3 SWAP1 SHL SWAP2 POP PUSH2 0x4997 JUMP JUMPDEST PUSH1 0x70 DUP2 GT ISZERO PUSH2 0x4997 JUMPI PUSH1 0x70 DUP2 SUB DUP3 SWAP1 SHR SWAP2 POP JUMPDEST PUSH1 0x1 PUSH1 0x1 PUSH1 0x70 SHL SUB SWAP1 SWAP2 AND PUSH2 0x3FFF DUP3 ADD PUSH1 0x70 SHL OR SWAP1 PUSH1 0x0 DUP5 SLT ISZERO PUSH2 0x49BF JUMPI PUSH1 0x1 PUSH1 0x7F SHL DUP3 OR SWAP2 POP JUMPDEST POP PUSH1 0x80 SHL SWAP1 POP PUSH2 0x15B4 JUMP INVALID 0xea CREATE STOP 0xc8 SWAP15 BLOCKHASH 0xe1 0xe6 0x4c PUSH3 0x9D19FF SWAP2 0xb9 0xa7 CALLDATASIZE 0x4f 0xcc 0xc3 0xc5 0xb0 0xbd 0x1e SLOAD 0xda DUP7 JUMPDEST EQ PUSH21 0x9218B2ABB351E970BDBC272A8E8786BF71210C12D9 CALL PUSH6 0x3891B205AEFC LOG1 COINBASE 0xe 0xd0 SELFDESTRUCT LOG1 PUSH6 0x627A7A723058 KECCAK256 SGT 0x2e MSTORE8 0xd0 REVERT 0xc2 RETURNDATASIZE 0xf7 0xca LOG1 CALLDATACOPY 0xaa 0xd8 0xea 0xf9 0xab 0xa5 0xe9 PUSH27 0x3C555895D1CF778F89ED3E9AD50029000000000000000000000000 ",
  "sha1": "0659d62a9c922681129698020f1a41750af3e7c9",
  "source": "pragma solidity ^ 0.5 .7;\n\nimport \"./ABDKMathQuad.sol\";\n\n\n//import \"github.com/abdk-consulting/abdk-libraries-solidity/ABDKMathQuad.sol\";\n\ncontract PrototypeContract {\n\n    using ABDKMathQuad for *;\n    mapping(address => uint8) public buyers;\n    address payable[] buyersArray;\n\n    struct cleanClaimant {\n        address payable claimAddress;\n        uint sizeOfBet;\n    }\n\n    struct advClaimant {\n        address payable claimAddress;\n        string adversarialGenMethod;\n        uint sizeOfBet;\n    }\n\n    cleanClaimant[] public cleanClaimantArray;\n    advClaimant[] public advClaimantArray;\n\n    mapping(address => uint) public cleanClaims;\n    mapping(address => uint) public advClaims;\n\n    bytes16 totalCleanPool;\n    bytes16 totalAdvPool;\n    address payable public thirdPartyAddress;\n    uint start;\n    uint end;\n    address payable seller;\n    uint public price;\n    uint testerShare;\n    uint public testPool;\n    uint startTime;\n    uint public ownerDeposit;\n    uint cleanDeposit;\n    uint adversarialDeposit;\n    uint public cleanCount;\n    uint public advCount;\n    uint public buyerIndex;\n    uint possibleClients;\n    bytes16 priceBytes16;\n    bytes16 decay;\n    uint hundred;\n    bytes16 hundred16;\n    int negOne;\n    bytes16 negOne16;\n    bytes16 possibleClients16;\n    bytes16 formulaDenominator;\n    bool collateralWasPaid;\n    uint coveredDeposits;\n    bytes16 testerShare16;\n    bool thirdPartyInvoked;\n    bool forcedThirdInvocation;\n\n\n    event ContractCreation(uint _price, uint _possibleClients, uint _decayPct, uint _durationInDays, uint _testerShare, address sellerAddress);\n    /*\n    Constructor of the contract with the following arguments:\n    _price : the price of the dataset\n    posClients : the expected amount of people that will buy the dataset (affects seller's deposit decay)\n    _decaypct : variable that affects the deposit decay (in percentages)\n    _durationInDays : period of time in days when the people can buy the dataset and submit claims\n    */\n    constructor(uint _price, uint _possibleClients, uint _decayPct, uint _durationInDays, uint _testerShare, address payable _thirdPartyAddress) public {\n        hundred = 100;\n        hundred16 = hundred.fromUInt();\n        negOne = - 1;\n        negOne16 = negOne.fromInt();\n        seller = msg.sender;\n        startTime = now;\n        price = _price;\n        possibleClients = _possibleClients;\n        testerShare = _testerShare;\n        possibleClients16 = possibleClients.fromUInt();\n        priceBytes16 = price.fromUInt();\n        decay = _decayPct.fromUInt();\n        decay = decay.div(hundred16);\n        testerShare16 = (testerShare.fromUInt()).div(hundred16);\n        formulaDenominator = decay.mul(possibleClients16.mul(negOne16));\n        start = now;\n        end = now + (_durationInDays * 1 days);\n        collateralWasPaid = false;\n\n        coveredDeposits = 0;\n        thirdPartyInvoked = false;\n        forcedThirdInvocation = false;\n\n        emit ContractCreation(_price, _possibleClients, _decayPct, _durationInDays, _testerShare, seller);\n        thirdPartyAddress = _thirdPartyAddress;\n    }\n\n\n    /*\n    Helper function that calculates the amount of wei/eth that the seller must\n    deposit for the buyer with index \"index\"\n    */\n    function calcDepositByIndex(uint _index) public view returns (bytes16) {\n        bytes16 index16 = _index.fromUInt();\n        bytes16 fraction = index16.div(formulaDenominator);\n        bytes16 multiplier = fraction.exp();\n        return priceBytes16.mul(multiplier);\n    }\n\n    /*\n    View function that returns the total amount the seller must deposit for him to\n    be \"in good standing\"\n    */\n    function calculateSellerDeposit() public view returns (uint) {\n        bytes16 neededDeposit;\n        for (uint index = coveredDeposits; index < buyerIndex; index++) {\n            neededDeposit = neededDeposit.add(calcDepositByIndex(index));\n        }\n        return neededDeposit.toUInt();\n    }\n\n    event SellerDeposit(address depAddress, uint depositedValue, uint valueForTestPool);\n    event BuyerDeposit(address depAddress, uint depositedValue, uint valueForTestPool, uint IndexOfBuyer);\n\n    /*\n    Unique deposit function that takes in both the deposit of the seller and of the buyers\n    */\n    function deposit() public payable {\n        require(now < end - 1 days);\n        if (seller == msg.sender && buyerIndex > 0) {\n            uint value = calculateSellerDeposit();\n            require(msg.value == value);\n            //uint amountToBeDeposited = msg.value * (100 - testerShare) / 100;\n            uint amountToBeDeposited = msg.value.fromUInt().mul(hundred16.sub(testerShare.fromUInt()).div(hundred16)).toUInt();\n            ownerDeposit += amountToBeDeposited;\n            testPool += (msg.value - amountToBeDeposited);\n            coveredDeposits = buyerIndex;\n            collateralWasPaid = true;\n            emit SellerDeposit(msg.sender, amountToBeDeposited, msg.value - amountToBeDeposited);\n        } else {\n            buyersArray.push(msg.sender);\n            buyers[msg.sender] = 1;\n            buyerIndex++;\n            collateralWasPaid = false;\n            emit BuyerDeposit(msg.sender, msg.value, msg.value, buyerIndex);\n        }\n    }\n\n    /*\n    View function that returns what amount one can bet on an adversarial claim at\n    a given time\n    */\n    function getAdversarialClaimCost() public view returns (uint) {\n        return (calcDepositByIndex(advClaimantArray.length).mul(testerShare.fromUInt()).div(hundred16)).toUInt();\n    }\n\n    /*\n    View function that returns what amount one can bet on an adversarial claim at\n    a given time\n    */\n    function getCleanClaimCost() public view returns (uint) {\n        return (calcDepositByIndex(cleanClaimantArray.length).mul(testerShare.fromUInt()).div(hundred16)).toUInt();\n    }\n\n\n    event AdversarialClaim(address claimantAddress, string advMethod, uint claimNumber);\n    /*\n    Function that submits a claim that the dataset contains adversarial images altered\n    using the technique included in the parameter \"advMethod\"\n    */\n    function claimAdversarial(string memory _advMethod) public payable {\n        require(buyers[msg.sender] == 1 && cleanClaims[msg.sender] == 0 && advClaims[msg.sender] == 0);\n        bytes16 requiredAmount16 = calcDepositByIndex(advClaimantArray.length).mul(testerShare.fromUInt()).div(hundred16);\n        require(requiredAmount16.toUInt() == msg.value);\n        advClaimant memory claimant;\n        claimant.adversarialGenMethod = _advMethod;\n        claimant.claimAddress = msg.sender;\n        claimant.sizeOfBet = msg.value;\n        advClaimantArray.push(claimant);\n        advClaims[msg.sender] = advClaimantArray.length;\n        advCount++;\n        totalAdvPool = totalAdvPool.add(requiredAmount16);\n        emit AdversarialClaim(msg.sender, _advMethod, advCount);\n\n    }\n\n    event CleanClaim(address claimantAddress, uint claimNumber);\n    /*\n    Function that submits a claim that the dataset doesnt contain adversarial images\n    */\n    function claimClean() public payable {\n        require(buyers[msg.sender] == 1 && cleanClaims[msg.sender] == 0 && advClaims[msg.sender] == 0);\n        bytes16 requiredAmount16 = calcDepositByIndex(cleanClaimantArray.length).mul(testerShare.fromUInt()).div(hundred16);\n        require(requiredAmount16.toUInt() == msg.value);\n        cleanClaimant memory claimant;\n        claimant.claimAddress = msg.sender;\n        claimant.sizeOfBet = msg.value;\n        cleanClaimantArray.push(claimant);\n        cleanClaims[msg.sender] = cleanClaimantArray.length;\n        cleanCount++;\n        totalCleanPool = totalCleanPool.add(requiredAmount16);\n        emit CleanClaim(msg.sender, cleanCount);\n    }\n\n    /*\n    Function that returns the amount required in order for a cleanClamant to be transfered\n    to the adversarialClaimants pool\n    */\n    function calcTransferCost() public view returns (uint) {\n        require(cleanClaims[msg.sender] > 0);\n        if (cleanClaimantArray[cleanClaims[msg.sender] - 1].sizeOfBet > getAdversarialClaimCost()) {\n            return 0;\n        } else {\n            return getAdversarialClaimCost() - cleanClaimantArray[cleanClaims[msg.sender] - 1].sizeOfBet;\n        }\n    }\n\n    event TransferToAdversarial(address transferAddress);\n    //Can be refactored\n    function transferToAdv(string memory _advMethod) public payable {\n        require(now < end - 1 days);\n        require(cleanClaims[msg.sender] > 0);\n        //TODO remove comment\n        require(now < end - 1 days);\n        if (calcTransferCost() == 0) {\n\n            uint value = getAdversarialClaimCost();\n            advClaimant memory claimant;\n            msg.sender.transfer(cleanClaimantArray[cleanClaims[msg.sender] - 1].sizeOfBet - value);\n            totalCleanPool = totalCleanPool.sub(cleanClaimantArray[cleanClaims[msg.sender] - 1].sizeOfBet.fromUInt());\n            totalAdvPool = totalAdvPool.add(value.fromUInt());\n            claimant.adversarialGenMethod = _advMethod;\n            claimant.claimAddress = msg.sender;\n            claimant.sizeOfBet = value;\n            advClaimantArray.push(claimant);\n            advClaims[msg.sender] = advClaimantArray.length;\n            delete cleanClaimantArray[cleanClaims[msg.sender] - 1];\n            cleanClaims[msg.sender] = 0;\n\n        } else {\n            uint transferCost = calcTransferCost();\n            require(msg.value == transferCost);\n\n            advClaimant memory claimant;\n            claimant.adversarialGenMethod = _advMethod;\n            claimant.sizeOfBet = cleanClaimantArray[cleanClaims[msg.sender] - 1].sizeOfBet + transferCost;\n            claimant.claimAddress = msg.sender;\n            totalCleanPool = totalCleanPool.sub(cleanClaimantArray[cleanClaims[msg.sender] - 1].sizeOfBet.fromUInt());\n            totalAdvPool = totalAdvPool.add((cleanClaimantArray[cleanClaims[msg.sender] - 1].sizeOfBet + transferCost).fromUInt());\n            delete cleanClaimantArray[cleanClaims[msg.sender] - 1];\n            cleanClaims[msg.sender] = 0;\n        }\n        cleanCount--;\n        advCount++;\n        emit TransferToAdversarial(msg.sender);\n    }\n\n    /*\n    Getter function for the seller's address\n    */\n    function getSellerAddress() public view returns (address) {\n        return seller;\n    }\n\n    function getCurrentDatasetOpinion() public view returns (int) {\n        //   require(now > (end - 1 days));\n        //divison by zero checks\n        uint cleanCountForRatio = 1;\n        if (cleanCount > cleanCountForRatio)\n            cleanCountForRatio = cleanCount;\n        uint advCountForRatio = 1;\n        if (advCount > advCountForRatio)\n            advCountForRatio = advCount;\n        //Case when dataset was deemed cleen by testers\n        if (cleanCountForRatio / advCountForRatio >= 2) {\n            return 1;\n        } else if (advCountForRatio / cleanCountForRatio >= 2) {\n            return - 1;\n        } else {\n            return 0;\n        }\n    }\n\n    event ClaimantWithdrawal(address claimAddress, uint amountWithdrawn);\n    event SellerWithdrawal(address sellerAddress, uint amountWithdrawn);\n    event ThirdPartyInvocation(address invokerAddress);\n    event BuyerRefund(address buyerAddress);\n\n    /*\n    Function which when called by the seller/one of the buyers rewards him with the correct amount\n    depending on whether the dataset was adversarial or not or if a thirdParty verification\n    engine was used\n    */\n    function getReward() public payable {\n        //require(now > end); //REMOVE THIS BEFORE DEPLOYMENT\n        require(thirdPartyInvoked == false);\n        require(forcedThirdInvocation == false);\n        //Case when dataset was deemed cleen by testers\n        if (collateralWasPaid == true) {\n            if (getCurrentDatasetOpinion() == 1) {\n                if (msg.sender == seller) {\n                    //                require(collateralWasPaid == true);\n                    uint transferValue = ownerDeposit + (buyerIndex * price);\n                    seller.transfer(ownerDeposit + (buyerIndex * price));\n                    emit SellerWithdrawal(msg.sender, transferValue);\n                    return;\n                } else {\n                    require(cleanClaims[msg.sender] > 0);\n                    uint betSize = cleanClaimantArray[cleanClaims[msg.sender] - 1].sizeOfBet;\n                    uint transferValue = (betSize.fromUInt().div(totalCleanPool).mul(testPool.fromUInt().add(totalAdvPool))).toUInt() + betSize;\n                    msg.sender.transfer(transferValue);\n                    emit ClaimantWithdrawal(msg.sender, transferValue);\n                    cleanClaims[msg.sender] = 0;\n                    return;\n\n                }\n\n            } else if (getCurrentDatasetOpinion() == - 1) {\n                require(buyers[msg.sender] == 1);\n\n                msg.sender.transfer(price);\n                emit BuyerRefund(msg.sender);\n                if (advClaims[msg.sender] > 0) {\n                    uint betSize = advClaimantArray[advClaims[msg.sender] - 1].sizeOfBet;\n                    uint transferValue = betSize.fromUInt().div(totalAdvPool).mul((testPool.fromUInt().add(ownerDeposit.fromUInt().add(totalCleanPool)))).toUInt() + betSize;\n                    msg.sender.transfer(transferValue);\n                    emit ClaimantWithdrawal(msg.sender, transferValue);\n\n                }\n\n                buyers[msg.sender] = 0;\n\n            } else {\n                thirdPartyInvoked = true;\n                emit ThirdPartyInvocation(msg.sender);\n\n            }\n        }\n        else {\n            require(buyers[msg.sender] == 1);\n            msg.sender.transfer(price);\n            emit BuyerRefund(msg.sender);\n            if (advClaims[msg.sender] > 0) {\n                uint betSize = advClaimantArray[advClaims[msg.sender] - 1].sizeOfBet;\n                uint transferValue = betSize.fromUInt().div(totalAdvPool).mul((testPool.fromUInt().add(ownerDeposit.fromUInt().add(totalCleanPool)))).toUInt() + betSize;\n                msg.sender.transfer(transferValue);\n                emit ClaimantWithdrawal(msg.sender, transferValue);\n            }\n            buyers[msg.sender] = 0;\n\n        }\n    }\n\n    event ThirdPartyDecision(address thirdPartyAddress, int decision);\n    event ThirdPartyPayment(address thirdPartyAddress, uint amountWithdrawn);\n    //1 = clean, -1 = adversarial, anything else rejects\n    function thirdPartyDecision(int _decision) public payable {\n        require(thirdPartyInvoked = true && msg.sender == thirdPartyAddress);\n        if (_decision == 1) {\n\n            seller.transfer(ownerDeposit + (buyerIndex * price));\n\n            emit SellerWithdrawal(seller, ownerDeposit + (buyerIndex * price));\n            for (uint i = 0; i < cleanClaimantArray.length; i++) {\n                uint claimReward = cleanClaimantArray[i].sizeOfBet.fromUInt().div(totalCleanPool).mul(testPool.fromUInt()).toUInt() + cleanClaimantArray[i].sizeOfBet;\n                cleanClaimantArray[i].claimAddress.transfer(claimReward);\n                emit ClaimantWithdrawal(cleanClaimantArray[i].claimAddress, claimReward);\n            }\n            msg.sender.transfer(totalAdvPool.toUInt());\n            emit ThirdPartyPayment(msg.sender, totalAdvPool.toUInt());\n            emit ThirdPartyDecision(msg.sender, 1);\n        } else if (_decision == - 1) {\n\n            for (uint i = 0; i < buyerIndex; i++) {\n                msg.sender.transfer(price);\n                emit BuyerRefund(buyersArray[i]);\n            }\n\n            for (uint i = 0; i < cleanClaimantArray.length; i++) {\n                uint claimReward = advClaimantArray[i].sizeOfBet.fromUInt().div(totalAdvPool).mul(testPool.fromUInt().add(ownerDeposit.fromUInt())).toUInt() + advClaimantArray[i].sizeOfBet;\n                advClaimantArray[i].claimAddress.transfer(claimReward);\n                emit ClaimantWithdrawal(advClaimantArray[i].claimAddress, claimReward);\n\n            }\n            msg.sender.transfer(totalCleanPool.toUInt());\n            emit ThirdPartyPayment(msg.sender, totalCleanPool.toUInt());\n            emit ThirdPartyDecision(msg.sender, - 1);\n        }\n\n    }\n\n    function getForcedInvocationCost() public view returns (uint){\n        return totalAdvPool.toUInt();\n    }\n\n\n    function invokeThirdParty() public payable {\n        //Remove comment below before deployment\n        require(/*now > end - 1 days && now < end &&*/ msg.value == totalAdvPool.toUInt() && msg.sender == seller);\n        forcedThirdInvocation = true;\n        emit ThirdPartyInvocation(msg.sender);\n    }\n\n    event ForcedThirdPartyDecision(address thirdPartyAddress, uint cost, int decision);\n\n    function forcedThirdPartyDecision(int _decision) public payable {\n        require(thirdPartyInvoked = true && msg.sender == thirdPartyAddress);\n        if (_decision == 1) {\n            seller.transfer(ownerDeposit + (buyerIndex * price) + totalAdvPool.toUInt());\n            emit SellerWithdrawal(seller, ownerDeposit + (buyerIndex * price));\n            if (cleanClaimantArray.length > 0) {\n                for (uint i = 0; i < cleanClaimantArray.length; i++) {\n                    uint claimReward = cleanClaimantArray[i].sizeOfBet.fromUInt().div(totalCleanPool).mul(testPool.fromUInt()).toUInt() + cleanClaimantArray[i].sizeOfBet;\n                    cleanClaimantArray[i].claimAddress.transfer(claimReward);\n                    emit ClaimantWithdrawal(cleanClaimantArray[i].claimAddress, claimReward);\n\n                }\n            }\n            else {\n                seller.transfer(testPool);\n            }\n            msg.sender.transfer(address(this).balance);\n            emit ForcedThirdPartyDecision(msg.sender, totalAdvPool.toUInt(), _decision);\n        } else if (_decision == - 1) {\n            for (uint i = 0; i < buyerIndex; i++) {\n                msg.sender.transfer(price);\n                emit BuyerRefund(buyersArray[i]);\n            }\n            for (uint i = 0; i < advClaimantArray.length; i++) {\n                uint claimReward = advClaimantArray[i].sizeOfBet.fromUInt().div(totalAdvPool).mul(testPool.fromUInt().add(ownerDeposit.fromUInt().add(totalCleanPool))).toUInt() + advClaimantArray[i].sizeOfBet;\n                advClaimantArray[i].claimAddress.transfer(claimReward);\n                emit ClaimantWithdrawal(advClaimantArray[i].claimAddress, claimReward);\n            }\n            msg.sender.transfer(totalAdvPool.toUInt());\n            emit ForcedThirdPartyDecision(msg.sender, totalAdvPool.toUInt(), _decision);\n        }\n\n    }\n\n    function returncleanClaims() public view returns (uint){\n        return cleanClaims[msg.sender];\n    }\n\n    function getError() public view returns (uint){\n        return cleanClaimantArray[cleanClaims[msg.sender]].sizeOfBet;\n\n    }\n\n    function addBetSizes() public view returns (uint){\n        uint value;\n        for (uint i = 0; i < cleanClaimantArray.length; i++) {\n            value = value + cleanClaimantArray[i].sizeOfBet;\n        }\n        return value;\n    }\n\n    function returnBetRatios(uint index) public view returns (uint){\n        return cleanClaimantArray[index].sizeOfBet.fromUInt().mul(hundred16).div(totalCleanPool).toUInt();\n    }\n\n    function getTotalCleanPoolValue() public view returns (uint){\n        return totalCleanPool.toUInt();\n    }\n\n    function getTotalAdvPoolValue() public view returns (uint){\n        return totalAdvPool.toUInt();\n    }\n    /*\n    Default fallback function\n    */\n    function() external payable {\n        deposit();\n    }\n\n    //   helper functions for debugging/development\n    function incrementValues() public payable {\n        advClaimant memory adv;\n        advClaimantArray.push(adv);\n    }\n\n    function getArrayLength() public view returns (uint) {\n        return advClaimantArray.length;\n    }\n\n    function getAdvClaimStrings(uint _index) public view returns (string memory) {\n        return advClaimantArray[_index].adversarialGenMethod;\n    }\n\n    function getContractBalance() public view returns (uint) {\n        return address(this).balance;\n    }\n\n    function getContractAddress() public view returns (address) {\n        return address(this);\n    }\n\n}",
  "sourcePath": "contracts/PrototypeOne.sol",
  "type": "contract"
}